{"contracts/GenShareRegistry.sol":{"GenShareRegistry":{"abi":[{"inputs":[],"stateMutability":"nonpayable","type":"constructor"},{"anonymous":false,"inputs":[{"indexed":false,"internalType":"string","name":"pid","type":"string"},{"indexed":true,"internalType":"address","name":"researcher","type":"address"},{"indexed":true,"internalType":"uint256","name":"recordIndex","type":"uint256"},{"indexed":false,"internalType":"string","name":"reason","type":"string"},{"indexed":false,"internalType":"uint256","name":"timestamp","type":"uint256"}],"name":"AccessDenied","type":"event"},{"anonymous":false,"inputs":[{"indexed":true,"internalType":"uint256","name":"consentIndex","type":"uint256"},{"indexed":false,"internalType":"string","name":"pid","type":"string"},{"indexed":true,"internalType":"address","name":"researcher","type":"address"},{"indexed":false,"internalType":"uint256","name":"recordIndex","type":"uint256"},{"indexed":false,"internalType":"uint256","name":"grantedAt","type":"uint256"},{"indexed":false,"internalType":"uint256","name":"expiresAt","type":"uint256"}],"name":"ConsentGranted","type":"event"},{"anonymous":false,"inputs":[{"indexed":true,"internalType":"uint256","name":"consentIndex","type":"uint256"},{"indexed":false,"internalType":"string","name":"pid","type":"string"},{"indexed":true,"internalType":"address","name":"researcher","type":"address"},{"indexed":false,"internalType":"uint256","name":"timestamp","type":"uint256"}],"name":"ConsentRevoked","type":"event"},{"anonymous":false,"inputs":[{"indexed":false,"internalType":"string","name":"pid","type":"string"},{"indexed":true,"internalType":"address","name":"researcher","type":"address"},{"indexed":true,"internalType":"uint256","name":"recordIndex","type":"uint256"},{"indexed":true,"internalType":"uint256","name":"consentIndex","type":"uint256"},{"indexed":false,"internalType":"uint256","name":"timestamp","type":"uint256"}],"name":"DataAccessed","type":"event"},{"anonymous":false,"inputs":[{"indexed":true,"internalType":"uint256","name":"recordIndex","type":"uint256"},{"indexed":false,"internalType":"string","name":"pid","type":"string"},{"indexed":false,"internalType":"string","name":"fileHash","type":"string"},{"indexed":false,"internalType":"string","name":"ipfsCID","type":"string"},{"indexed":true,"internalType":"address","name":"registeredBy","type":"address"},{"indexed":false,"internalType":"uint256","name":"timestamp","type":"uint256"}],"name":"GenomicDataRegistered","type":"event"},{"anonymous":false,"inputs":[{"indexed":true,"internalType":"uint256","name":"proposalId","type":"uint256"},{"indexed":true,"internalType":"address","name":"applicant","type":"address"},{"indexed":false,"internalType":"enum GenShareRegistry.Role","name":"role","type":"uint8"}],"name":"RegistrationApproved","type":"event"},{"anonymous":false,"inputs":[{"indexed":true,"internalType":"uint256","name":"proposalId","type":"uint256"},{"indexed":true,"internalType":"address","name":"applicant","type":"address"},{"indexed":false,"internalType":"enum GenShareRegistry.Role","name":"requestedRole","type":"uint8"},{"indexed":false,"internalType":"uint256","name":"deadline","type":"uint256"}],"name":"RegistrationProposed","type":"event"},{"anonymous":false,"inputs":[{"indexed":true,"internalType":"uint256","name":"proposalId","type":"uint256"},{"indexed":true,"internalType":"address","name":"applicant","type":"address"},{"indexed":false,"internalType":"enum GenShareRegistry.Role","name":"role","type":"uint8"}],"name":"RegistrationRejected","type":"event"},{"anonymous":false,"inputs":[{"indexed":true,"internalType":"uint256","name":"proposalId","type":"uint256"},{"indexed":true,"internalType":"address","name":"voter","type":"address"},{"indexed":false,"internalType":"bool","name":"approve","type":"bool"}],"name":"RegistrationVoted","type":"event"},{"anonymous":false,"inputs":[{"indexed":true,"internalType":"address","name":"account","type":"address"},{"indexed":false,"internalType":"enum GenShareRegistry.Role","name":"role","type":"uint8"}],"name":"RoleRegistered","type":"event"},{"inputs":[],"name":"consentCount","outputs":[{"internalType":"uint256","name":"","type":"uint256"}],"stateMutability":"view","type":"function"},{"inputs":[{"internalType":"uint256","name":"","type":"uint256"}],"name":"consents","outputs":[{"internalType":"string","name":"pid","type":"string"},{"internalType":"address","name":"researcher","type":"address"},{"internalType":"uint256","name":"recordIndex","type":"uint256"},{"internalType":"uint256","name":"grantedAt","type":"uint256"},{"internalType":"uint256","name":"expiresAt","type":"uint256"},{"internalType":"bool","name":"revoked","type":"bool"},{"internalType":"bool","name":"exists","type":"bool"}],"stateMutability":"view","type":"function"},{"inputs":[{"internalType":"uint256","name":"_proposalId","type":"uint256"}],"name":"finalizeRegistration","outputs":[],"stateMutability":"nonpayable","type":"function"},{"inputs":[{"internalType":"uint256","name":"","type":"uint256"}],"name":"genomicRecords","outputs":[{"internalType":"string","name":"pid","type":"string"},{"internalType":"string","name":"fileHash","type":"string"},{"internalType":"string","name":"ipfsCID","type":"string"},{"internalType":"address","name":"registeredBy","type":"address"},{"internalType":"uint256","name":"timestamp","type":"uint256"},{"internalType":"bool","name":"exists","type":"bool"}],"stateMutability":"view","type":"function"},{"inputs":[{"internalType":"uint256","name":"_index","type":"uint256"}],"name":"getConsent","outputs":[{"internalType":"string","name":"pid","type":"string"},{"internalType":"address","name":"researcher","type":"address"},{"internalType":"uint256","name":"recordIndex","type":"uint256"},{"internalType":"uint256","name":"grantedAt","type":"uint256"},{"internalType":"uint256","name":"expiresAt","type":"uint256"},{"internalType":"bool","name":"revoked","type":"bool"}],"stateMutability":"view","type":"function"},{"inputs":[{"internalType":"uint256","name":"_index","type":"uint256"}],"name":"getGenomicRecord","outputs":[{"internalType":"string","name":"pid","type":"string"},{"internalType":"string","name":"fileHash","type":"string"},{"internalType":"string","name":"ipfsCID","type":"string"},{"internalType":"address","name":"registeredBy","type":"address"},{"internalType":"uint256","name":"timestamp","type":"uint256"}],"stateMutability":"view","type":"function"},{"inputs":[{"internalType":"uint256","name":"_proposalId","type":"uint256"}],"name":"getProposal","outputs":[{"internalType":"address","name":"applicant","type":"address"},{"internalType":"enum GenShareRegistry.Role","name":"requestedRole","type":"uint8"},{"internalType":"uint256","name":"approveCount","type":"uint256"},{"internalType":"uint256","name":"rejectCount","type":"uint256"},{"internalType":"uint256","name":"deadline","type":"uint256"},{"internalType":"enum GenShareRegistry.ProposalStatus","name":"status","type":"uint8"}],"stateMutability":"view","type":"function"},{"inputs":[{"internalType":"string","name":"_pid","type":"string"},{"internalType":"address","name":"_researcher","type":"address"},{"internalType":"uint256","name":"_recordIndex","type":"uint256"},{"internalType":"uint256","name":"_durationDays","type":"uint256"}],"name":"grantConsent","outputs":[{"internalType":"uint256","name":"","type":"uint256"}],"stateMutability":"nonpayable","type":"function"},{"inputs":[{"internalType":"uint256","name":"","type":"uint256"},{"internalType":"address","name":"","type":"address"}],"name":"hasVoted","outputs":[{"internalType":"bool","name":"","type":"bool"}],"stateMutability":"view","type":"function"},{"inputs":[{"internalType":"uint256","name":"_consentIndex","type":"uint256"}],"name":"isConsentActive","outputs":[{"internalType":"bool","name":"","type":"bool"}],"stateMutability":"view","type":"function"},{"inputs":[{"internalType":"string","name":"_pid","type":"string"},{"internalType":"address","name":"_researcher","type":"address"},{"internalType":"uint256","name":"_recordIndex","type":"uint256"},{"internalType":"uint256","name":"_consentIndex","type":"uint256"}],"name":"logAccess","outputs":[{"internalType":"bool","name":"","type":"bool"}],"stateMutability":"nonpayable","type":"function"},{"inputs":[{"internalType":"uint8","name":"","type":"uint8"}],"name":"memberCount","outputs":[{"internalType":"uint256","name":"","type":"uint256"}],"stateMutability":"view","type":"function"},{"inputs":[],"name":"owner","outputs":[{"internalType":"address","name":"","type":"address"}],"stateMutability":"view","type":"function"},{"inputs":[],"name":"proposalCount","outputs":[{"internalType":"uint256","name":"","type":"uint256"}],"stateMutability":"view","type":"function"},{"inputs":[{"internalType":"uint256","name":"","type":"uint256"}],"name":"proposals","outputs":[{"internalType":"address","name":"applicant","type":"address"},{"internalType":"enum GenShareRegistry.Role","name":"requestedRole","type":"uint8"},{"internalType":"uint256","name":"approveCount","type":"uint256"},{"internalType":"uint256","name":"rejectCount","type":"uint256"},{"internalType":"uint256","name":"deadline","type":"uint256"},{"internalType":"enum GenShareRegistry.ProposalStatus","name":"status","type":"uint8"},{"internalType":"bool","name":"exists","type":"bool"}],"stateMutability":"view","type":"function"},{"inputs":[{"internalType":"address","name":"_applicant","type":"address"},{"internalType":"enum GenShareRegistry.Role","name":"_role","type":"uint8"},{"internalType":"uint256","name":"_votingDays","type":"uint256"}],"name":"proposeRegistration","outputs":[{"internalType":"uint256","name":"","type":"uint256"}],"stateMutability":"nonpayable","type":"function"},{"inputs":[],"name":"recordCount","outputs":[{"internalType":"uint256","name":"","type":"uint256"}],"stateMutability":"view","type":"function"},{"inputs":[{"internalType":"string","name":"_pid","type":"string"},{"internalType":"string","name":"_fileHash","type":"string"},{"internalType":"string","name":"_ipfsCID","type":"string"}],"name":"registerGenomicData","outputs":[{"internalType":"uint256","name":"","type":"uint256"}],"stateMutability":"nonpayable","type":"function"},{"inputs":[{"internalType":"address","name":"_account","type":"address"},{"internalType":"enum GenShareRegistry.Role","name":"_role","type":"uint8"}],"name":"registerRole","outputs":[],"stateMutability":"nonpayable","type":"function"},{"inputs":[{"internalType":"uint256","name":"_consentIndex","type":"uint256"}],"name":"revokeConsent","outputs":[],"stateMutability":"nonpayable","type":"function"},{"inputs":[{"internalType":"address","name":"","type":"address"}],"name":"roles","outputs":[{"internalType":"enum GenShareRegistry.Role","name":"","type":"uint8"}],"stateMutability":"view","type":"function"},{"inputs":[{"internalType":"uint256","name":"_recordIndex","type":"uint256"},{"internalType":"string","name":"_fileHash","type":"string"}],"name":"verifyIntegrity","outputs":[{"internalType":"bool","name":"matches","type":"bool"}],"stateMutability":"view","type":"function"},{"inputs":[{"internalType":"uint256","name":"_proposalId","type":"uint256"},{"internalType":"bool","name":"_approve","type":"bool"},{"internalType":"address","name":"_voter","type":"address"}],"name":"voteOnRegistration","outputs":[],"stateMutability":"nonpayable","type":"function"}],"evm":{"bytecode":{"linkReferences":{},"object":"608060405234801561001057600080fd5b50600080546001600160a01b03191633179055612a3d806100326000396000f3fe608060405234801561001057600080fd5b506004361061014d5760003560e01c8063861a9066116100c3578063bb8b0e5b1161007c578063bb8b0e5b1461038f578063c7f758a8146103a2578063d557d53a146103c7578063da35c664146103ed578063da9ee29f146103f6578063f9de98e11461041657600080fd5b8063861a9066146102f25780638da5cb5b14610305578063900407bc146103305780639937464214610339578063b11053ad14610369578063bad34b2f1461037c57600080fd5b80631e1230f0116101155780631e1230f01461023b5780631edb91971461025e578063205bb9631461026757806332c4eac11461027a578063438596321461029f5780637a0e09aa146102cd57600080fd5b8063013cf08b146101525780630acc207e146101ce57806310b3140d146101ef5780631177ce051461021357806316a0042c14610228575b600080fd5b6101b2610160366004611ea3565b6004602081905260009182526040909120805460018201546002830154600384015493909401546001600160a01b0383169460ff600160a01b9094048416949293909291808216916101009091041687565b6040516101c59796959493929190611ef6565b60405180910390f35b6101e16101dc366004611f8f565b610429565b6040519081526020016101c5565b6102026101fd366004611ea3565b6105fb565b6040516101c595949392919061206f565b6102266102213660046120e2565b61081b565b005b610226610236366004611ea3565b610d39565b61024e610249366004611ea3565b610e18565b60405190151581526020016101c5565b6101e160085481565b61024e610275366004612125565b610e5b565b61028d610288366004611ea3565b610ed5565b6040516101c596959493929190612171565b61024e6102ad3660046121d4565b600560209081526000928352604080842090915290825290205460ff1681565b6102e06102db366004611ea3565b6110b0565b6040516101c596959493929190612200565b610226610300366004612256565b6111c3565b600054610318906001600160a01b031681565b6040516001600160a01b0390911681526020016101c5565b6101e160065481565b61035c610347366004612280565b60016020526000908152604090205460ff1681565b6040516101c5919061229b565b610226610377366004611ea3565b61134a565b6101e161038a3660046122af565b6115bd565b6101e161039d366004612315565b6117c6565b6103b56103b0366004611ea3565b611be6565b6040516101c596959493929190612351565b6103da6103d5366004611ea3565b611c6b565b6040516101c59796959493929190612398565b6101e160035481565b6101e16104043660046123e9565b60026020526000908152604090205481565b61024e6104243660046122af565b611d3e565b6006546040805160e06020601f8a01819004028201810190925260c08101888152600093928291908b908b9081908501838280828437600092019190915250505090825250604080516020601f8a0181900481028201810190925288815291810191908990899081908401838280828437600092019190915250505090825250604080516020601f88018190048102820181019092528681529181019190879087908190840183828082843760009201829052509385525050336020808501919091524260408086019190915260016060909501949094528583526007905250208151819061051890826124a7565b506020820151600182019061052d90826124a7565b506040820151600282019061054290826124a7565b5060608201516003820180546001600160a01b0319166001600160a01b039092169190911790556080820151600482015560a0909101516005909101805460ff19169115159190911790556006805490600061059d8361257d565b9190505550336001600160a01b0316817f507881d9472ba70f599c171f42b26cd4ab35a569fd366cbd11c9dc6ee20c1b9b8a8a8a8a8a8a426040516105e897969594939291906125bf565b60405180910390a3979650505050505050565b600081815260076020526040812060058101546060928392839282919060ff166106405760405162461bcd60e51b815260040161063790612610565b60405180910390fd5b6003810154600482015482548392600184019260028501926001600160a01b0390921691859061066f90612422565b80601f016020809104026020016040519081016040528092919081815260200182805461069b90612422565b80156106e85780601f106106bd576101008083540402835291602001916106e8565b820191906000526020600020905b8154815290600101906020018083116106cb57829003601f168201915b505050505094508380546106fb90612422565b80601f016020809104026020016040519081016040528092919081815260200182805461072790612422565b80156107745780601f1061074957610100808354040283529160200191610774565b820191906000526020600020905b81548152906001019060200180831161075757829003601f168201915b5050505050935082805461078790612422565b80601f01602080910402602001604051908101604052809291908181526020018280546107b390612422565b80156108005780601f106107d557610100808354040283529160200191610800565b820191906000526020600020905b8154815290600101906020018083116107e357829003601f168201915b50505050509250955095509550955095505091939590929450565b600083815260046020819052604090912090810154610100900460ff166108545760405162461bcd60e51b81526004016106379061263f565b6000600482015460ff16600281111561086f5761086f611ebc565b146108bc5760405162461bcd60e51b815260206004820152601960248201527f50726f706f73616c20616c7265616479207265736f6c766564000000000000006044820152606401610637565b80600301544211156109065760405162461bcd60e51b8152602060048201526013602482015272159bdd1a5b99c81c195c9a5bd908195b991959606a1b6044820152606401610637565b336001600160a01b038316148061092757506000546001600160a01b031633145b6109815760405162461bcd60e51b815260206004820152602560248201527f556e617574686f72697a656420746f20766f746520666f722074686973206164604482015264647265737360d81b6064820152608401610637565b8054600160a01b900460ff16600381111561099e5761099e611ebc565b6001600160a01b03831660009081526001602052604090205460ff1660038111156109cb576109cb611ebc565b14610a185760405162461bcd60e51b815260206004820152601b60248201527f4d75737420686f6c642073616d6520726f6c6520746f20766f746500000000006044820152606401610637565b60008481526005602090815260408083206001600160a01b038616845290915290205460ff1615610a7b5760405162461bcd60e51b815260206004820152600d60248201526c105b1c9958591e481d9bdd1959609a1b6044820152606401610637565b60008481526005602090815260408083206001600160a01b03861684529091529020805460ff191660011790558215610aca57600181018054906000610ac08361257d565b9190505550610ae2565b600281018054906000610adc8361257d565b91905055505b816001600160a01b0316847f54df9f13d0fba24181a5d64acb9ef191b5eb43f5629b164d326282d618f3e34485604051610b20911515815260200190565b60405180910390a380546000906002908290600160a01b900460ff166003811115610b4d57610b4d611ebc565b60ff16815260208101919091526040016000908120549150610b70600283612676565b610b7b906001612698565b905080836001015410610cc3576004830180546001919060ff19168280021790555082546001600160a01b03811660009081526001602081905260409091208054600160a01b90930460ff1692909160ff1990911690836003811115610be357610be3611ebc565b02179055508254600290600090600160a01b900460ff166003811115610c0b57610c0b611ebc565b60ff16815260208101919091526040016000908120805491610c2c8361257d565b909155505082546040516001600160a01b038216916000805160206129e883398151915291610c6591600160a01b900460ff169061229b565b60405180910390a282546040516001600160a01b0382169188917ffdb7e11145e15b9f4f6cbc27d43097bfe95fd3b1cd21b5fbcf033f50e350066c91610cb691600160a01b90910460ff169061229b565b60405180910390a3610d31565b80836002015410610d3157600483018054600260ff1990911617905582546040516001600160a01b0382169188917f1cf71c85a43a7a1c0a432bd307c6117bf702d4a7aa72ed16c7c5ab22a59ad38391610d2891600160a01b90910460ff169061229b565b60405180910390a35b505050505050565b60008181526009602052604090206005810154610100900460ff16610d705760405162461bcd60e51b8152600401610637906126ab565b600581015460ff1615610db75760405162461bcd60e51b815260206004820152600f60248201526e105b1c9958591e481c995d9bdad959608a1b6044820152606401610637565b60058101805460ff191660019081179091558101546040516001600160a01b039091169083907f046822d776370604e191182e5581386e4e1096af80846ca3940e7a23f140bced90610e0c90859042906126e1565b60405180910390a35050565b60008181526009602052604081206005810154610100900460ff168015610e445750600581015460ff16155b8015610e54575080600401544211155b9392505050565b60008381526007602052604081206005015460ff16610e8c5760405162461bcd60e51b815260040161063790612610565b8282604051610e9c929190612775565b6040805191829003822060008781526007602052919091209091610ec39160010190612785565b60405180910390201490509392505050565b600760205260009081526040902080548190610ef090612422565b80601f0160208091040260200160405190810160405280929190818152602001828054610f1c90612422565b8015610f695780601f10610f3e57610100808354040283529160200191610f69565b820191906000526020600020905b815481529060010190602001808311610f4c57829003601f168201915b505050505090806001018054610f7e90612422565b80601f0160208091040260200160405190810160405280929190818152602001828054610faa90612422565b8015610ff75780601f10610fcc57610100808354040283529160200191610ff7565b820191906000526020600020905b815481529060010190602001808311610fda57829003601f168201915b50505050509080600201805461100c90612422565b80601f016020809104026020016040519081016040528092919081815260200182805461103890612422565b80156110855780601f1061105a57610100808354040283529160200191611085565b820191906000526020600020905b81548152906001019060200180831161106857829003601f168201915b505050506003830154600484015460059094015492936001600160a01b039091169290915060ff1686565b6000818152600960205260408120600581015460609291829182918291829190610100900460ff166110f45760405162461bcd60e51b8152600401610637906126ab565b60018101546002820154600383015460048401546005850154855486956001600160a01b03169493929160ff1690869061112d90612422565b80601f016020809104026020016040519081016040528092919081815260200182805461115990612422565b80156111a65780601f1061117b576101008083540402835291602001916111a6565b820191906000526020600020905b81548152906001019060200180831161118957829003601f168201915b505050505095509650965096509650965096505091939550919395565b6000546001600160a01b0316331461120a5760405162461bcd60e51b815260206004820152600a60248201526927b7363c9037bbb732b960b11b6044820152606401610637565b600081600381111561121e5761121e611ebc565b0361126b5760405162461bcd60e51b815260206004820152601760248201527f43616e6e6f742061737369676e204e6f6e6520726f6c650000000000000000006044820152606401610637565b6001600160a01b03821660009081526001602052604081205460ff16600381111561129857611298611ebc565b036112da57600260008260038111156112b3576112b3611ebc565b60ff168152602081019190915260400160009081208054916112d48361257d565b91905055505b6001600160a01b03821660009081526001602081905260409091208054839260ff199091169083600381111561131257611312611ebc565b0217905550816001600160a01b03166000805160206129e88339815191528260405161133e919061229b565b60405180910390a25050565b600081815260046020819052604090912090810154610100900460ff166113835760405162461bcd60e51b81526004016106379061263f565b6000600482015460ff16600281111561139e5761139e611ebc565b146113de5760405162461bcd60e51b815260206004820152601060248201526f105b1c9958591e481c995cdbdb1d995960821b6044820152606401610637565b806003015442116114255760405162461bcd60e51b81526020600482015260116024820152702b37ba34b7339039ba34b6361037b832b760791b6044820152606401610637565b806002015481600101541115611563576004810180546001919060ff19168280021790555080546001600160a01b03811660009081526001602081905260409091208054600160a01b90930460ff1692909160ff199091169083600381111561149057611490611ebc565b02179055508054600290600090600160a01b900460ff1660038111156114b8576114b8611ebc565b60ff168152602081019190915260400160009081208054916114d98361257d565b909155505080546040516001600160a01b038216916000805160206129e88339815191529161151291600160a01b900460ff169061229b565b60405180910390a280546040516001600160a01b0382169184917ffdb7e11145e15b9f4f6cbc27d43097bfe95fd3b1cd21b5fbcf033f50e350066c91610e0c91600160a01b90910460ff169061229b565b600481018054600260ff1990911617905580546040516001600160a01b0382169184917f1cf71c85a43a7a1c0a432bd307c6117bf702d4a7aa72ed16c7c5ab22a59ad38391610e0c91600160a01b90910460ff169061229b565b60008281526007602052604081206005015460ff166115ee5760405162461bcd60e51b815260040161063790612610565b600082116116355760405162461bcd60e51b815260206004820152601460248201527304475726174696f6e206d757374206265203e20360641b6044820152606401610637565b600854600061164784620151806127fb565b6116519042612698565b604080516101006020601f8c01819004028201810190925260e081018a81529293509182918b908b908190850183828082843760009201829052509385525050506001600160a01b03891660208084019190915260408084018a90524260608501526080840186905260a08401839052600160c0909401939093528582526009905220815181906116e290826124a7565b5060208201516001820180546001600160a01b039092166001600160a01b031990921691909117905560408201516002820155606082015160038201556080820151600482015560a08201516005909101805460c09093015115156101000261ff00199215159290921661ffff19909316929092171790556008805490600061176a8361257d565b9190505550856001600160a01b0316827f0c78594ef217f41cf185e25d2754d568d45b23a830b1dccefd45ae0aa05d70c28a8a8942876040516117b1959493929190612812565b60405180910390a35090505b95945050505050565b600060028360038111156117dc576117dc611ebc565b14806117f9575060038360038111156117f7576117f7611ebc565b145b6118455760405162461bcd60e51b815260206004820152601c60248201527f4f6e6c79204c6162206f72205265736561726368657220726f6c6573000000006044820152606401610637565b6001600160a01b03841660009081526001602052604081205460ff16600381111561187257611872611ebc565b146118b45760405162461bcd60e51b8152602060048201526012602482015271416c726561647920686173206120726f6c6560701b6044820152606401610637565b600082116119045760405162461bcd60e51b815260206004820152601b60248201527f566f74696e67206475726174696f6e206d757374206265203e203000000000006044820152606401610637565b600354600061191684620151806127fb565b6119209042612698565b90506040518060e00160405280876001600160a01b0316815260200186600381111561194e5761194e611ebc565b815260200160008152602001600081526020018281526020016000600281111561197a5761197a611ebc565b8152600160209182015260008481526004825260409020825181546001600160a01b039091166001600160a01b031982168117835592840151919283916001600160a81b03191617600160a01b8360038111156119d9576119d9611ebc565b021790555060408201518160010155606082015181600201556080820151816003015560a08201518160040160006101000a81548160ff02191690836002811115611a2657611a26611ebc565b021790555060c09190910151600490910180549115156101000261ff001990921691909117905560038054906000611a5d8361257d565b9190505550856001600160a01b0316827fc3761c607cdaac1aa357f04c10d0df99cf35aafc634da0b25c91b74b646a981b8784604051611a9e929190612843565b60405180910390a360026000866003811115611abc57611abc611ebc565b60ff1660ff16815260200190815260200160002054600003611bdd5760008281526004602081815260408084209092018054600160ff1991821681179092556001600160a01b038b1685529181905291909220805488939192911690836003811115611b2a57611b2a611ebc565b021790555060026000866003811115611b4557611b45611ebc565b60ff16815260208101919091526040016000908120805491611b668361257d565b9190505550856001600160a01b03166000805160206129e883398151915286604051611b92919061229b565b60405180910390a2856001600160a01b0316827ffdb7e11145e15b9f4f6cbc27d43097bfe95fd3b1cd21b5fbcf033f50e350066c87604051611bd4919061229b565b60405180910390a35b50949350505050565b60008181526004602081905260408220908101548291829182918291829190610100900460ff16611c295760405162461bcd60e51b81526004016106379061263f565b80546001820154600283015460038401546004909401546001600160a01b0384169c60ff600160a01b90950485169c50929a5090985092965091169350915050565b600960205260009081526040902080548190611c8690612422565b80601f0160208091040260200160405190810160405280929190818152602001828054611cb290612422565b8015611cff5780601f10611cd457610100808354040283529160200191611cff565b820191906000526020600020905b815481529060010190602001808311611ce257829003601f168201915b505050600184015460028501546003860154600487015460059097015495966001600160a01b0390931695919450925060ff8082169161010090041687565b60008181526009602052604081206005810154610100900460ff16611d9b5783856001600160a01b03166000805160206129c8833981519152898942604051611d899392919061285e565b60405180910390a360009150506117bd565b600581015460ff1615611dd45783856001600160a01b03166000805160206129c8833981519152898942604051611d89939291906128b8565b8060040154421115611e0c5783856001600160a01b03166000805160206129c8833981519152898942604051611d8993929190612905565b60018101546001600160a01b03868116911614611e4f5783856001600160a01b03166000805160206129c8833981519152898942604051611d8993929190612952565b8284866001600160a01b03167f598c81673d4c4421446f161f9ced18b89d81adb3ef7b0b6afabcfae11148cdc68a8a42604051611e8e939291906129a3565b60405180910390a45060019695505050505050565b600060208284031215611eb557600080fd5b5035919050565b634e487b7160e01b600052602160045260246000fd5b60048110611ee257611ee2611ebc565b9052565b60038110611ee257611ee2611ebc565b6001600160a01b038816815260e08101611f136020830189611ed2565b866040830152856060830152846080830152611f3260a0830185611ee6565b82151560c083015298975050505050505050565b60008083601f840112611f5857600080fd5b50813567ffffffffffffffff811115611f7057600080fd5b602083019150836020828501011115611f8857600080fd5b9250929050565b60008060008060008060608789031215611fa857600080fd5b863567ffffffffffffffff80821115611fc057600080fd5b611fcc8a838b01611f46565b90985096506020890135915080821115611fe557600080fd5b611ff18a838b01611f46565b9096509450604089013591508082111561200a57600080fd5b5061201789828a01611f46565b979a9699509497509295939492505050565b6000815180845260005b8181101561204f57602081850181015186830182015201612033565b506000602082860101526020601f19601f83011685010191505092915050565b60a08152600061208260a0830188612029565b82810360208401526120948188612029565b905082810360408401526120a88187612029565b6001600160a01b039590951660608401525050608001529392505050565b80356001600160a01b03811681146120dd57600080fd5b919050565b6000806000606084860312156120f757600080fd5b833592506020840135801515811461210e57600080fd5b915061211c604085016120c6565b90509250925092565b60008060006040848603121561213a57600080fd5b83359250602084013567ffffffffffffffff81111561215857600080fd5b61216486828701611f46565b9497909650939450505050565b60c08152600061218460c0830189612029565b82810360208401526121968189612029565b905082810360408401526121aa8188612029565b6001600160a01b0396909616606084015250506080810192909252151560a0909101529392505050565b600080604083850312156121e757600080fd5b823591506121f7602084016120c6565b90509250929050565b60c08152600061221360c0830189612029565b6001600160a01b0397909716602083015250604081019490945260608401929092526080830152151560a090910152919050565b8035600481106120dd57600080fd5b6000806040838503121561226957600080fd5b612272836120c6565b91506121f760208401612247565b60006020828403121561229257600080fd5b610e54826120c6565b602081016122a98284611ed2565b92915050565b6000806000806000608086880312156122c757600080fd5b853567ffffffffffffffff8111156122de57600080fd5b6122ea88828901611f46565b90965094506122fd9050602087016120c6565b94979396509394604081013594506060013592915050565b60008060006060848603121561232a57600080fd5b612333846120c6565b925061234160208501612247565b9150604084013590509250925092565b6001600160a01b038716815260c0810161236e6020830188611ed2565b85604083015284606083015283608083015261238d60a0830184611ee6565b979650505050505050565b60e0815260006123ab60e083018a612029565b6001600160a01b0398909816602083015250604081019590955260608501939093526080840191909152151560a0830152151560c090910152919050565b6000602082840312156123fb57600080fd5b813560ff81168114610e5457600080fd5b634e487b7160e01b600052604160045260246000fd5b600181811c9082168061243657607f821691505b60208210810361245657634e487b7160e01b600052602260045260246000fd5b50919050565b601f8211156124a257600081815260208120601f850160051c810160208610156124835750805b601f850160051c820191505b81811015610d315782815560010161248f565b505050565b815167ffffffffffffffff8111156124c1576124c161240c565b6124d5816124cf8454612422565b8461245c565b602080601f83116001811461250a57600084156124f25750858301515b600019600386901b1c1916600185901b178555610d31565b600085815260208120601f198616915b828110156125395788860151825594840194600190910190840161251a565b50858210156125575787850151600019600388901b60f8161c191681555b5050505050600190811b01905550565b634e487b7160e01b600052601160045260246000fd5b60006001820161258f5761258f612567565b5060010190565b81835281816020850137506000828201602090810191909152601f909101601f19169091010190565b6080815260006125d360808301898b612596565b82810360208401526125e681888a612596565b905082810360408401526125fb818688612596565b91505082606083015298975050505050505050565b602080825260159082015274149958dbdc9908191bd95cc81b9bdd08195e1a5cdd605a1b604082015260600190565b60208082526017908201527f50726f706f73616c20646f6573206e6f74206578697374000000000000000000604082015260600190565b60008261269357634e487b7160e01b600052601260045260246000fd5b500490565b808201808211156122a9576122a9612567565b6020815260006122a960208301601681527510dbdb9cd95b9d08191bd95cc81b9bdd08195e1a5cdd60521b602082015260400190565b6040815260008084546126f381612422565b8060408601526060600180841660008114612715576001811461272f57612760565b60ff1985168884015283151560051b880183019550612760565b8960005260208060002060005b868110156127575781548b820187015290840190820161273c565b8a018501975050505b50505050506020929092019290925292915050565b8183823760009101908152919050565b600080835461279381612422565b600182811680156127ab57600181146127c0576127ef565b60ff19841687528215158302870194506127ef565b8760005260208060002060005b858110156127e65781548a8201529084019082016127cd565b50505082870194505b50929695505050505050565b80820281158282048414176122a9576122a9612567565b608081526000612826608083018789612596565b602083019590955250604081019290925260609091015292915050565b604081016128518285611ed2565b8260208301529392505050565b606081526000612872606083018587612596565b82810360208401526128a781601681527510dbdb9cd95b9d08191bd95cc81b9bdd08195e1a5cdd60521b602082015260400190565b915050826040830152949350505050565b6060815260006128cc606083018587612596565b8281036020840152600f81526e10dbdb9cd95b9d081c995d9bdad959608a1b602082015260408101915050826040830152949350505050565b606081526000612919606083018587612596565b8281036020840152600f81526e10dbdb9cd95b9d08195e1c1a5c9959608a1b602082015260408101915050826040830152949350505050565b606081526000612966606083018587612596565b828103602084015260138152720a4cae6cac2e4c6d0cae440dad2e6dac2e8c6d606b1b602082015260408101915050826040830152949350505050565b6040815260006129b7604083018587612596565b905082602083015294935050505056fed4459a1e064160d6e3f216d1cc85b99bdc670d5d4d7342bb04fd6556f5bc7af61e9acfe4df89a29b2be615d44fd962d8ce1fd19ff4a74ddf5a9401a6a4a2a6d2a26469706673582212200ae0a8f682975183b98891f9a8d94f4ce90e260be57f28f89273524351808b1664736f6c63430008140033","opcodes":"PUSH1 0x80 PUSH1 0x40 MSTORE CALLVALUE DUP1 ISZERO PUSH2 0x10 JUMPI PUSH1 0x0 DUP1 REVERT JUMPDEST POP PUSH1 0x0 DUP1 SLOAD PUSH1 0x1 PUSH1 0x1 PUSH1 0xA0 SHL SUB NOT AND CALLER OR SWAP1 SSTORE PUSH2 0x2A3D DUP1 PUSH2 0x32 PUSH1 0x0 CODECOPY PUSH1 0x0 RETURN INVALID PUSH1 0x80 PUSH1 0x40 MSTORE CALLVALUE DUP1 ISZERO PUSH2 0x10 JUMPI PUSH1 0x0 DUP1 REVERT JUMPDEST POP PUSH1 0x4 CALLDATASIZE LT PUSH2 0x14D JUMPI PUSH1 0x0 CALLDATALOAD PUSH1 0xE0 SHR DUP1 PUSH4 0x861A9066 GT PUSH2 0xC3 JUMPI DUP1 PUSH4 0xBB8B0E5B GT PUSH2 0x7C JUMPI DUP1 PUSH4 0xBB8B0E5B EQ PUSH2 0x38F JUMPI DUP1 PUSH4 0xC7F758A8 EQ PUSH2 0x3A2 JUMPI DUP1 PUSH4 0xD557D53A EQ PUSH2 0x3C7 JUMPI DUP1 PUSH4 0xDA35C664 EQ PUSH2 0x3ED JUMPI DUP1 PUSH4 0xDA9EE29F EQ PUSH2 0x3F6 JUMPI DUP1 PUSH4 0xF9DE98E1 EQ PUSH2 0x416 JUMPI PUSH1 0x0 DUP1 REVERT JUMPDEST DUP1 PUSH4 0x861A9066 EQ PUSH2 0x2F2 JUMPI DUP1 PUSH4 0x8DA5CB5B EQ PUSH2 0x305 JUMPI DUP1 PUSH4 0x900407BC EQ PUSH2 0x330 JUMPI DUP1 PUSH4 0x99374642 EQ PUSH2 0x339 JUMPI DUP1 PUSH4 0xB11053AD EQ PUSH2 0x369 JUMPI DUP1 PUSH4 0xBAD34B2F EQ PUSH2 0x37C JUMPI PUSH1 0x0 DUP1 REVERT JUMPDEST DUP1 PUSH4 0x1E1230F0 GT PUSH2 0x115 JUMPI DUP1 PUSH4 0x1E1230F0 EQ PUSH2 0x23B JUMPI DUP1 PUSH4 0x1EDB9197 EQ PUSH2 0x25E JUMPI DUP1 PUSH4 0x205BB963 EQ PUSH2 0x267 JUMPI DUP1 PUSH4 0x32C4EAC1 EQ PUSH2 0x27A JUMPI DUP1 PUSH4 0x43859632 EQ PUSH2 0x29F JUMPI DUP1 PUSH4 0x7A0E09AA EQ PUSH2 0x2CD JUMPI PUSH1 0x0 DUP1 REVERT JUMPDEST DUP1 PUSH4 0x13CF08B EQ PUSH2 0x152 JUMPI DUP1 PUSH4 0xACC207E EQ PUSH2 0x1CE JUMPI DUP1 PUSH4 0x10B3140D EQ PUSH2 0x1EF JUMPI DUP1 PUSH4 0x1177CE05 EQ PUSH2 0x213 JUMPI DUP1 PUSH4 0x16A0042C EQ PUSH2 0x228 JUMPI JUMPDEST PUSH1 0x0 DUP1 REVERT JUMPDEST PUSH2 0x1B2 PUSH2 0x160 CALLDATASIZE PUSH1 0x4 PUSH2 0x1EA3 JUMP JUMPDEST PUSH1 0x4 PUSH1 0x20 DUP2 SWAP1 MSTORE PUSH1 0x0 SWAP2 DUP3 MSTORE PUSH1 0x40 SWAP1 SWAP2 KECCAK256 DUP1 SLOAD PUSH1 0x1 DUP3 ADD SLOAD PUSH1 0x2 DUP4 ADD SLOAD PUSH1 0x3 DUP5 ADD SLOAD SWAP4 SWAP1 SWAP5 ADD SLOAD PUSH1 0x1 PUSH1 0x1 PUSH1 0xA0 SHL SUB DUP4 AND SWAP5 PUSH1 0xFF PUSH1 0x1 PUSH1 0xA0 SHL SWAP1 SWAP5 DIV DUP5 AND SWAP5 SWAP3 SWAP4 SWAP1 SWAP3 SWAP2 DUP1 DUP3 AND SWAP2 PUSH2 0x100 SWAP1 SWAP2 DIV AND DUP8 JUMP JUMPDEST PUSH1 0x40 MLOAD PUSH2 0x1C5 SWAP8 SWAP7 SWAP6 SWAP5 SWAP4 SWAP3 SWAP2 SWAP1 PUSH2 0x1EF6 JUMP JUMPDEST PUSH1 0x40 MLOAD DUP1 SWAP2 SUB SWAP1 RETURN JUMPDEST PUSH2 0x1E1 PUSH2 0x1DC CALLDATASIZE PUSH1 0x4 PUSH2 0x1F8F JUMP JUMPDEST PUSH2 0x429 JUMP JUMPDEST PUSH1 0x40 MLOAD SWAP1 DUP2 MSTORE PUSH1 0x20 ADD PUSH2 0x1C5 JUMP JUMPDEST PUSH2 0x202 PUSH2 0x1FD CALLDATASIZE PUSH1 0x4 PUSH2 0x1EA3 JUMP JUMPDEST PUSH2 0x5FB JUMP JUMPDEST PUSH1 0x40 MLOAD PUSH2 0x1C5 SWAP6 SWAP5 SWAP4 SWAP3 SWAP2 SWAP1 PUSH2 0x206F JUMP JUMPDEST PUSH2 0x226 PUSH2 0x221 CALLDATASIZE PUSH1 0x4 PUSH2 0x20E2 JUMP JUMPDEST PUSH2 0x81B JUMP JUMPDEST STOP JUMPDEST PUSH2 0x226 PUSH2 0x236 CALLDATASIZE PUSH1 0x4 PUSH2 0x1EA3 JUMP JUMPDEST PUSH2 0xD39 JUMP JUMPDEST PUSH2 0x24E PUSH2 0x249 CALLDATASIZE PUSH1 0x4 PUSH2 0x1EA3 JUMP JUMPDEST PUSH2 0xE18 JUMP JUMPDEST PUSH1 0x40 MLOAD SWAP1 ISZERO ISZERO DUP2 MSTORE PUSH1 0x20 ADD PUSH2 0x1C5 JUMP JUMPDEST PUSH2 0x1E1 PUSH1 0x8 SLOAD DUP2 JUMP JUMPDEST PUSH2 0x24E PUSH2 0x275 CALLDATASIZE PUSH1 0x4 PUSH2 0x2125 JUMP JUMPDEST PUSH2 0xE5B JUMP JUMPDEST PUSH2 0x28D PUSH2 0x288 CALLDATASIZE PUSH1 0x4 PUSH2 0x1EA3 JUMP JUMPDEST PUSH2 0xED5 JUMP JUMPDEST PUSH1 0x40 MLOAD PUSH2 0x1C5 SWAP7 SWAP6 SWAP5 SWAP4 SWAP3 SWAP2 SWAP1 PUSH2 0x2171 JUMP JUMPDEST PUSH2 0x24E PUSH2 0x2AD CALLDATASIZE PUSH1 0x4 PUSH2 0x21D4 JUMP JUMPDEST PUSH1 0x5 PUSH1 0x20 SWAP1 DUP2 MSTORE PUSH1 0x0 SWAP3 DUP4 MSTORE PUSH1 0x40 DUP1 DUP5 KECCAK256 SWAP1 SWAP2 MSTORE SWAP1 DUP3 MSTORE SWAP1 KECCAK256 SLOAD PUSH1 0xFF AND DUP2 JUMP JUMPDEST PUSH2 0x2E0 PUSH2 0x2DB CALLDATASIZE PUSH1 0x4 PUSH2 0x1EA3 JUMP JUMPDEST PUSH2 0x10B0 JUMP JUMPDEST PUSH1 0x40 MLOAD PUSH2 0x1C5 SWAP7 SWAP6 SWAP5 SWAP4 SWAP3 SWAP2 SWAP1 PUSH2 0x2200 JUMP JUMPDEST PUSH2 0x226 PUSH2 0x300 CALLDATASIZE PUSH1 0x4 PUSH2 0x2256 JUMP JUMPDEST PUSH2 0x11C3 JUMP JUMPDEST PUSH1 0x0 SLOAD PUSH2 0x318 SWAP1 PUSH1 0x1 PUSH1 0x1 PUSH1 0xA0 SHL SUB AND DUP2 JUMP JUMPDEST PUSH1 0x40 MLOAD PUSH1 0x1 PUSH1 0x1 PUSH1 0xA0 SHL SUB SWAP1 SWAP2 AND DUP2 MSTORE PUSH1 0x20 ADD PUSH2 0x1C5 JUMP JUMPDEST PUSH2 0x1E1 PUSH1 0x6 SLOAD DUP2 JUMP JUMPDEST PUSH2 0x35C PUSH2 0x347 CALLDATASIZE PUSH1 0x4 PUSH2 0x2280 JUMP JUMPDEST PUSH1 0x1 PUSH1 0x20 MSTORE PUSH1 0x0 SWAP1 DUP2 MSTORE PUSH1 0x40 SWAP1 KECCAK256 SLOAD PUSH1 0xFF AND DUP2 JUMP JUMPDEST PUSH1 0x40 MLOAD PUSH2 0x1C5 SWAP2 SWAP1 PUSH2 0x229B JUMP JUMPDEST PUSH2 0x226 PUSH2 0x377 CALLDATASIZE PUSH1 0x4 PUSH2 0x1EA3 JUMP JUMPDEST PUSH2 0x134A JUMP JUMPDEST PUSH2 0x1E1 PUSH2 0x38A CALLDATASIZE PUSH1 0x4 PUSH2 0x22AF JUMP JUMPDEST PUSH2 0x15BD JUMP JUMPDEST PUSH2 0x1E1 PUSH2 0x39D CALLDATASIZE PUSH1 0x4 PUSH2 0x2315 JUMP JUMPDEST PUSH2 0x17C6 JUMP JUMPDEST PUSH2 0x3B5 PUSH2 0x3B0 CALLDATASIZE PUSH1 0x4 PUSH2 0x1EA3 JUMP JUMPDEST PUSH2 0x1BE6 JUMP JUMPDEST PUSH1 0x40 MLOAD PUSH2 0x1C5 SWAP7 SWAP6 SWAP5 SWAP4 SWAP3 SWAP2 SWAP1 PUSH2 0x2351 JUMP JUMPDEST PUSH2 0x3DA PUSH2 0x3D5 CALLDATASIZE PUSH1 0x4 PUSH2 0x1EA3 JUMP JUMPDEST PUSH2 0x1C6B JUMP JUMPDEST PUSH1 0x40 MLOAD PUSH2 0x1C5 SWAP8 SWAP7 SWAP6 SWAP5 SWAP4 SWAP3 SWAP2 SWAP1 PUSH2 0x2398 JUMP JUMPDEST PUSH2 0x1E1 PUSH1 0x3 SLOAD DUP2 JUMP JUMPDEST PUSH2 0x1E1 PUSH2 0x404 CALLDATASIZE PUSH1 0x4 PUSH2 0x23E9 JUMP JUMPDEST PUSH1 0x2 PUSH1 0x20 MSTORE PUSH1 0x0 SWAP1 DUP2 MSTORE PUSH1 0x40 SWAP1 KECCAK256 SLOAD DUP2 JUMP JUMPDEST PUSH2 0x24E PUSH2 0x424 CALLDATASIZE PUSH1 0x4 PUSH2 0x22AF JUMP JUMPDEST PUSH2 0x1D3E JUMP JUMPDEST PUSH1 0x6 SLOAD PUSH1 0x40 DUP1 MLOAD PUSH1 0xE0 PUSH1 0x20 PUSH1 0x1F DUP11 ADD DUP2 SWAP1 DIV MUL DUP3 ADD DUP2 ADD SWAP1 SWAP3 MSTORE PUSH1 0xC0 DUP2 ADD DUP9 DUP2 MSTORE PUSH1 0x0 SWAP4 SWAP3 DUP3 SWAP2 SWAP1 DUP12 SWAP1 DUP12 SWAP1 DUP2 SWAP1 DUP6 ADD DUP4 DUP3 DUP1 DUP3 DUP5 CALLDATACOPY PUSH1 0x0 SWAP3 ADD SWAP2 SWAP1 SWAP2 MSTORE POP POP POP SWAP1 DUP3 MSTORE POP PUSH1 0x40 DUP1 MLOAD PUSH1 0x20 PUSH1 0x1F DUP11 ADD DUP2 SWAP1 DIV DUP2 MUL DUP3 ADD DUP2 ADD SWAP1 SWAP3 MSTORE DUP9 DUP2 MSTORE SWAP2 DUP2 ADD SWAP2 SWAP1 DUP10 SWAP1 DUP10 SWAP1 DUP2 SWAP1 DUP5 ADD DUP4 DUP3 DUP1 DUP3 DUP5 CALLDATACOPY PUSH1 0x0 SWAP3 ADD SWAP2 SWAP1 SWAP2 MSTORE POP POP POP SWAP1 DUP3 MSTORE POP PUSH1 0x40 DUP1 MLOAD PUSH1 0x20 PUSH1 0x1F DUP9 ADD DUP2 SWAP1 DIV DUP2 MUL DUP3 ADD DUP2 ADD SWAP1 SWAP3 MSTORE DUP7 DUP2 MSTORE SWAP2 DUP2 ADD SWAP2 SWAP1 DUP8 SWAP1 DUP8 SWAP1 DUP2 SWAP1 DUP5 ADD DUP4 DUP3 DUP1 DUP3 DUP5 CALLDATACOPY PUSH1 0x0 SWAP3 ADD DUP3 SWAP1 MSTORE POP SWAP4 DUP6 MSTORE POP POP CALLER PUSH1 0x20 DUP1 DUP6 ADD SWAP2 SWAP1 SWAP2 MSTORE TIMESTAMP PUSH1 0x40 DUP1 DUP7 ADD SWAP2 SWAP1 SWAP2 MSTORE PUSH1 0x1 PUSH1 0x60 SWAP1 SWAP6 ADD SWAP5 SWAP1 SWAP5 MSTORE DUP6 DUP4 MSTORE PUSH1 0x7 SWAP1 MSTORE POP KECCAK256 DUP2 MLOAD DUP2 SWAP1 PUSH2 0x518 SWAP1 DUP3 PUSH2 0x24A7 JUMP JUMPDEST POP PUSH1 0x20 DUP3 ADD MLOAD PUSH1 0x1 DUP3 ADD SWAP1 PUSH2 0x52D SWAP1 DUP3 PUSH2 0x24A7 JUMP JUMPDEST POP PUSH1 0x40 DUP3 ADD MLOAD PUSH1 0x2 DUP3 ADD SWAP1 PUSH2 0x542 SWAP1 DUP3 PUSH2 0x24A7 JUMP JUMPDEST POP PUSH1 0x60 DUP3 ADD MLOAD PUSH1 0x3 DUP3 ADD DUP1 SLOAD PUSH1 0x1 PUSH1 0x1 PUSH1 0xA0 SHL SUB NOT AND PUSH1 0x1 PUSH1 0x1 PUSH1 0xA0 SHL SUB SWAP1 SWAP3 AND SWAP2 SWAP1 SWAP2 OR SWAP1 SSTORE PUSH1 0x80 DUP3 ADD MLOAD PUSH1 0x4 DUP3 ADD SSTORE PUSH1 0xA0 SWAP1 SWAP2 ADD MLOAD PUSH1 0x5 SWAP1 SWAP2 ADD DUP1 SLOAD PUSH1 0xFF NOT AND SWAP2 ISZERO ISZERO SWAP2 SWAP1 SWAP2 OR SWAP1 SSTORE PUSH1 0x6 DUP1 SLOAD SWAP1 PUSH1 0x0 PUSH2 0x59D DUP4 PUSH2 0x257D JUMP JUMPDEST SWAP2 SWAP1 POP SSTORE POP CALLER PUSH1 0x1 PUSH1 0x1 PUSH1 0xA0 SHL SUB AND DUP2 PUSH32 0x507881D9472BA70F599C171F42B26CD4AB35A569FD366CBD11C9DC6EE20C1B9B DUP11 DUP11 DUP11 DUP11 DUP11 DUP11 TIMESTAMP PUSH1 0x40 MLOAD PUSH2 0x5E8 SWAP8 SWAP7 SWAP6 SWAP5 SWAP4 SWAP3 SWAP2 SWAP1 PUSH2 0x25BF JUMP JUMPDEST PUSH1 0x40 MLOAD DUP1 SWAP2 SUB SWAP1 LOG3 SWAP8 SWAP7 POP POP POP POP POP POP POP JUMP JUMPDEST PUSH1 0x0 DUP2 DUP2 MSTORE PUSH1 0x7 PUSH1 0x20 MSTORE PUSH1 0x40 DUP2 KECCAK256 PUSH1 0x5 DUP2 ADD SLOAD PUSH1 0x60 SWAP3 DUP4 SWAP3 DUP4 SWAP3 DUP3 SWAP2 SWAP1 PUSH1 0xFF AND PUSH2 0x640 JUMPI PUSH1 0x40 MLOAD PUSH3 0x461BCD PUSH1 0xE5 SHL DUP2 MSTORE PUSH1 0x4 ADD PUSH2 0x637 SWAP1 PUSH2 0x2610 JUMP JUMPDEST PUSH1 0x40 MLOAD DUP1 SWAP2 SUB SWAP1 REVERT JUMPDEST PUSH1 0x3 DUP2 ADD SLOAD PUSH1 0x4 DUP3 ADD SLOAD DUP3 SLOAD DUP4 SWAP3 PUSH1 0x1 DUP5 ADD SWAP3 PUSH1 0x2 DUP6 ADD SWAP3 PUSH1 0x1 PUSH1 0x1 PUSH1 0xA0 SHL SUB SWAP1 SWAP3 AND SWAP2 DUP6 SWAP1 PUSH2 0x66F SWAP1 PUSH2 0x2422 JUMP JUMPDEST DUP1 PUSH1 0x1F ADD PUSH1 0x20 DUP1 SWAP2 DIV MUL PUSH1 0x20 ADD PUSH1 0x40 MLOAD SWAP1 DUP2 ADD PUSH1 0x40 MSTORE DUP1 SWAP3 SWAP2 SWAP1 DUP2 DUP2 MSTORE PUSH1 0x20 ADD DUP3 DUP1 SLOAD PUSH2 0x69B SWAP1 PUSH2 0x2422 JUMP JUMPDEST DUP1 ISZERO PUSH2 0x6E8 JUMPI DUP1 PUSH1 0x1F LT PUSH2 0x6BD JUMPI PUSH2 0x100 DUP1 DUP4 SLOAD DIV MUL DUP4 MSTORE SWAP2 PUSH1 0x20 ADD SWAP2 PUSH2 0x6E8 JUMP JUMPDEST DUP3 ADD SWAP2 SWAP1 PUSH1 0x0 MSTORE PUSH1 0x20 PUSH1 0x0 KECCAK256 SWAP1 JUMPDEST DUP2 SLOAD DUP2 MSTORE SWAP1 PUSH1 0x1 ADD SWAP1 PUSH1 0x20 ADD DUP1 DUP4 GT PUSH2 0x6CB JUMPI DUP3 SWAP1 SUB PUSH1 0x1F AND DUP3 ADD SWAP2 JUMPDEST POP POP POP POP POP SWAP5 POP DUP4 DUP1 SLOAD PUSH2 0x6FB SWAP1 PUSH2 0x2422 JUMP JUMPDEST DUP1 PUSH1 0x1F ADD PUSH1 0x20 DUP1 SWAP2 DIV MUL PUSH1 0x20 ADD PUSH1 0x40 MLOAD SWAP1 DUP2 ADD PUSH1 0x40 MSTORE DUP1 SWAP3 SWAP2 SWAP1 DUP2 DUP2 MSTORE PUSH1 0x20 ADD DUP3 DUP1 SLOAD PUSH2 0x727 SWAP1 PUSH2 0x2422 JUMP JUMPDEST DUP1 ISZERO PUSH2 0x774 JUMPI DUP1 PUSH1 0x1F LT PUSH2 0x749 JUMPI PUSH2 0x100 DUP1 DUP4 SLOAD DIV MUL DUP4 MSTORE SWAP2 PUSH1 0x20 ADD SWAP2 PUSH2 0x774 JUMP JUMPDEST DUP3 ADD SWAP2 SWAP1 PUSH1 0x0 MSTORE PUSH1 0x20 PUSH1 0x0 KECCAK256 SWAP1 JUMPDEST DUP2 SLOAD DUP2 MSTORE SWAP1 PUSH1 0x1 ADD SWAP1 PUSH1 0x20 ADD DUP1 DUP4 GT PUSH2 0x757 JUMPI DUP3 SWAP1 SUB PUSH1 0x1F AND DUP3 ADD SWAP2 JUMPDEST POP POP POP POP POP SWAP4 POP DUP3 DUP1 SLOAD PUSH2 0x787 SWAP1 PUSH2 0x2422 JUMP JUMPDEST DUP1 PUSH1 0x1F ADD PUSH1 0x20 DUP1 SWAP2 DIV MUL PUSH1 0x20 ADD PUSH1 0x40 MLOAD SWAP1 DUP2 ADD PUSH1 0x40 MSTORE DUP1 SWAP3 SWAP2 SWAP1 DUP2 DUP2 MSTORE PUSH1 0x20 ADD DUP3 DUP1 SLOAD PUSH2 0x7B3 SWAP1 PUSH2 0x2422 JUMP JUMPDEST DUP1 ISZERO PUSH2 0x800 JUMPI DUP1 PUSH1 0x1F LT PUSH2 0x7D5 JUMPI PUSH2 0x100 DUP1 DUP4 SLOAD DIV MUL DUP4 MSTORE SWAP2 PUSH1 0x20 ADD SWAP2 PUSH2 0x800 JUMP JUMPDEST DUP3 ADD SWAP2 SWAP1 PUSH1 0x0 MSTORE PUSH1 0x20 PUSH1 0x0 KECCAK256 SWAP1 JUMPDEST DUP2 SLOAD DUP2 MSTORE SWAP1 PUSH1 0x1 ADD SWAP1 PUSH1 0x20 ADD DUP1 DUP4 GT PUSH2 0x7E3 JUMPI DUP3 SWAP1 SUB PUSH1 0x1F AND DUP3 ADD SWAP2 JUMPDEST POP POP POP POP POP SWAP3 POP SWAP6 POP SWAP6 POP SWAP6 POP SWAP6 POP SWAP6 POP POP SWAP2 SWAP4 SWAP6 SWAP1 SWAP3 SWAP5 POP JUMP JUMPDEST PUSH1 0x0 DUP4 DUP2 MSTORE PUSH1 0x4 PUSH1 0x20 DUP2 SWAP1 MSTORE PUSH1 0x40 SWAP1 SWAP2 KECCAK256 SWAP1 DUP2 ADD SLOAD PUSH2 0x100 SWAP1 DIV PUSH1 0xFF AND PUSH2 0x854 JUMPI PUSH1 0x40 MLOAD PUSH3 0x461BCD PUSH1 0xE5 SHL DUP2 MSTORE PUSH1 0x4 ADD PUSH2 0x637 SWAP1 PUSH2 0x263F JUMP JUMPDEST PUSH1 0x0 PUSH1 0x4 DUP3 ADD SLOAD PUSH1 0xFF AND PUSH1 0x2 DUP2 GT ISZERO PUSH2 0x86F JUMPI PUSH2 0x86F PUSH2 0x1EBC JUMP JUMPDEST EQ PUSH2 0x8BC JUMPI PUSH1 0x40 MLOAD PUSH3 0x461BCD PUSH1 0xE5 SHL DUP2 MSTORE PUSH1 0x20 PUSH1 0x4 DUP3 ADD MSTORE PUSH1 0x19 PUSH1 0x24 DUP3 ADD MSTORE PUSH32 0x50726F706F73616C20616C7265616479207265736F6C76656400000000000000 PUSH1 0x44 DUP3 ADD MSTORE PUSH1 0x64 ADD PUSH2 0x637 JUMP JUMPDEST DUP1 PUSH1 0x3 ADD SLOAD TIMESTAMP GT ISZERO PUSH2 0x906 JUMPI PUSH1 0x40 MLOAD PUSH3 0x461BCD PUSH1 0xE5 SHL DUP2 MSTORE PUSH1 0x20 PUSH1 0x4 DUP3 ADD MSTORE PUSH1 0x13 PUSH1 0x24 DUP3 ADD MSTORE PUSH19 0x159BDD1A5B99C81C195C9A5BD908195B991959 PUSH1 0x6A SHL PUSH1 0x44 DUP3 ADD MSTORE PUSH1 0x64 ADD PUSH2 0x637 JUMP JUMPDEST CALLER PUSH1 0x1 PUSH1 0x1 PUSH1 0xA0 SHL SUB DUP4 AND EQ DUP1 PUSH2 0x927 JUMPI POP PUSH1 0x0 SLOAD PUSH1 0x1 PUSH1 0x1 PUSH1 0xA0 SHL SUB AND CALLER EQ JUMPDEST PUSH2 0x981 JUMPI PUSH1 0x40 MLOAD PUSH3 0x461BCD PUSH1 0xE5 SHL DUP2 MSTORE PUSH1 0x20 PUSH1 0x4 DUP3 ADD MSTORE PUSH1 0x25 PUSH1 0x24 DUP3 ADD MSTORE PUSH32 0x556E617574686F72697A656420746F20766F746520666F722074686973206164 PUSH1 0x44 DUP3 ADD MSTORE PUSH5 0x6472657373 PUSH1 0xD8 SHL PUSH1 0x64 DUP3 ADD MSTORE PUSH1 0x84 ADD PUSH2 0x637 JUMP JUMPDEST DUP1 SLOAD PUSH1 0x1 PUSH1 0xA0 SHL SWAP1 DIV PUSH1 0xFF AND PUSH1 0x3 DUP2 GT ISZERO PUSH2 0x99E JUMPI PUSH2 0x99E PUSH2 0x1EBC JUMP JUMPDEST PUSH1 0x1 PUSH1 0x1 PUSH1 0xA0 SHL SUB DUP4 AND PUSH1 0x0 SWAP1 DUP2 MSTORE PUSH1 0x1 PUSH1 0x20 MSTORE PUSH1 0x40 SWAP1 KECCAK256 SLOAD PUSH1 0xFF AND PUSH1 0x3 DUP2 GT ISZERO PUSH2 0x9CB JUMPI PUSH2 0x9CB PUSH2 0x1EBC JUMP JUMPDEST EQ PUSH2 0xA18 JUMPI PUSH1 0x40 MLOAD PUSH3 0x461BCD PUSH1 0xE5 SHL DUP2 MSTORE PUSH1 0x20 PUSH1 0x4 DUP3 ADD MSTORE PUSH1 0x1B PUSH1 0x24 DUP3 ADD MSTORE PUSH32 0x4D75737420686F6C642073616D6520726F6C6520746F20766F74650000000000 PUSH1 0x44 DUP3 ADD MSTORE PUSH1 0x64 ADD PUSH2 0x637 JUMP JUMPDEST PUSH1 0x0 DUP5 DUP2 MSTORE PUSH1 0x5 PUSH1 0x20 SWAP1 DUP2 MSTORE PUSH1 0x40 DUP1 DUP4 KECCAK256 PUSH1 0x1 PUSH1 0x1 PUSH1 0xA0 SHL SUB DUP7 AND DUP5 MSTORE SWAP1 SWAP2 MSTORE SWAP1 KECCAK256 SLOAD PUSH1 0xFF AND ISZERO PUSH2 0xA7B JUMPI PUSH1 0x40 MLOAD PUSH3 0x461BCD PUSH1 0xE5 SHL DUP2 MSTORE PUSH1 0x20 PUSH1 0x4 DUP3 ADD MSTORE PUSH1 0xD PUSH1 0x24 DUP3 ADD MSTORE PUSH13 0x105B1C9958591E481D9BDD1959 PUSH1 0x9A SHL PUSH1 0x44 DUP3 ADD MSTORE PUSH1 0x64 ADD PUSH2 0x637 JUMP JUMPDEST PUSH1 0x0 DUP5 DUP2 MSTORE PUSH1 0x5 PUSH1 0x20 SWAP1 DUP2 MSTORE PUSH1 0x40 DUP1 DUP4 KECCAK256 PUSH1 0x1 PUSH1 0x1 PUSH1 0xA0 SHL SUB DUP7 AND DUP5 MSTORE SWAP1 SWAP2 MSTORE SWAP1 KECCAK256 DUP1 SLOAD PUSH1 0xFF NOT AND PUSH1 0x1 OR SWAP1 SSTORE DUP3 ISZERO PUSH2 0xACA JUMPI PUSH1 0x1 DUP2 ADD DUP1 SLOAD SWAP1 PUSH1 0x0 PUSH2 0xAC0 DUP4 PUSH2 0x257D JUMP JUMPDEST SWAP2 SWAP1 POP SSTORE POP PUSH2 0xAE2 JUMP JUMPDEST PUSH1 0x2 DUP2 ADD DUP1 SLOAD SWAP1 PUSH1 0x0 PUSH2 0xADC DUP4 PUSH2 0x257D JUMP JUMPDEST SWAP2 SWAP1 POP SSTORE POP JUMPDEST DUP2 PUSH1 0x1 PUSH1 0x1 PUSH1 0xA0 SHL SUB AND DUP5 PUSH32 0x54DF9F13D0FBA24181A5D64ACB9EF191B5EB43F5629B164D326282D618F3E344 DUP6 PUSH1 0x40 MLOAD PUSH2 0xB20 SWAP2 ISZERO ISZERO DUP2 MSTORE PUSH1 0x20 ADD SWAP1 JUMP JUMPDEST PUSH1 0x40 MLOAD DUP1 SWAP2 SUB SWAP1 LOG3 DUP1 SLOAD PUSH1 0x0 SWAP1 PUSH1 0x2 SWAP1 DUP3 SWAP1 PUSH1 0x1 PUSH1 0xA0 SHL SWAP1 DIV PUSH1 0xFF AND PUSH1 0x3 DUP2 GT ISZERO PUSH2 0xB4D JUMPI PUSH2 0xB4D PUSH2 0x1EBC JUMP JUMPDEST PUSH1 0xFF AND DUP2 MSTORE PUSH1 0x20 DUP2 ADD SWAP2 SWAP1 SWAP2 MSTORE PUSH1 0x40 ADD PUSH1 0x0 SWAP1 DUP2 KECCAK256 SLOAD SWAP2 POP PUSH2 0xB70 PUSH1 0x2 DUP4 PUSH2 0x2676 JUMP JUMPDEST PUSH2 0xB7B SWAP1 PUSH1 0x1 PUSH2 0x2698 JUMP JUMPDEST SWAP1 POP DUP1 DUP4 PUSH1 0x1 ADD SLOAD LT PUSH2 0xCC3 JUMPI PUSH1 0x4 DUP4 ADD DUP1 SLOAD PUSH1 0x1 SWAP2 SWAP1 PUSH1 0xFF NOT AND DUP3 DUP1 MUL OR SWAP1 SSTORE POP DUP3 SLOAD PUSH1 0x1 PUSH1 0x1 PUSH1 0xA0 SHL SUB DUP2 AND PUSH1 0x0 SWAP1 DUP2 MSTORE PUSH1 0x1 PUSH1 0x20 DUP2 SWAP1 MSTORE PUSH1 0x40 SWAP1 SWAP2 KECCAK256 DUP1 SLOAD PUSH1 0x1 PUSH1 0xA0 SHL SWAP1 SWAP4 DIV PUSH1 0xFF AND SWAP3 SWAP1 SWAP2 PUSH1 0xFF NOT SWAP1 SWAP2 AND SWAP1 DUP4 PUSH1 0x3 DUP2 GT ISZERO PUSH2 0xBE3 JUMPI PUSH2 0xBE3 PUSH2 0x1EBC JUMP JUMPDEST MUL OR SWAP1 SSTORE POP DUP3 SLOAD PUSH1 0x2 SWAP1 PUSH1 0x0 SWAP1 PUSH1 0x1 PUSH1 0xA0 SHL SWAP1 DIV PUSH1 0xFF AND PUSH1 0x3 DUP2 GT ISZERO PUSH2 0xC0B JUMPI PUSH2 0xC0B PUSH2 0x1EBC JUMP JUMPDEST PUSH1 0xFF AND DUP2 MSTORE PUSH1 0x20 DUP2 ADD SWAP2 SWAP1 SWAP2 MSTORE PUSH1 0x40 ADD PUSH1 0x0 SWAP1 DUP2 KECCAK256 DUP1 SLOAD SWAP2 PUSH2 0xC2C DUP4 PUSH2 0x257D JUMP JUMPDEST SWAP1 SWAP2 SSTORE POP POP DUP3 SLOAD PUSH1 0x40 MLOAD PUSH1 0x1 PUSH1 0x1 PUSH1 0xA0 SHL SUB DUP3 AND SWAP2 PUSH1 0x0 DUP1 MLOAD PUSH1 0x20 PUSH2 0x29E8 DUP4 CODECOPY DUP2 MLOAD SWAP2 MSTORE SWAP2 PUSH2 0xC65 SWAP2 PUSH1 0x1 PUSH1 0xA0 SHL SWAP1 DIV PUSH1 0xFF AND SWAP1 PUSH2 0x229B JUMP JUMPDEST PUSH1 0x40 MLOAD DUP1 SWAP2 SUB SWAP1 LOG2 DUP3 SLOAD PUSH1 0x40 MLOAD PUSH1 0x1 PUSH1 0x1 PUSH1 0xA0 SHL SUB DUP3 AND SWAP2 DUP9 SWAP2 PUSH32 0xFDB7E11145E15B9F4F6CBC27D43097BFE95FD3B1CD21B5FBCF033F50E350066C SWAP2 PUSH2 0xCB6 SWAP2 PUSH1 0x1 PUSH1 0xA0 SHL SWAP1 SWAP2 DIV PUSH1 0xFF AND SWAP1 PUSH2 0x229B JUMP JUMPDEST PUSH1 0x40 MLOAD DUP1 SWAP2 SUB SWAP1 LOG3 PUSH2 0xD31 JUMP JUMPDEST DUP1 DUP4 PUSH1 0x2 ADD SLOAD LT PUSH2 0xD31 JUMPI PUSH1 0x4 DUP4 ADD DUP1 SLOAD PUSH1 0x2 PUSH1 0xFF NOT SWAP1 SWAP2 AND OR SWAP1 SSTORE DUP3 SLOAD PUSH1 0x40 MLOAD PUSH1 0x1 PUSH1 0x1 PUSH1 0xA0 SHL SUB DUP3 AND SWAP2 DUP9 SWAP2 PUSH32 0x1CF71C85A43A7A1C0A432BD307C6117BF702D4A7AA72ED16C7C5AB22A59AD383 SWAP2 PUSH2 0xD28 SWAP2 PUSH1 0x1 PUSH1 0xA0 SHL SWAP1 SWAP2 DIV PUSH1 0xFF AND SWAP1 PUSH2 0x229B JUMP JUMPDEST PUSH1 0x40 MLOAD DUP1 SWAP2 SUB SWAP1 LOG3 JUMPDEST POP POP POP POP POP POP JUMP JUMPDEST PUSH1 0x0 DUP2 DUP2 MSTORE PUSH1 0x9 PUSH1 0x20 MSTORE PUSH1 0x40 SWAP1 KECCAK256 PUSH1 0x5 DUP2 ADD SLOAD PUSH2 0x100 SWAP1 DIV PUSH1 0xFF AND PUSH2 0xD70 JUMPI PUSH1 0x40 MLOAD PUSH3 0x461BCD PUSH1 0xE5 SHL DUP2 MSTORE PUSH1 0x4 ADD PUSH2 0x637 SWAP1 PUSH2 0x26AB JUMP JUMPDEST PUSH1 0x5 DUP2 ADD SLOAD PUSH1 0xFF AND ISZERO PUSH2 0xDB7 JUMPI PUSH1 0x40 MLOAD PUSH3 0x461BCD PUSH1 0xE5 SHL DUP2 MSTORE PUSH1 0x20 PUSH1 0x4 DUP3 ADD MSTORE PUSH1 0xF PUSH1 0x24 DUP3 ADD MSTORE PUSH15 0x105B1C9958591E481C995D9BDAD959 PUSH1 0x8A SHL PUSH1 0x44 DUP3 ADD MSTORE PUSH1 0x64 ADD PUSH2 0x637 JUMP JUMPDEST PUSH1 0x5 DUP2 ADD DUP1 SLOAD PUSH1 0xFF NOT AND PUSH1 0x1 SWAP1 DUP2 OR SWAP1 SWAP2 SSTORE DUP2 ADD SLOAD PUSH1 0x40 MLOAD PUSH1 0x1 PUSH1 0x1 PUSH1 0xA0 SHL SUB SWAP1 SWAP2 AND SWAP1 DUP4 SWAP1 PUSH32 0x46822D776370604E191182E5581386E4E1096AF80846CA3940E7A23F140BCED SWAP1 PUSH2 0xE0C SWAP1 DUP6 SWAP1 TIMESTAMP SWAP1 PUSH2 0x26E1 JUMP JUMPDEST PUSH1 0x40 MLOAD DUP1 SWAP2 SUB SWAP1 LOG3 POP POP JUMP JUMPDEST PUSH1 0x0 DUP2 DUP2 MSTORE PUSH1 0x9 PUSH1 0x20 MSTORE PUSH1 0x40 DUP2 KECCAK256 PUSH1 0x5 DUP2 ADD SLOAD PUSH2 0x100 SWAP1 DIV PUSH1 0xFF AND DUP1 ISZERO PUSH2 0xE44 JUMPI POP PUSH1 0x5 DUP2 ADD SLOAD PUSH1 0xFF AND ISZERO JUMPDEST DUP1 ISZERO PUSH2 0xE54 JUMPI POP DUP1 PUSH1 0x4 ADD SLOAD TIMESTAMP GT ISZERO JUMPDEST SWAP4 SWAP3 POP POP POP JUMP JUMPDEST PUSH1 0x0 DUP4 DUP2 MSTORE PUSH1 0x7 PUSH1 0x20 MSTORE PUSH1 0x40 DUP2 KECCAK256 PUSH1 0x5 ADD SLOAD PUSH1 0xFF AND PUSH2 0xE8C JUMPI PUSH1 0x40 MLOAD PUSH3 0x461BCD PUSH1 0xE5 SHL DUP2 MSTORE PUSH1 0x4 ADD PUSH2 0x637 SWAP1 PUSH2 0x2610 JUMP JUMPDEST DUP3 DUP3 PUSH1 0x40 MLOAD PUSH2 0xE9C SWAP3 SWAP2 SWAP1 PUSH2 0x2775 JUMP JUMPDEST PUSH1 0x40 DUP1 MLOAD SWAP2 DUP3 SWAP1 SUB DUP3 KECCAK256 PUSH1 0x0 DUP8 DUP2 MSTORE PUSH1 0x7 PUSH1 0x20 MSTORE SWAP2 SWAP1 SWAP2 KECCAK256 SWAP1 SWAP2 PUSH2 0xEC3 SWAP2 PUSH1 0x1 ADD SWAP1 PUSH2 0x2785 JUMP JUMPDEST PUSH1 0x40 MLOAD DUP1 SWAP2 SUB SWAP1 KECCAK256 EQ SWAP1 POP SWAP4 SWAP3 POP POP POP JUMP JUMPDEST PUSH1 0x7 PUSH1 0x20 MSTORE PUSH1 0x0 SWAP1 DUP2 MSTORE PUSH1 0x40 SWAP1 KECCAK256 DUP1 SLOAD DUP2 SWAP1 PUSH2 0xEF0 SWAP1 PUSH2 0x2422 JUMP JUMPDEST DUP1 PUSH1 0x1F ADD PUSH1 0x20 DUP1 SWAP2 DIV MUL PUSH1 0x20 ADD PUSH1 0x40 MLOAD SWAP1 DUP2 ADD PUSH1 0x40 MSTORE DUP1 SWAP3 SWAP2 SWAP1 DUP2 DUP2 MSTORE PUSH1 0x20 ADD DUP3 DUP1 SLOAD PUSH2 0xF1C SWAP1 PUSH2 0x2422 JUMP JUMPDEST DUP1 ISZERO PUSH2 0xF69 JUMPI DUP1 PUSH1 0x1F LT PUSH2 0xF3E JUMPI PUSH2 0x100 DUP1 DUP4 SLOAD DIV MUL DUP4 MSTORE SWAP2 PUSH1 0x20 ADD SWAP2 PUSH2 0xF69 JUMP JUMPDEST DUP3 ADD SWAP2 SWAP1 PUSH1 0x0 MSTORE PUSH1 0x20 PUSH1 0x0 KECCAK256 SWAP1 JUMPDEST DUP2 SLOAD DUP2 MSTORE SWAP1 PUSH1 0x1 ADD SWAP1 PUSH1 0x20 ADD DUP1 DUP4 GT PUSH2 0xF4C JUMPI DUP3 SWAP1 SUB PUSH1 0x1F AND DUP3 ADD SWAP2 JUMPDEST POP POP POP POP POP SWAP1 DUP1 PUSH1 0x1 ADD DUP1 SLOAD PUSH2 0xF7E SWAP1 PUSH2 0x2422 JUMP JUMPDEST DUP1 PUSH1 0x1F ADD PUSH1 0x20 DUP1 SWAP2 DIV MUL PUSH1 0x20 ADD PUSH1 0x40 MLOAD SWAP1 DUP2 ADD PUSH1 0x40 MSTORE DUP1 SWAP3 SWAP2 SWAP1 DUP2 DUP2 MSTORE PUSH1 0x20 ADD DUP3 DUP1 SLOAD PUSH2 0xFAA SWAP1 PUSH2 0x2422 JUMP JUMPDEST DUP1 ISZERO PUSH2 0xFF7 JUMPI DUP1 PUSH1 0x1F LT PUSH2 0xFCC JUMPI PUSH2 0x100 DUP1 DUP4 SLOAD DIV MUL DUP4 MSTORE SWAP2 PUSH1 0x20 ADD SWAP2 PUSH2 0xFF7 JUMP JUMPDEST DUP3 ADD SWAP2 SWAP1 PUSH1 0x0 MSTORE PUSH1 0x20 PUSH1 0x0 KECCAK256 SWAP1 JUMPDEST DUP2 SLOAD DUP2 MSTORE SWAP1 PUSH1 0x1 ADD SWAP1 PUSH1 0x20 ADD DUP1 DUP4 GT PUSH2 0xFDA JUMPI DUP3 SWAP1 SUB PUSH1 0x1F AND DUP3 ADD SWAP2 JUMPDEST POP POP POP POP POP SWAP1 DUP1 PUSH1 0x2 ADD DUP1 SLOAD PUSH2 0x100C SWAP1 PUSH2 0x2422 JUMP JUMPDEST DUP1 PUSH1 0x1F ADD PUSH1 0x20 DUP1 SWAP2 DIV MUL PUSH1 0x20 ADD PUSH1 0x40 MLOAD SWAP1 DUP2 ADD PUSH1 0x40 MSTORE DUP1 SWAP3 SWAP2 SWAP1 DUP2 DUP2 MSTORE PUSH1 0x20 ADD DUP3 DUP1 SLOAD PUSH2 0x1038 SWAP1 PUSH2 0x2422 JUMP JUMPDEST DUP1 ISZERO PUSH2 0x1085 JUMPI DUP1 PUSH1 0x1F LT PUSH2 0x105A JUMPI PUSH2 0x100 DUP1 DUP4 SLOAD DIV MUL DUP4 MSTORE SWAP2 PUSH1 0x20 ADD SWAP2 PUSH2 0x1085 JUMP JUMPDEST DUP3 ADD SWAP2 SWAP1 PUSH1 0x0 MSTORE PUSH1 0x20 PUSH1 0x0 KECCAK256 SWAP1 JUMPDEST DUP2 SLOAD DUP2 MSTORE SWAP1 PUSH1 0x1 ADD SWAP1 PUSH1 0x20 ADD DUP1 DUP4 GT PUSH2 0x1068 JUMPI DUP3 SWAP1 SUB PUSH1 0x1F AND DUP3 ADD SWAP2 JUMPDEST POP POP POP POP PUSH1 0x3 DUP4 ADD SLOAD PUSH1 0x4 DUP5 ADD SLOAD PUSH1 0x5 SWAP1 SWAP5 ADD SLOAD SWAP3 SWAP4 PUSH1 0x1 PUSH1 0x1 PUSH1 0xA0 SHL SUB SWAP1 SWAP2 AND SWAP3 SWAP1 SWAP2 POP PUSH1 0xFF AND DUP7 JUMP JUMPDEST PUSH1 0x0 DUP2 DUP2 MSTORE PUSH1 0x9 PUSH1 0x20 MSTORE PUSH1 0x40 DUP2 KECCAK256 PUSH1 0x5 DUP2 ADD SLOAD PUSH1 0x60 SWAP3 SWAP2 DUP3 SWAP2 DUP3 SWAP2 DUP3 SWAP2 DUP3 SWAP2 SWAP1 PUSH2 0x100 SWAP1 DIV PUSH1 0xFF AND PUSH2 0x10F4 JUMPI PUSH1 0x40 MLOAD PUSH3 0x461BCD PUSH1 0xE5 SHL DUP2 MSTORE PUSH1 0x4 ADD PUSH2 0x637 SWAP1 PUSH2 0x26AB JUMP JUMPDEST PUSH1 0x1 DUP2 ADD SLOAD PUSH1 0x2 DUP3 ADD SLOAD PUSH1 0x3 DUP4 ADD SLOAD PUSH1 0x4 DUP5 ADD SLOAD PUSH1 0x5 DUP6 ADD SLOAD DUP6 SLOAD DUP7 SWAP6 PUSH1 0x1 PUSH1 0x1 PUSH1 0xA0 SHL SUB AND SWAP5 SWAP4 SWAP3 SWAP2 PUSH1 0xFF AND SWAP1 DUP7 SWAP1 PUSH2 0x112D SWAP1 PUSH2 0x2422 JUMP JUMPDEST DUP1 PUSH1 0x1F ADD PUSH1 0x20 DUP1 SWAP2 DIV MUL PUSH1 0x20 ADD PUSH1 0x40 MLOAD SWAP1 DUP2 ADD PUSH1 0x40 MSTORE DUP1 SWAP3 SWAP2 SWAP1 DUP2 DUP2 MSTORE PUSH1 0x20 ADD DUP3 DUP1 SLOAD PUSH2 0x1159 SWAP1 PUSH2 0x2422 JUMP JUMPDEST DUP1 ISZERO PUSH2 0x11A6 JUMPI DUP1 PUSH1 0x1F LT PUSH2 0x117B JUMPI PUSH2 0x100 DUP1 DUP4 SLOAD DIV MUL DUP4 MSTORE SWAP2 PUSH1 0x20 ADD SWAP2 PUSH2 0x11A6 JUMP JUMPDEST DUP3 ADD SWAP2 SWAP1 PUSH1 0x0 MSTORE PUSH1 0x20 PUSH1 0x0 KECCAK256 SWAP1 JUMPDEST DUP2 SLOAD DUP2 MSTORE SWAP1 PUSH1 0x1 ADD SWAP1 PUSH1 0x20 ADD DUP1 DUP4 GT PUSH2 0x1189 JUMPI DUP3 SWAP1 SUB PUSH1 0x1F AND DUP3 ADD SWAP2 JUMPDEST POP POP POP POP POP SWAP6 POP SWAP7 POP SWAP7 POP SWAP7 POP SWAP7 POP SWAP7 POP SWAP7 POP POP SWAP2 SWAP4 SWAP6 POP SWAP2 SWAP4 SWAP6 JUMP JUMPDEST PUSH1 0x0 SLOAD PUSH1 0x1 PUSH1 0x1 PUSH1 0xA0 SHL SUB AND CALLER EQ PUSH2 0x120A JUMPI PUSH1 0x40 MLOAD PUSH3 0x461BCD PUSH1 0xE5 SHL DUP2 MSTORE PUSH1 0x20 PUSH1 0x4 DUP3 ADD MSTORE PUSH1 0xA PUSH1 0x24 DUP3 ADD MSTORE PUSH10 0x27B7363C9037BBB732B9 PUSH1 0xB1 SHL PUSH1 0x44 DUP3 ADD MSTORE PUSH1 0x64 ADD PUSH2 0x637 JUMP JUMPDEST PUSH1 0x0 DUP2 PUSH1 0x3 DUP2 GT ISZERO PUSH2 0x121E JUMPI PUSH2 0x121E PUSH2 0x1EBC JUMP JUMPDEST SUB PUSH2 0x126B JUMPI PUSH1 0x40 MLOAD PUSH3 0x461BCD PUSH1 0xE5 SHL DUP2 MSTORE PUSH1 0x20 PUSH1 0x4 DUP3 ADD MSTORE PUSH1 0x17 PUSH1 0x24 DUP3 ADD MSTORE PUSH32 0x43616E6E6F742061737369676E204E6F6E6520726F6C65000000000000000000 PUSH1 0x44 DUP3 ADD MSTORE PUSH1 0x64 ADD PUSH2 0x637 JUMP JUMPDEST PUSH1 0x1 PUSH1 0x1 PUSH1 0xA0 SHL SUB DUP3 AND PUSH1 0x0 SWAP1 DUP2 MSTORE PUSH1 0x1 PUSH1 0x20 MSTORE PUSH1 0x40 DUP2 KECCAK256 SLOAD PUSH1 0xFF AND PUSH1 0x3 DUP2 GT ISZERO PUSH2 0x1298 JUMPI PUSH2 0x1298 PUSH2 0x1EBC JUMP JUMPDEST SUB PUSH2 0x12DA JUMPI PUSH1 0x2 PUSH1 0x0 DUP3 PUSH1 0x3 DUP2 GT ISZERO PUSH2 0x12B3 JUMPI PUSH2 0x12B3 PUSH2 0x1EBC JUMP JUMPDEST PUSH1 0xFF AND DUP2 MSTORE PUSH1 0x20 DUP2 ADD SWAP2 SWAP1 SWAP2 MSTORE PUSH1 0x40 ADD PUSH1 0x0 SWAP1 DUP2 KECCAK256 DUP1 SLOAD SWAP2 PUSH2 0x12D4 DUP4 PUSH2 0x257D JUMP JUMPDEST SWAP2 SWAP1 POP SSTORE POP JUMPDEST PUSH1 0x1 PUSH1 0x1 PUSH1 0xA0 SHL SUB DUP3 AND PUSH1 0x0 SWAP1 DUP2 MSTORE PUSH1 0x1 PUSH1 0x20 DUP2 SWAP1 MSTORE PUSH1 0x40 SWAP1 SWAP2 KECCAK256 DUP1 SLOAD DUP4 SWAP3 PUSH1 0xFF NOT SWAP1 SWAP2 AND SWAP1 DUP4 PUSH1 0x3 DUP2 GT ISZERO PUSH2 0x1312 JUMPI PUSH2 0x1312 PUSH2 0x1EBC JUMP JUMPDEST MUL OR SWAP1 SSTORE POP DUP2 PUSH1 0x1 PUSH1 0x1 PUSH1 0xA0 SHL SUB AND PUSH1 0x0 DUP1 MLOAD PUSH1 0x20 PUSH2 0x29E8 DUP4 CODECOPY DUP2 MLOAD SWAP2 MSTORE DUP3 PUSH1 0x40 MLOAD PUSH2 0x133E SWAP2 SWAP1 PUSH2 0x229B JUMP JUMPDEST PUSH1 0x40 MLOAD DUP1 SWAP2 SUB SWAP1 LOG2 POP POP JUMP JUMPDEST PUSH1 0x0 DUP2 DUP2 MSTORE PUSH1 0x4 PUSH1 0x20 DUP2 SWAP1 MSTORE PUSH1 0x40 SWAP1 SWAP2 KECCAK256 SWAP1 DUP2 ADD SLOAD PUSH2 0x100 SWAP1 DIV PUSH1 0xFF AND PUSH2 0x1383 JUMPI PUSH1 0x40 MLOAD PUSH3 0x461BCD PUSH1 0xE5 SHL DUP2 MSTORE PUSH1 0x4 ADD PUSH2 0x637 SWAP1 PUSH2 0x263F JUMP JUMPDEST PUSH1 0x0 PUSH1 0x4 DUP3 ADD SLOAD PUSH1 0xFF AND PUSH1 0x2 DUP2 GT ISZERO PUSH2 0x139E JUMPI PUSH2 0x139E PUSH2 0x1EBC JUMP JUMPDEST EQ PUSH2 0x13DE JUMPI PUSH1 0x40 MLOAD PUSH3 0x461BCD PUSH1 0xE5 SHL DUP2 MSTORE PUSH1 0x20 PUSH1 0x4 DUP3 ADD MSTORE PUSH1 0x10 PUSH1 0x24 DUP3 ADD MSTORE PUSH16 0x105B1C9958591E481C995CDBDB1D9959 PUSH1 0x82 SHL PUSH1 0x44 DUP3 ADD MSTORE PUSH1 0x64 ADD PUSH2 0x637 JUMP JUMPDEST DUP1 PUSH1 0x3 ADD SLOAD TIMESTAMP GT PUSH2 0x1425 JUMPI PUSH1 0x40 MLOAD PUSH3 0x461BCD PUSH1 0xE5 SHL DUP2 MSTORE PUSH1 0x20 PUSH1 0x4 DUP3 ADD MSTORE PUSH1 0x11 PUSH1 0x24 DUP3 ADD MSTORE PUSH17 0x2B37BA34B7339039BA34B6361037B832B7 PUSH1 0x79 SHL PUSH1 0x44 DUP3 ADD MSTORE PUSH1 0x64 ADD PUSH2 0x637 JUMP JUMPDEST DUP1 PUSH1 0x2 ADD SLOAD DUP2 PUSH1 0x1 ADD SLOAD GT ISZERO PUSH2 0x1563 JUMPI PUSH1 0x4 DUP2 ADD DUP1 SLOAD PUSH1 0x1 SWAP2 SWAP1 PUSH1 0xFF NOT AND DUP3 DUP1 MUL OR SWAP1 SSTORE POP DUP1 SLOAD PUSH1 0x1 PUSH1 0x1 PUSH1 0xA0 SHL SUB DUP2 AND PUSH1 0x0 SWAP1 DUP2 MSTORE PUSH1 0x1 PUSH1 0x20 DUP2 SWAP1 MSTORE PUSH1 0x40 SWAP1 SWAP2 KECCAK256 DUP1 SLOAD PUSH1 0x1 PUSH1 0xA0 SHL SWAP1 SWAP4 DIV PUSH1 0xFF AND SWAP3 SWAP1 SWAP2 PUSH1 0xFF NOT SWAP1 SWAP2 AND SWAP1 DUP4 PUSH1 0x3 DUP2 GT ISZERO PUSH2 0x1490 JUMPI PUSH2 0x1490 PUSH2 0x1EBC JUMP JUMPDEST MUL OR SWAP1 SSTORE POP DUP1 SLOAD PUSH1 0x2 SWAP1 PUSH1 0x0 SWAP1 PUSH1 0x1 PUSH1 0xA0 SHL SWAP1 DIV PUSH1 0xFF AND PUSH1 0x3 DUP2 GT ISZERO PUSH2 0x14B8 JUMPI PUSH2 0x14B8 PUSH2 0x1EBC JUMP JUMPDEST PUSH1 0xFF AND DUP2 MSTORE PUSH1 0x20 DUP2 ADD SWAP2 SWAP1 SWAP2 MSTORE PUSH1 0x40 ADD PUSH1 0x0 SWAP1 DUP2 KECCAK256 DUP1 SLOAD SWAP2 PUSH2 0x14D9 DUP4 PUSH2 0x257D JUMP JUMPDEST SWAP1 SWAP2 SSTORE POP POP DUP1 SLOAD PUSH1 0x40 MLOAD PUSH1 0x1 PUSH1 0x1 PUSH1 0xA0 SHL SUB DUP3 AND SWAP2 PUSH1 0x0 DUP1 MLOAD PUSH1 0x20 PUSH2 0x29E8 DUP4 CODECOPY DUP2 MLOAD SWAP2 MSTORE SWAP2 PUSH2 0x1512 SWAP2 PUSH1 0x1 PUSH1 0xA0 SHL SWAP1 DIV PUSH1 0xFF AND SWAP1 PUSH2 0x229B JUMP JUMPDEST PUSH1 0x40 MLOAD DUP1 SWAP2 SUB SWAP1 LOG2 DUP1 SLOAD PUSH1 0x40 MLOAD PUSH1 0x1 PUSH1 0x1 PUSH1 0xA0 SHL SUB DUP3 AND SWAP2 DUP5 SWAP2 PUSH32 0xFDB7E11145E15B9F4F6CBC27D43097BFE95FD3B1CD21B5FBCF033F50E350066C SWAP2 PUSH2 0xE0C SWAP2 PUSH1 0x1 PUSH1 0xA0 SHL SWAP1 SWAP2 DIV PUSH1 0xFF AND SWAP1 PUSH2 0x229B JUMP JUMPDEST PUSH1 0x4 DUP2 ADD DUP1 SLOAD PUSH1 0x2 PUSH1 0xFF NOT SWAP1 SWAP2 AND OR SWAP1 SSTORE DUP1 SLOAD PUSH1 0x40 MLOAD PUSH1 0x1 PUSH1 0x1 PUSH1 0xA0 SHL SUB DUP3 AND SWAP2 DUP5 SWAP2 PUSH32 0x1CF71C85A43A7A1C0A432BD307C6117BF702D4A7AA72ED16C7C5AB22A59AD383 SWAP2 PUSH2 0xE0C SWAP2 PUSH1 0x1 PUSH1 0xA0 SHL SWAP1 SWAP2 DIV PUSH1 0xFF AND SWAP1 PUSH2 0x229B JUMP JUMPDEST PUSH1 0x0 DUP3 DUP2 MSTORE PUSH1 0x7 PUSH1 0x20 MSTORE PUSH1 0x40 DUP2 KECCAK256 PUSH1 0x5 ADD SLOAD PUSH1 0xFF AND PUSH2 0x15EE JUMPI PUSH1 0x40 MLOAD PUSH3 0x461BCD PUSH1 0xE5 SHL DUP2 MSTORE PUSH1 0x4 ADD PUSH2 0x637 SWAP1 PUSH2 0x2610 JUMP JUMPDEST PUSH1 0x0 DUP3 GT PUSH2 0x1635 JUMPI PUSH1 0x40 MLOAD PUSH3 0x461BCD PUSH1 0xE5 SHL DUP2 MSTORE PUSH1 0x20 PUSH1 0x4 DUP3 ADD MSTORE PUSH1 0x14 PUSH1 0x24 DUP3 ADD MSTORE PUSH20 0x4475726174696F6E206D757374206265203E203 PUSH1 0x64 SHL PUSH1 0x44 DUP3 ADD MSTORE PUSH1 0x64 ADD PUSH2 0x637 JUMP JUMPDEST PUSH1 0x8 SLOAD PUSH1 0x0 PUSH2 0x1647 DUP5 PUSH3 0x15180 PUSH2 0x27FB JUMP JUMPDEST PUSH2 0x1651 SWAP1 TIMESTAMP PUSH2 0x2698 JUMP JUMPDEST PUSH1 0x40 DUP1 MLOAD PUSH2 0x100 PUSH1 0x20 PUSH1 0x1F DUP13 ADD DUP2 SWAP1 DIV MUL DUP3 ADD DUP2 ADD SWAP1 SWAP3 MSTORE PUSH1 0xE0 DUP2 ADD DUP11 DUP2 MSTORE SWAP3 SWAP4 POP SWAP2 DUP3 SWAP2 DUP12 SWAP1 DUP12 SWAP1 DUP2 SWAP1 DUP6 ADD DUP4 DUP3 DUP1 DUP3 DUP5 CALLDATACOPY PUSH1 0x0 SWAP3 ADD DUP3 SWAP1 MSTORE POP SWAP4 DUP6 MSTORE POP POP POP PUSH1 0x1 PUSH1 0x1 PUSH1 0xA0 SHL SUB DUP10 AND PUSH1 0x20 DUP1 DUP5 ADD SWAP2 SWAP1 SWAP2 MSTORE PUSH1 0x40 DUP1 DUP5 ADD DUP11 SWAP1 MSTORE TIMESTAMP PUSH1 0x60 DUP6 ADD MSTORE PUSH1 0x80 DUP5 ADD DUP7 SWAP1 MSTORE PUSH1 0xA0 DUP5 ADD DUP4 SWAP1 MSTORE PUSH1 0x1 PUSH1 0xC0 SWAP1 SWAP5 ADD SWAP4 SWAP1 SWAP4 MSTORE DUP6 DUP3 MSTORE PUSH1 0x9 SWAP1 MSTORE KECCAK256 DUP2 MLOAD DUP2 SWAP1 PUSH2 0x16E2 SWAP1 DUP3 PUSH2 0x24A7 JUMP JUMPDEST POP PUSH1 0x20 DUP3 ADD MLOAD PUSH1 0x1 DUP3 ADD DUP1 SLOAD PUSH1 0x1 PUSH1 0x1 PUSH1 0xA0 SHL SUB SWAP1 SWAP3 AND PUSH1 0x1 PUSH1 0x1 PUSH1 0xA0 SHL SUB NOT SWAP1 SWAP3 AND SWAP2 SWAP1 SWAP2 OR SWAP1 SSTORE PUSH1 0x40 DUP3 ADD MLOAD PUSH1 0x2 DUP3 ADD SSTORE PUSH1 0x60 DUP3 ADD MLOAD PUSH1 0x3 DUP3 ADD SSTORE PUSH1 0x80 DUP3 ADD MLOAD PUSH1 0x4 DUP3 ADD SSTORE PUSH1 0xA0 DUP3 ADD MLOAD PUSH1 0x5 SWAP1 SWAP2 ADD DUP1 SLOAD PUSH1 0xC0 SWAP1 SWAP4 ADD MLOAD ISZERO ISZERO PUSH2 0x100 MUL PUSH2 0xFF00 NOT SWAP3 ISZERO ISZERO SWAP3 SWAP1 SWAP3 AND PUSH2 0xFFFF NOT SWAP1 SWAP4 AND SWAP3 SWAP1 SWAP3 OR OR SWAP1 SSTORE PUSH1 0x8 DUP1 SLOAD SWAP1 PUSH1 0x0 PUSH2 0x176A DUP4 PUSH2 0x257D JUMP JUMPDEST SWAP2 SWAP1 POP SSTORE POP DUP6 PUSH1 0x1 PUSH1 0x1 PUSH1 0xA0 SHL SUB AND DUP3 PUSH32 0xC78594EF217F41CF185E25D2754D568D45B23A830B1DCCEFD45AE0AA05D70C2 DUP11 DUP11 DUP10 TIMESTAMP DUP8 PUSH1 0x40 MLOAD PUSH2 0x17B1 SWAP6 SWAP5 SWAP4 SWAP3 SWAP2 SWAP1 PUSH2 0x2812 JUMP JUMPDEST PUSH1 0x40 MLOAD DUP1 SWAP2 SUB SWAP1 LOG3 POP SWAP1 POP JUMPDEST SWAP6 SWAP5 POP POP POP POP POP JUMP JUMPDEST PUSH1 0x0 PUSH1 0x2 DUP4 PUSH1 0x3 DUP2 GT ISZERO PUSH2 0x17DC JUMPI PUSH2 0x17DC PUSH2 0x1EBC JUMP JUMPDEST EQ DUP1 PUSH2 0x17F9 JUMPI POP PUSH1 0x3 DUP4 PUSH1 0x3 DUP2 GT ISZERO PUSH2 0x17F7 JUMPI PUSH2 0x17F7 PUSH2 0x1EBC JUMP JUMPDEST EQ JUMPDEST PUSH2 0x1845 JUMPI PUSH1 0x40 MLOAD PUSH3 0x461BCD PUSH1 0xE5 SHL DUP2 MSTORE PUSH1 0x20 PUSH1 0x4 DUP3 ADD MSTORE PUSH1 0x1C PUSH1 0x24 DUP3 ADD MSTORE PUSH32 0x4F6E6C79204C6162206F72205265736561726368657220726F6C657300000000 PUSH1 0x44 DUP3 ADD MSTORE PUSH1 0x64 ADD PUSH2 0x637 JUMP JUMPDEST PUSH1 0x1 PUSH1 0x1 PUSH1 0xA0 SHL SUB DUP5 AND PUSH1 0x0 SWAP1 DUP2 MSTORE PUSH1 0x1 PUSH1 0x20 MSTORE PUSH1 0x40 DUP2 KECCAK256 SLOAD PUSH1 0xFF AND PUSH1 0x3 DUP2 GT ISZERO PUSH2 0x1872 JUMPI PUSH2 0x1872 PUSH2 0x1EBC JUMP JUMPDEST EQ PUSH2 0x18B4 JUMPI PUSH1 0x40 MLOAD PUSH3 0x461BCD PUSH1 0xE5 SHL DUP2 MSTORE PUSH1 0x20 PUSH1 0x4 DUP3 ADD MSTORE PUSH1 0x12 PUSH1 0x24 DUP3 ADD MSTORE PUSH18 0x416C726561647920686173206120726F6C65 PUSH1 0x70 SHL PUSH1 0x44 DUP3 ADD MSTORE PUSH1 0x64 ADD PUSH2 0x637 JUMP JUMPDEST PUSH1 0x0 DUP3 GT PUSH2 0x1904 JUMPI PUSH1 0x40 MLOAD PUSH3 0x461BCD PUSH1 0xE5 SHL DUP2 MSTORE PUSH1 0x20 PUSH1 0x4 DUP3 ADD MSTORE PUSH1 0x1B PUSH1 0x24 DUP3 ADD MSTORE PUSH32 0x566F74696E67206475726174696F6E206D757374206265203E20300000000000 PUSH1 0x44 DUP3 ADD MSTORE PUSH1 0x64 ADD PUSH2 0x637 JUMP JUMPDEST PUSH1 0x3 SLOAD PUSH1 0x0 PUSH2 0x1916 DUP5 PUSH3 0x15180 PUSH2 0x27FB JUMP JUMPDEST PUSH2 0x1920 SWAP1 TIMESTAMP PUSH2 0x2698 JUMP JUMPDEST SWAP1 POP PUSH1 0x40 MLOAD DUP1 PUSH1 0xE0 ADD PUSH1 0x40 MSTORE DUP1 DUP8 PUSH1 0x1 PUSH1 0x1 PUSH1 0xA0 SHL SUB AND DUP2 MSTORE PUSH1 0x20 ADD DUP7 PUSH1 0x3 DUP2 GT ISZERO PUSH2 0x194E JUMPI PUSH2 0x194E PUSH2 0x1EBC JUMP JUMPDEST DUP2 MSTORE PUSH1 0x20 ADD PUSH1 0x0 DUP2 MSTORE PUSH1 0x20 ADD PUSH1 0x0 DUP2 MSTORE PUSH1 0x20 ADD DUP3 DUP2 MSTORE PUSH1 0x20 ADD PUSH1 0x0 PUSH1 0x2 DUP2 GT ISZERO PUSH2 0x197A JUMPI PUSH2 0x197A PUSH2 0x1EBC JUMP JUMPDEST DUP2 MSTORE PUSH1 0x1 PUSH1 0x20 SWAP2 DUP3 ADD MSTORE PUSH1 0x0 DUP5 DUP2 MSTORE PUSH1 0x4 DUP3 MSTORE PUSH1 0x40 SWAP1 KECCAK256 DUP3 MLOAD DUP2 SLOAD PUSH1 0x1 PUSH1 0x1 PUSH1 0xA0 SHL SUB SWAP1 SWAP2 AND PUSH1 0x1 PUSH1 0x1 PUSH1 0xA0 SHL SUB NOT DUP3 AND DUP2 OR DUP4 SSTORE SWAP3 DUP5 ADD MLOAD SWAP2 SWAP3 DUP4 SWAP2 PUSH1 0x1 PUSH1 0x1 PUSH1 0xA8 SHL SUB NOT AND OR PUSH1 0x1 PUSH1 0xA0 SHL DUP4 PUSH1 0x3 DUP2 GT ISZERO PUSH2 0x19D9 JUMPI PUSH2 0x19D9 PUSH2 0x1EBC JUMP JUMPDEST MUL OR SWAP1 SSTORE POP PUSH1 0x40 DUP3 ADD MLOAD DUP2 PUSH1 0x1 ADD SSTORE PUSH1 0x60 DUP3 ADD MLOAD DUP2 PUSH1 0x2 ADD SSTORE PUSH1 0x80 DUP3 ADD MLOAD DUP2 PUSH1 0x3 ADD SSTORE PUSH1 0xA0 DUP3 ADD MLOAD DUP2 PUSH1 0x4 ADD PUSH1 0x0 PUSH2 0x100 EXP DUP2 SLOAD DUP2 PUSH1 0xFF MUL NOT AND SWAP1 DUP4 PUSH1 0x2 DUP2 GT ISZERO PUSH2 0x1A26 JUMPI PUSH2 0x1A26 PUSH2 0x1EBC JUMP JUMPDEST MUL OR SWAP1 SSTORE POP PUSH1 0xC0 SWAP2 SWAP1 SWAP2 ADD MLOAD PUSH1 0x4 SWAP1 SWAP2 ADD DUP1 SLOAD SWAP2 ISZERO ISZERO PUSH2 0x100 MUL PUSH2 0xFF00 NOT SWAP1 SWAP3 AND SWAP2 SWAP1 SWAP2 OR SWAP1 SSTORE PUSH1 0x3 DUP1 SLOAD SWAP1 PUSH1 0x0 PUSH2 0x1A5D DUP4 PUSH2 0x257D JUMP JUMPDEST SWAP2 SWAP1 POP SSTORE POP DUP6 PUSH1 0x1 PUSH1 0x1 PUSH1 0xA0 SHL SUB AND DUP3 PUSH32 0xC3761C607CDAAC1AA357F04C10D0DF99CF35AAFC634DA0B25C91B74B646A981B DUP8 DUP5 PUSH1 0x40 MLOAD PUSH2 0x1A9E SWAP3 SWAP2 SWAP1 PUSH2 0x2843 JUMP JUMPDEST PUSH1 0x40 MLOAD DUP1 SWAP2 SUB SWAP1 LOG3 PUSH1 0x2 PUSH1 0x0 DUP7 PUSH1 0x3 DUP2 GT ISZERO PUSH2 0x1ABC JUMPI PUSH2 0x1ABC PUSH2 0x1EBC JUMP JUMPDEST PUSH1 0xFF AND PUSH1 0xFF AND DUP2 MSTORE PUSH1 0x20 ADD SWAP1 DUP2 MSTORE PUSH1 0x20 ADD PUSH1 0x0 KECCAK256 SLOAD PUSH1 0x0 SUB PUSH2 0x1BDD JUMPI PUSH1 0x0 DUP3 DUP2 MSTORE PUSH1 0x4 PUSH1 0x20 DUP2 DUP2 MSTORE PUSH1 0x40 DUP1 DUP5 KECCAK256 SWAP1 SWAP3 ADD DUP1 SLOAD PUSH1 0x1 PUSH1 0xFF NOT SWAP2 DUP3 AND DUP2 OR SWAP1 SWAP3 SSTORE PUSH1 0x1 PUSH1 0x1 PUSH1 0xA0 SHL SUB DUP12 AND DUP6 MSTORE SWAP2 DUP2 SWAP1 MSTORE SWAP2 SWAP1 SWAP3 KECCAK256 DUP1 SLOAD DUP9 SWAP4 SWAP2 SWAP3 SWAP2 AND SWAP1 DUP4 PUSH1 0x3 DUP2 GT ISZERO PUSH2 0x1B2A JUMPI PUSH2 0x1B2A PUSH2 0x1EBC JUMP JUMPDEST MUL OR SWAP1 SSTORE POP PUSH1 0x2 PUSH1 0x0 DUP7 PUSH1 0x3 DUP2 GT ISZERO PUSH2 0x1B45 JUMPI PUSH2 0x1B45 PUSH2 0x1EBC JUMP JUMPDEST PUSH1 0xFF AND DUP2 MSTORE PUSH1 0x20 DUP2 ADD SWAP2 SWAP1 SWAP2 MSTORE PUSH1 0x40 ADD PUSH1 0x0 SWAP1 DUP2 KECCAK256 DUP1 SLOAD SWAP2 PUSH2 0x1B66 DUP4 PUSH2 0x257D JUMP JUMPDEST SWAP2 SWAP1 POP SSTORE POP DUP6 PUSH1 0x1 PUSH1 0x1 PUSH1 0xA0 SHL SUB AND PUSH1 0x0 DUP1 MLOAD PUSH1 0x20 PUSH2 0x29E8 DUP4 CODECOPY DUP2 MLOAD SWAP2 MSTORE DUP7 PUSH1 0x40 MLOAD PUSH2 0x1B92 SWAP2 SWAP1 PUSH2 0x229B JUMP JUMPDEST PUSH1 0x40 MLOAD DUP1 SWAP2 SUB SWAP1 LOG2 DUP6 PUSH1 0x1 PUSH1 0x1 PUSH1 0xA0 SHL SUB AND DUP3 PUSH32 0xFDB7E11145E15B9F4F6CBC27D43097BFE95FD3B1CD21B5FBCF033F50E350066C DUP8 PUSH1 0x40 MLOAD PUSH2 0x1BD4 SWAP2 SWAP1 PUSH2 0x229B JUMP JUMPDEST PUSH1 0x40 MLOAD DUP1 SWAP2 SUB SWAP1 LOG3 JUMPDEST POP SWAP5 SWAP4 POP POP POP POP JUMP JUMPDEST PUSH1 0x0 DUP2 DUP2 MSTORE PUSH1 0x4 PUSH1 0x20 DUP2 SWAP1 MSTORE PUSH1 0x40 DUP3 KECCAK256 SWAP1 DUP2 ADD SLOAD DUP3 SWAP2 DUP3 SWAP2 DUP3 SWAP2 DUP3 SWAP2 DUP3 SWAP2 SWAP1 PUSH2 0x100 SWAP1 DIV PUSH1 0xFF AND PUSH2 0x1C29 JUMPI PUSH1 0x40 MLOAD PUSH3 0x461BCD PUSH1 0xE5 SHL DUP2 MSTORE PUSH1 0x4 ADD PUSH2 0x637 SWAP1 PUSH2 0x263F JUMP JUMPDEST DUP1 SLOAD PUSH1 0x1 DUP3 ADD SLOAD PUSH1 0x2 DUP4 ADD SLOAD PUSH1 0x3 DUP5 ADD SLOAD PUSH1 0x4 SWAP1 SWAP5 ADD SLOAD PUSH1 0x1 PUSH1 0x1 PUSH1 0xA0 SHL SUB DUP5 AND SWAP13 PUSH1 0xFF PUSH1 0x1 PUSH1 0xA0 SHL SWAP1 SWAP6 DIV DUP6 AND SWAP13 POP SWAP3 SWAP11 POP SWAP1 SWAP9 POP SWAP3 SWAP7 POP SWAP2 AND SWAP4 POP SWAP2 POP POP JUMP JUMPDEST PUSH1 0x9 PUSH1 0x20 MSTORE PUSH1 0x0 SWAP1 DUP2 MSTORE PUSH1 0x40 SWAP1 KECCAK256 DUP1 SLOAD DUP2 SWAP1 PUSH2 0x1C86 SWAP1 PUSH2 0x2422 JUMP JUMPDEST DUP1 PUSH1 0x1F ADD PUSH1 0x20 DUP1 SWAP2 DIV MUL PUSH1 0x20 ADD PUSH1 0x40 MLOAD SWAP1 DUP2 ADD PUSH1 0x40 MSTORE DUP1 SWAP3 SWAP2 SWAP1 DUP2 DUP2 MSTORE PUSH1 0x20 ADD DUP3 DUP1 SLOAD PUSH2 0x1CB2 SWAP1 PUSH2 0x2422 JUMP JUMPDEST DUP1 ISZERO PUSH2 0x1CFF JUMPI DUP1 PUSH1 0x1F LT PUSH2 0x1CD4 JUMPI PUSH2 0x100 DUP1 DUP4 SLOAD DIV MUL DUP4 MSTORE SWAP2 PUSH1 0x20 ADD SWAP2 PUSH2 0x1CFF JUMP JUMPDEST DUP3 ADD SWAP2 SWAP1 PUSH1 0x0 MSTORE PUSH1 0x20 PUSH1 0x0 KECCAK256 SWAP1 JUMPDEST DUP2 SLOAD DUP2 MSTORE SWAP1 PUSH1 0x1 ADD SWAP1 PUSH1 0x20 ADD DUP1 DUP4 GT PUSH2 0x1CE2 JUMPI DUP3 SWAP1 SUB PUSH1 0x1F AND DUP3 ADD SWAP2 JUMPDEST POP POP POP PUSH1 0x1 DUP5 ADD SLOAD PUSH1 0x2 DUP6 ADD SLOAD PUSH1 0x3 DUP7 ADD SLOAD PUSH1 0x4 DUP8 ADD SLOAD PUSH1 0x5 SWAP1 SWAP8 ADD SLOAD SWAP6 SWAP7 PUSH1 0x1 PUSH1 0x1 PUSH1 0xA0 SHL SUB SWAP1 SWAP4 AND SWAP6 SWAP2 SWAP5 POP SWAP3 POP PUSH1 0xFF DUP1 DUP3 AND SWAP2 PUSH2 0x100 SWAP1 DIV AND DUP8 JUMP JUMPDEST PUSH1 0x0 DUP2 DUP2 MSTORE PUSH1 0x9 PUSH1 0x20 MSTORE PUSH1 0x40 DUP2 KECCAK256 PUSH1 0x5 DUP2 ADD SLOAD PUSH2 0x100 SWAP1 DIV PUSH1 0xFF AND PUSH2 0x1D9B JUMPI DUP4 DUP6 PUSH1 0x1 PUSH1 0x1 PUSH1 0xA0 SHL SUB AND PUSH1 0x0 DUP1 MLOAD PUSH1 0x20 PUSH2 0x29C8 DUP4 CODECOPY DUP2 MLOAD SWAP2 MSTORE DUP10 DUP10 TIMESTAMP PUSH1 0x40 MLOAD PUSH2 0x1D89 SWAP4 SWAP3 SWAP2 SWAP1 PUSH2 0x285E JUMP JUMPDEST PUSH1 0x40 MLOAD DUP1 SWAP2 SUB SWAP1 LOG3 PUSH1 0x0 SWAP2 POP POP PUSH2 0x17BD JUMP JUMPDEST PUSH1 0x5 DUP2 ADD SLOAD PUSH1 0xFF AND ISZERO PUSH2 0x1DD4 JUMPI DUP4 DUP6 PUSH1 0x1 PUSH1 0x1 PUSH1 0xA0 SHL SUB AND PUSH1 0x0 DUP1 MLOAD PUSH1 0x20 PUSH2 0x29C8 DUP4 CODECOPY DUP2 MLOAD SWAP2 MSTORE DUP10 DUP10 TIMESTAMP PUSH1 0x40 MLOAD PUSH2 0x1D89 SWAP4 SWAP3 SWAP2 SWAP1 PUSH2 0x28B8 JUMP JUMPDEST DUP1 PUSH1 0x4 ADD SLOAD TIMESTAMP GT ISZERO PUSH2 0x1E0C JUMPI DUP4 DUP6 PUSH1 0x1 PUSH1 0x1 PUSH1 0xA0 SHL SUB AND PUSH1 0x0 DUP1 MLOAD PUSH1 0x20 PUSH2 0x29C8 DUP4 CODECOPY DUP2 MLOAD SWAP2 MSTORE DUP10 DUP10 TIMESTAMP PUSH1 0x40 MLOAD PUSH2 0x1D89 SWAP4 SWAP3 SWAP2 SWAP1 PUSH2 0x2905 JUMP JUMPDEST PUSH1 0x1 DUP2 ADD SLOAD PUSH1 0x1 PUSH1 0x1 PUSH1 0xA0 SHL SUB DUP7 DUP2 AND SWAP2 AND EQ PUSH2 0x1E4F JUMPI DUP4 DUP6 PUSH1 0x1 PUSH1 0x1 PUSH1 0xA0 SHL SUB AND PUSH1 0x0 DUP1 MLOAD PUSH1 0x20 PUSH2 0x29C8 DUP4 CODECOPY DUP2 MLOAD SWAP2 MSTORE DUP10 DUP10 TIMESTAMP PUSH1 0x40 MLOAD PUSH2 0x1D89 SWAP4 SWAP3 SWAP2 SWAP1 PUSH2 0x2952 JUMP JUMPDEST DUP3 DUP5 DUP7 PUSH1 0x1 PUSH1 0x1 PUSH1 0xA0 SHL SUB AND PUSH32 0x598C81673D4C4421446F161F9CED18B89D81ADB3EF7B0B6AFABCFAE11148CDC6 DUP11 DUP11 TIMESTAMP PUSH1 0x40 MLOAD PUSH2 0x1E8E SWAP4 SWAP3 SWAP2 SWAP1 PUSH2 0x29A3 JUMP JUMPDEST PUSH1 0x40 MLOAD DUP1 SWAP2 SUB SWAP1 LOG4 POP PUSH1 0x1 SWAP7 SWAP6 POP POP POP POP POP POP JUMP JUMPDEST PUSH1 0x0 PUSH1 0x20 DUP3 DUP5 SUB SLT ISZERO PUSH2 0x1EB5 JUMPI PUSH1 0x0 DUP1 REVERT JUMPDEST POP CALLDATALOAD SWAP2 SWAP1 POP JUMP JUMPDEST PUSH4 0x4E487B71 PUSH1 0xE0 SHL PUSH1 0x0 MSTORE PUSH1 0x21 PUSH1 0x4 MSTORE PUSH1 0x24 PUSH1 0x0 REVERT JUMPDEST PUSH1 0x4 DUP2 LT PUSH2 0x1EE2 JUMPI PUSH2 0x1EE2 PUSH2 0x1EBC JUMP JUMPDEST SWAP1 MSTORE JUMP JUMPDEST PUSH1 0x3 DUP2 LT PUSH2 0x1EE2 JUMPI PUSH2 0x1EE2 PUSH2 0x1EBC JUMP JUMPDEST PUSH1 0x1 PUSH1 0x1 PUSH1 0xA0 SHL SUB DUP9 AND DUP2 MSTORE PUSH1 0xE0 DUP2 ADD PUSH2 0x1F13 PUSH1 0x20 DUP4 ADD DUP10 PUSH2 0x1ED2 JUMP JUMPDEST DUP7 PUSH1 0x40 DUP4 ADD MSTORE DUP6 PUSH1 0x60 DUP4 ADD MSTORE DUP5 PUSH1 0x80 DUP4 ADD MSTORE PUSH2 0x1F32 PUSH1 0xA0 DUP4 ADD DUP6 PUSH2 0x1EE6 JUMP JUMPDEST DUP3 ISZERO ISZERO PUSH1 0xC0 DUP4 ADD MSTORE SWAP9 SWAP8 POP POP POP POP POP POP POP POP JUMP JUMPDEST PUSH1 0x0 DUP1 DUP4 PUSH1 0x1F DUP5 ADD SLT PUSH2 0x1F58 JUMPI PUSH1 0x0 DUP1 REVERT JUMPDEST POP DUP2 CALLDATALOAD PUSH8 0xFFFFFFFFFFFFFFFF DUP2 GT ISZERO PUSH2 0x1F70 JUMPI PUSH1 0x0 DUP1 REVERT JUMPDEST PUSH1 0x20 DUP4 ADD SWAP2 POP DUP4 PUSH1 0x20 DUP3 DUP6 ADD ADD GT ISZERO PUSH2 0x1F88 JUMPI PUSH1 0x0 DUP1 REVERT JUMPDEST SWAP3 POP SWAP3 SWAP1 POP JUMP JUMPDEST PUSH1 0x0 DUP1 PUSH1 0x0 DUP1 PUSH1 0x0 DUP1 PUSH1 0x60 DUP8 DUP10 SUB SLT ISZERO PUSH2 0x1FA8 JUMPI PUSH1 0x0 DUP1 REVERT JUMPDEST DUP7 CALLDATALOAD PUSH8 0xFFFFFFFFFFFFFFFF DUP1 DUP3 GT ISZERO PUSH2 0x1FC0 JUMPI PUSH1 0x0 DUP1 REVERT JUMPDEST PUSH2 0x1FCC DUP11 DUP4 DUP12 ADD PUSH2 0x1F46 JUMP JUMPDEST SWAP1 SWAP9 POP SWAP7 POP PUSH1 0x20 DUP10 ADD CALLDATALOAD SWAP2 POP DUP1 DUP3 GT ISZERO PUSH2 0x1FE5 JUMPI PUSH1 0x0 DUP1 REVERT JUMPDEST PUSH2 0x1FF1 DUP11 DUP4 DUP12 ADD PUSH2 0x1F46 JUMP JUMPDEST SWAP1 SWAP7 POP SWAP5 POP PUSH1 0x40 DUP10 ADD CALLDATALOAD SWAP2 POP DUP1 DUP3 GT ISZERO PUSH2 0x200A JUMPI PUSH1 0x0 DUP1 REVERT JUMPDEST POP PUSH2 0x2017 DUP10 DUP3 DUP11 ADD PUSH2 0x1F46 JUMP JUMPDEST SWAP8 SWAP11 SWAP7 SWAP10 POP SWAP5 SWAP8 POP SWAP3 SWAP6 SWAP4 SWAP5 SWAP3 POP POP POP JUMP JUMPDEST PUSH1 0x0 DUP2 MLOAD DUP1 DUP5 MSTORE PUSH1 0x0 JUMPDEST DUP2 DUP2 LT ISZERO PUSH2 0x204F JUMPI PUSH1 0x20 DUP2 DUP6 ADD DUP2 ADD MLOAD DUP7 DUP4 ADD DUP3 ADD MSTORE ADD PUSH2 0x2033 JUMP JUMPDEST POP PUSH1 0x0 PUSH1 0x20 DUP3 DUP7 ADD ADD MSTORE PUSH1 0x20 PUSH1 0x1F NOT PUSH1 0x1F DUP4 ADD AND DUP6 ADD ADD SWAP2 POP POP SWAP3 SWAP2 POP POP JUMP JUMPDEST PUSH1 0xA0 DUP2 MSTORE PUSH1 0x0 PUSH2 0x2082 PUSH1 0xA0 DUP4 ADD DUP9 PUSH2 0x2029 JUMP JUMPDEST DUP3 DUP2 SUB PUSH1 0x20 DUP5 ADD MSTORE PUSH2 0x2094 DUP2 DUP9 PUSH2 0x2029 JUMP JUMPDEST SWAP1 POP DUP3 DUP2 SUB PUSH1 0x40 DUP5 ADD MSTORE PUSH2 0x20A8 DUP2 DUP8 PUSH2 0x2029 JUMP JUMPDEST PUSH1 0x1 PUSH1 0x1 PUSH1 0xA0 SHL SUB SWAP6 SWAP1 SWAP6 AND PUSH1 0x60 DUP5 ADD MSTORE POP POP PUSH1 0x80 ADD MSTORE SWAP4 SWAP3 POP POP POP JUMP JUMPDEST DUP1 CALLDATALOAD PUSH1 0x1 PUSH1 0x1 PUSH1 0xA0 SHL SUB DUP2 AND DUP2 EQ PUSH2 0x20DD JUMPI PUSH1 0x0 DUP1 REVERT JUMPDEST SWAP2 SWAP1 POP JUMP JUMPDEST PUSH1 0x0 DUP1 PUSH1 0x0 PUSH1 0x60 DUP5 DUP7 SUB SLT ISZERO PUSH2 0x20F7 JUMPI PUSH1 0x0 DUP1 REVERT JUMPDEST DUP4 CALLDATALOAD SWAP3 POP PUSH1 0x20 DUP5 ADD CALLDATALOAD DUP1 ISZERO ISZERO DUP2 EQ PUSH2 0x210E JUMPI PUSH1 0x0 DUP1 REVERT JUMPDEST SWAP2 POP PUSH2 0x211C PUSH1 0x40 DUP6 ADD PUSH2 0x20C6 JUMP JUMPDEST SWAP1 POP SWAP3 POP SWAP3 POP SWAP3 JUMP JUMPDEST PUSH1 0x0 DUP1 PUSH1 0x0 PUSH1 0x40 DUP5 DUP7 SUB SLT ISZERO PUSH2 0x213A JUMPI PUSH1 0x0 DUP1 REVERT JUMPDEST DUP4 CALLDATALOAD SWAP3 POP PUSH1 0x20 DUP5 ADD CALLDATALOAD PUSH8 0xFFFFFFFFFFFFFFFF DUP2 GT ISZERO PUSH2 0x2158 JUMPI PUSH1 0x0 DUP1 REVERT JUMPDEST PUSH2 0x2164 DUP7 DUP3 DUP8 ADD PUSH2 0x1F46 JUMP JUMPDEST SWAP5 SWAP8 SWAP1 SWAP7 POP SWAP4 SWAP5 POP POP POP POP JUMP JUMPDEST PUSH1 0xC0 DUP2 MSTORE PUSH1 0x0 PUSH2 0x2184 PUSH1 0xC0 DUP4 ADD DUP10 PUSH2 0x2029 JUMP JUMPDEST DUP3 DUP2 SUB PUSH1 0x20 DUP5 ADD MSTORE PUSH2 0x2196 DUP2 DUP10 PUSH2 0x2029 JUMP JUMPDEST SWAP1 POP DUP3 DUP2 SUB PUSH1 0x40 DUP5 ADD MSTORE PUSH2 0x21AA DUP2 DUP9 PUSH2 0x2029 JUMP JUMPDEST PUSH1 0x1 PUSH1 0x1 PUSH1 0xA0 SHL SUB SWAP7 SWAP1 SWAP7 AND PUSH1 0x60 DUP5 ADD MSTORE POP POP PUSH1 0x80 DUP2 ADD SWAP3 SWAP1 SWAP3 MSTORE ISZERO ISZERO PUSH1 0xA0 SWAP1 SWAP2 ADD MSTORE SWAP4 SWAP3 POP POP POP JUMP JUMPDEST PUSH1 0x0 DUP1 PUSH1 0x40 DUP4 DUP6 SUB SLT ISZERO PUSH2 0x21E7 JUMPI PUSH1 0x0 DUP1 REVERT JUMPDEST DUP3 CALLDATALOAD SWAP2 POP PUSH2 0x21F7 PUSH1 0x20 DUP5 ADD PUSH2 0x20C6 JUMP JUMPDEST SWAP1 POP SWAP3 POP SWAP3 SWAP1 POP JUMP JUMPDEST PUSH1 0xC0 DUP2 MSTORE PUSH1 0x0 PUSH2 0x2213 PUSH1 0xC0 DUP4 ADD DUP10 PUSH2 0x2029 JUMP JUMPDEST PUSH1 0x1 PUSH1 0x1 PUSH1 0xA0 SHL SUB SWAP8 SWAP1 SWAP8 AND PUSH1 0x20 DUP4 ADD MSTORE POP PUSH1 0x40 DUP2 ADD SWAP5 SWAP1 SWAP5 MSTORE PUSH1 0x60 DUP5 ADD SWAP3 SWAP1 SWAP3 MSTORE PUSH1 0x80 DUP4 ADD MSTORE ISZERO ISZERO PUSH1 0xA0 SWAP1 SWAP2 ADD MSTORE SWAP2 SWAP1 POP JUMP JUMPDEST DUP1 CALLDATALOAD PUSH1 0x4 DUP2 LT PUSH2 0x20DD JUMPI PUSH1 0x0 DUP1 REVERT JUMPDEST PUSH1 0x0 DUP1 PUSH1 0x40 DUP4 DUP6 SUB SLT ISZERO PUSH2 0x2269 JUMPI PUSH1 0x0 DUP1 REVERT JUMPDEST PUSH2 0x2272 DUP4 PUSH2 0x20C6 JUMP JUMPDEST SWAP2 POP PUSH2 0x21F7 PUSH1 0x20 DUP5 ADD PUSH2 0x2247 JUMP JUMPDEST PUSH1 0x0 PUSH1 0x20 DUP3 DUP5 SUB SLT ISZERO PUSH2 0x2292 JUMPI PUSH1 0x0 DUP1 REVERT JUMPDEST PUSH2 0xE54 DUP3 PUSH2 0x20C6 JUMP JUMPDEST PUSH1 0x20 DUP2 ADD PUSH2 0x22A9 DUP3 DUP5 PUSH2 0x1ED2 JUMP JUMPDEST SWAP3 SWAP2 POP POP JUMP JUMPDEST PUSH1 0x0 DUP1 PUSH1 0x0 DUP1 PUSH1 0x0 PUSH1 0x80 DUP7 DUP9 SUB SLT ISZERO PUSH2 0x22C7 JUMPI PUSH1 0x0 DUP1 REVERT JUMPDEST DUP6 CALLDATALOAD PUSH8 0xFFFFFFFFFFFFFFFF DUP2 GT ISZERO PUSH2 0x22DE JUMPI PUSH1 0x0 DUP1 REVERT JUMPDEST PUSH2 0x22EA DUP9 DUP3 DUP10 ADD PUSH2 0x1F46 JUMP JUMPDEST SWAP1 SWAP7 POP SWAP5 POP PUSH2 0x22FD SWAP1 POP PUSH1 0x20 DUP8 ADD PUSH2 0x20C6 JUMP JUMPDEST SWAP5 SWAP8 SWAP4 SWAP7 POP SWAP4 SWAP5 PUSH1 0x40 DUP2 ADD CALLDATALOAD SWAP5 POP PUSH1 0x60 ADD CALLDATALOAD SWAP3 SWAP2 POP POP JUMP JUMPDEST PUSH1 0x0 DUP1 PUSH1 0x0 PUSH1 0x60 DUP5 DUP7 SUB SLT ISZERO PUSH2 0x232A JUMPI PUSH1 0x0 DUP1 REVERT JUMPDEST PUSH2 0x2333 DUP5 PUSH2 0x20C6 JUMP JUMPDEST SWAP3 POP PUSH2 0x2341 PUSH1 0x20 DUP6 ADD PUSH2 0x2247 JUMP JUMPDEST SWAP2 POP PUSH1 0x40 DUP5 ADD CALLDATALOAD SWAP1 POP SWAP3 POP SWAP3 POP SWAP3 JUMP JUMPDEST PUSH1 0x1 PUSH1 0x1 PUSH1 0xA0 SHL SUB DUP8 AND DUP2 MSTORE PUSH1 0xC0 DUP2 ADD PUSH2 0x236E PUSH1 0x20 DUP4 ADD DUP9 PUSH2 0x1ED2 JUMP JUMPDEST DUP6 PUSH1 0x40 DUP4 ADD MSTORE DUP5 PUSH1 0x60 DUP4 ADD MSTORE DUP4 PUSH1 0x80 DUP4 ADD MSTORE PUSH2 0x238D PUSH1 0xA0 DUP4 ADD DUP5 PUSH2 0x1EE6 JUMP JUMPDEST SWAP8 SWAP7 POP POP POP POP POP POP POP JUMP JUMPDEST PUSH1 0xE0 DUP2 MSTORE PUSH1 0x0 PUSH2 0x23AB PUSH1 0xE0 DUP4 ADD DUP11 PUSH2 0x2029 JUMP JUMPDEST PUSH1 0x1 PUSH1 0x1 PUSH1 0xA0 SHL SUB SWAP9 SWAP1 SWAP9 AND PUSH1 0x20 DUP4 ADD MSTORE POP PUSH1 0x40 DUP2 ADD SWAP6 SWAP1 SWAP6 MSTORE PUSH1 0x60 DUP6 ADD SWAP4 SWAP1 SWAP4 MSTORE PUSH1 0x80 DUP5 ADD SWAP2 SWAP1 SWAP2 MSTORE ISZERO ISZERO PUSH1 0xA0 DUP4 ADD MSTORE ISZERO ISZERO PUSH1 0xC0 SWAP1 SWAP2 ADD MSTORE SWAP2 SWAP1 POP JUMP JUMPDEST PUSH1 0x0 PUSH1 0x20 DUP3 DUP5 SUB SLT ISZERO PUSH2 0x23FB JUMPI PUSH1 0x0 DUP1 REVERT JUMPDEST DUP2 CALLDATALOAD PUSH1 0xFF DUP2 AND DUP2 EQ PUSH2 0xE54 JUMPI PUSH1 0x0 DUP1 REVERT JUMPDEST PUSH4 0x4E487B71 PUSH1 0xE0 SHL PUSH1 0x0 MSTORE PUSH1 0x41 PUSH1 0x4 MSTORE PUSH1 0x24 PUSH1 0x0 REVERT JUMPDEST PUSH1 0x1 DUP2 DUP2 SHR SWAP1 DUP3 AND DUP1 PUSH2 0x2436 JUMPI PUSH1 0x7F DUP3 AND SWAP2 POP JUMPDEST PUSH1 0x20 DUP3 LT DUP2 SUB PUSH2 0x2456 JUMPI PUSH4 0x4E487B71 PUSH1 0xE0 SHL PUSH1 0x0 MSTORE PUSH1 0x22 PUSH1 0x4 MSTORE PUSH1 0x24 PUSH1 0x0 REVERT JUMPDEST POP SWAP2 SWAP1 POP JUMP JUMPDEST PUSH1 0x1F DUP3 GT ISZERO PUSH2 0x24A2 JUMPI PUSH1 0x0 DUP2 DUP2 MSTORE PUSH1 0x20 DUP2 KECCAK256 PUSH1 0x1F DUP6 ADD PUSH1 0x5 SHR DUP2 ADD PUSH1 0x20 DUP7 LT ISZERO PUSH2 0x2483 JUMPI POP DUP1 JUMPDEST PUSH1 0x1F DUP6 ADD PUSH1 0x5 SHR DUP3 ADD SWAP2 POP JUMPDEST DUP2 DUP2 LT ISZERO PUSH2 0xD31 JUMPI DUP3 DUP2 SSTORE PUSH1 0x1 ADD PUSH2 0x248F JUMP JUMPDEST POP POP POP JUMP JUMPDEST DUP2 MLOAD PUSH8 0xFFFFFFFFFFFFFFFF DUP2 GT ISZERO PUSH2 0x24C1 JUMPI PUSH2 0x24C1 PUSH2 0x240C JUMP JUMPDEST PUSH2 0x24D5 DUP2 PUSH2 0x24CF DUP5 SLOAD PUSH2 0x2422 JUMP JUMPDEST DUP5 PUSH2 0x245C JUMP JUMPDEST PUSH1 0x20 DUP1 PUSH1 0x1F DUP4 GT PUSH1 0x1 DUP2 EQ PUSH2 0x250A JUMPI PUSH1 0x0 DUP5 ISZERO PUSH2 0x24F2 JUMPI POP DUP6 DUP4 ADD MLOAD JUMPDEST PUSH1 0x0 NOT PUSH1 0x3 DUP7 SWAP1 SHL SHR NOT AND PUSH1 0x1 DUP6 SWAP1 SHL OR DUP6 SSTORE PUSH2 0xD31 JUMP JUMPDEST PUSH1 0x0 DUP6 DUP2 MSTORE PUSH1 0x20 DUP2 KECCAK256 PUSH1 0x1F NOT DUP7 AND SWAP2 JUMPDEST DUP3 DUP2 LT ISZERO PUSH2 0x2539 JUMPI DUP9 DUP7 ADD MLOAD DUP3 SSTORE SWAP5 DUP5 ADD SWAP5 PUSH1 0x1 SWAP1 SWAP2 ADD SWAP1 DUP5 ADD PUSH2 0x251A JUMP JUMPDEST POP DUP6 DUP3 LT ISZERO PUSH2 0x2557 JUMPI DUP8 DUP6 ADD MLOAD PUSH1 0x0 NOT PUSH1 0x3 DUP9 SWAP1 SHL PUSH1 0xF8 AND SHR NOT AND DUP2 SSTORE JUMPDEST POP POP POP POP POP PUSH1 0x1 SWAP1 DUP2 SHL ADD SWAP1 SSTORE POP JUMP JUMPDEST PUSH4 0x4E487B71 PUSH1 0xE0 SHL PUSH1 0x0 MSTORE PUSH1 0x11 PUSH1 0x4 MSTORE PUSH1 0x24 PUSH1 0x0 REVERT JUMPDEST PUSH1 0x0 PUSH1 0x1 DUP3 ADD PUSH2 0x258F JUMPI PUSH2 0x258F PUSH2 0x2567 JUMP JUMPDEST POP PUSH1 0x1 ADD SWAP1 JUMP JUMPDEST DUP2 DUP4 MSTORE DUP2 DUP2 PUSH1 0x20 DUP6 ADD CALLDATACOPY POP PUSH1 0x0 DUP3 DUP3 ADD PUSH1 0x20 SWAP1 DUP2 ADD SWAP2 SWAP1 SWAP2 MSTORE PUSH1 0x1F SWAP1 SWAP2 ADD PUSH1 0x1F NOT AND SWAP1 SWAP2 ADD ADD SWAP1 JUMP JUMPDEST PUSH1 0x80 DUP2 MSTORE PUSH1 0x0 PUSH2 0x25D3 PUSH1 0x80 DUP4 ADD DUP10 DUP12 PUSH2 0x2596 JUMP JUMPDEST DUP3 DUP2 SUB PUSH1 0x20 DUP5 ADD MSTORE PUSH2 0x25E6 DUP2 DUP9 DUP11 PUSH2 0x2596 JUMP JUMPDEST SWAP1 POP DUP3 DUP2 SUB PUSH1 0x40 DUP5 ADD MSTORE PUSH2 0x25FB DUP2 DUP7 DUP9 PUSH2 0x2596 JUMP JUMPDEST SWAP2 POP POP DUP3 PUSH1 0x60 DUP4 ADD MSTORE SWAP9 SWAP8 POP POP POP POP POP POP POP POP JUMP JUMPDEST PUSH1 0x20 DUP1 DUP3 MSTORE PUSH1 0x15 SWAP1 DUP3 ADD MSTORE PUSH21 0x149958DBDC9908191BD95CC81B9BDD08195E1A5CDD PUSH1 0x5A SHL PUSH1 0x40 DUP3 ADD MSTORE PUSH1 0x60 ADD SWAP1 JUMP JUMPDEST PUSH1 0x20 DUP1 DUP3 MSTORE PUSH1 0x17 SWAP1 DUP3 ADD MSTORE PUSH32 0x50726F706F73616C20646F6573206E6F74206578697374000000000000000000 PUSH1 0x40 DUP3 ADD MSTORE PUSH1 0x60 ADD SWAP1 JUMP JUMPDEST PUSH1 0x0 DUP3 PUSH2 0x2693 JUMPI PUSH4 0x4E487B71 PUSH1 0xE0 SHL PUSH1 0x0 MSTORE PUSH1 0x12 PUSH1 0x4 MSTORE PUSH1 0x24 PUSH1 0x0 REVERT JUMPDEST POP DIV SWAP1 JUMP JUMPDEST DUP1 DUP3 ADD DUP1 DUP3 GT ISZERO PUSH2 0x22A9 JUMPI PUSH2 0x22A9 PUSH2 0x2567 JUMP JUMPDEST PUSH1 0x20 DUP2 MSTORE PUSH1 0x0 PUSH2 0x22A9 PUSH1 0x20 DUP4 ADD PUSH1 0x16 DUP2 MSTORE PUSH22 0x10DBDB9CD95B9D08191BD95CC81B9BDD08195E1A5CDD PUSH1 0x52 SHL PUSH1 0x20 DUP3 ADD MSTORE PUSH1 0x40 ADD SWAP1 JUMP JUMPDEST PUSH1 0x40 DUP2 MSTORE PUSH1 0x0 DUP1 DUP5 SLOAD PUSH2 0x26F3 DUP2 PUSH2 0x2422 JUMP JUMPDEST DUP1 PUSH1 0x40 DUP7 ADD MSTORE PUSH1 0x60 PUSH1 0x1 DUP1 DUP5 AND PUSH1 0x0 DUP2 EQ PUSH2 0x2715 JUMPI PUSH1 0x1 DUP2 EQ PUSH2 0x272F JUMPI PUSH2 0x2760 JUMP JUMPDEST PUSH1 0xFF NOT DUP6 AND DUP9 DUP5 ADD MSTORE DUP4 ISZERO ISZERO PUSH1 0x5 SHL DUP9 ADD DUP4 ADD SWAP6 POP PUSH2 0x2760 JUMP JUMPDEST DUP10 PUSH1 0x0 MSTORE PUSH1 0x20 DUP1 PUSH1 0x0 KECCAK256 PUSH1 0x0 JUMPDEST DUP7 DUP2 LT ISZERO PUSH2 0x2757 JUMPI DUP2 SLOAD DUP12 DUP3 ADD DUP8 ADD MSTORE SWAP1 DUP5 ADD SWAP1 DUP3 ADD PUSH2 0x273C JUMP JUMPDEST DUP11 ADD DUP6 ADD SWAP8 POP POP POP JUMPDEST POP POP POP POP POP PUSH1 0x20 SWAP3 SWAP1 SWAP3 ADD SWAP3 SWAP1 SWAP3 MSTORE SWAP3 SWAP2 POP POP JUMP JUMPDEST DUP2 DUP4 DUP3 CALLDATACOPY PUSH1 0x0 SWAP2 ADD SWAP1 DUP2 MSTORE SWAP2 SWAP1 POP JUMP JUMPDEST PUSH1 0x0 DUP1 DUP4 SLOAD PUSH2 0x2793 DUP2 PUSH2 0x2422 JUMP JUMPDEST PUSH1 0x1 DUP3 DUP2 AND DUP1 ISZERO PUSH2 0x27AB JUMPI PUSH1 0x1 DUP2 EQ PUSH2 0x27C0 JUMPI PUSH2 0x27EF JUMP JUMPDEST PUSH1 0xFF NOT DUP5 AND DUP8 MSTORE DUP3 ISZERO ISZERO DUP4 MUL DUP8 ADD SWAP5 POP PUSH2 0x27EF JUMP JUMPDEST DUP8 PUSH1 0x0 MSTORE PUSH1 0x20 DUP1 PUSH1 0x0 KECCAK256 PUSH1 0x0 JUMPDEST DUP6 DUP2 LT ISZERO PUSH2 0x27E6 JUMPI DUP2 SLOAD DUP11 DUP3 ADD MSTORE SWAP1 DUP5 ADD SWAP1 DUP3 ADD PUSH2 0x27CD JUMP JUMPDEST POP POP POP DUP3 DUP8 ADD SWAP5 POP JUMPDEST POP SWAP3 SWAP7 SWAP6 POP POP POP POP POP POP JUMP JUMPDEST DUP1 DUP3 MUL DUP2 ISZERO DUP3 DUP3 DIV DUP5 EQ OR PUSH2 0x22A9 JUMPI PUSH2 0x22A9 PUSH2 0x2567 JUMP JUMPDEST PUSH1 0x80 DUP2 MSTORE PUSH1 0x0 PUSH2 0x2826 PUSH1 0x80 DUP4 ADD DUP8 DUP10 PUSH2 0x2596 JUMP JUMPDEST PUSH1 0x20 DUP4 ADD SWAP6 SWAP1 SWAP6 MSTORE POP PUSH1 0x40 DUP2 ADD SWAP3 SWAP1 SWAP3 MSTORE PUSH1 0x60 SWAP1 SWAP2 ADD MSTORE SWAP3 SWAP2 POP POP JUMP JUMPDEST PUSH1 0x40 DUP2 ADD PUSH2 0x2851 DUP3 DUP6 PUSH2 0x1ED2 JUMP JUMPDEST DUP3 PUSH1 0x20 DUP4 ADD MSTORE SWAP4 SWAP3 POP POP POP JUMP JUMPDEST PUSH1 0x60 DUP2 MSTORE PUSH1 0x0 PUSH2 0x2872 PUSH1 0x60 DUP4 ADD DUP6 DUP8 PUSH2 0x2596 JUMP JUMPDEST DUP3 DUP2 SUB PUSH1 0x20 DUP5 ADD MSTORE PUSH2 0x28A7 DUP2 PUSH1 0x16 DUP2 MSTORE PUSH22 0x10DBDB9CD95B9D08191BD95CC81B9BDD08195E1A5CDD PUSH1 0x52 SHL PUSH1 0x20 DUP3 ADD MSTORE PUSH1 0x40 ADD SWAP1 JUMP JUMPDEST SWAP2 POP POP DUP3 PUSH1 0x40 DUP4 ADD MSTORE SWAP5 SWAP4 POP POP POP POP JUMP JUMPDEST PUSH1 0x60 DUP2 MSTORE PUSH1 0x0 PUSH2 0x28CC PUSH1 0x60 DUP4 ADD DUP6 DUP8 PUSH2 0x2596 JUMP JUMPDEST DUP3 DUP2 SUB PUSH1 0x20 DUP5 ADD MSTORE PUSH1 0xF DUP2 MSTORE PUSH15 0x10DBDB9CD95B9D081C995D9BDAD959 PUSH1 0x8A SHL PUSH1 0x20 DUP3 ADD MSTORE PUSH1 0x40 DUP2 ADD SWAP2 POP POP DUP3 PUSH1 0x40 DUP4 ADD MSTORE SWAP5 SWAP4 POP POP POP POP JUMP JUMPDEST PUSH1 0x60 DUP2 MSTORE PUSH1 0x0 PUSH2 0x2919 PUSH1 0x60 DUP4 ADD DUP6 DUP8 PUSH2 0x2596 JUMP JUMPDEST DUP3 DUP2 SUB PUSH1 0x20 DUP5 ADD MSTORE PUSH1 0xF DUP2 MSTORE PUSH15 0x10DBDB9CD95B9D08195E1C1A5C9959 PUSH1 0x8A SHL PUSH1 0x20 DUP3 ADD MSTORE PUSH1 0x40 DUP2 ADD SWAP2 POP POP DUP3 PUSH1 0x40 DUP4 ADD MSTORE SWAP5 SWAP4 POP POP POP POP JUMP JUMPDEST PUSH1 0x60 DUP2 MSTORE PUSH1 0x0 PUSH2 0x2966 PUSH1 0x60 DUP4 ADD DUP6 DUP8 PUSH2 0x2596 JUMP JUMPDEST DUP3 DUP2 SUB PUSH1 0x20 DUP5 ADD MSTORE PUSH1 0x13 DUP2 MSTORE PUSH19 0xA4CAE6CAC2E4C6D0CAE440DAD2E6DAC2E8C6D PUSH1 0x6B SHL PUSH1 0x20 DUP3 ADD MSTORE PUSH1 0x40 DUP2 ADD SWAP2 POP POP DUP3 PUSH1 0x40 DUP4 ADD MSTORE SWAP5 SWAP4 POP POP POP POP JUMP JUMPDEST PUSH1 0x40 DUP2 MSTORE PUSH1 0x0 PUSH2 0x29B7 PUSH1 0x40 DUP4 ADD DUP6 DUP8 PUSH2 0x2596 JUMP JUMPDEST SWAP1 POP DUP3 PUSH1 0x20 DUP4 ADD MSTORE SWAP5 SWAP4 POP POP POP POP JUMP INVALID 0xD4 GASLIMIT SWAP11 0x1E MOD COINBASE PUSH1 0xD6 0xE3 CALLCODE AND 0xD1 0xCC DUP6 0xB9 SWAP12 0xDC PUSH8 0xD5D4D7342BB04FD PUSH6 0x56F5BC7AF61E SWAP11 0xCF 0xE4 0xDF DUP10 LOG2 SWAP12 0x2B 0xE6 ISZERO 0xD4 0x4F 0xD9 PUSH3 0xD8CE1F 0xD1 SWAP16 DELEGATECALL 0xA7 0x4D 0xDF GAS SWAP5 ADD 0xA6 LOG4 LOG2 0xA6 0xD2 LOG2 PUSH5 0x6970667358 0x22 SLT KECCAK256 EXP 0xE0 0xA8 0xF6 DUP3 SWAP8 MLOAD DUP4 0xB9 DUP9 SWAP2 0xF9 0xA8 0xD9 0x4F 0x4C 0xE9 0xE 0x26 SIGNEXTEND 0xE5 PUSH32 0x28F89273524351808B1664736F6C634300081400330000000000000000000000 "},"methodIdentifiers":{"consentCount()":"1edb9197","consents(uint256)":"d557d53a","finalizeRegistration(uint256)":"b11053ad","genomicRecords(uint256)":"32c4eac1","getConsent(uint256)":"7a0e09aa","getGenomicRecord(uint256)":"10b3140d","getProposal(uint256)":"c7f758a8","grantConsent(string,address,uint256,uint256)":"bad34b2f","hasVoted(uint256,address)":"43859632","isConsentActive(uint256)":"1e1230f0","logAccess(string,address,uint256,uint256)":"f9de98e1","memberCount(uint8)":"da9ee29f","owner()":"8da5cb5b","proposalCount()":"da35c664","proposals(uint256)":"013cf08b","proposeRegistration(address,uint8,uint256)":"bb8b0e5b","recordCount()":"900407bc","registerGenomicData(string,string,string)":"0acc207e","registerRole(address,uint8)":"861a9066","revokeConsent(uint256)":"16a0042c","roles(address)":"99374642","verifyIntegrity(uint256,string)":"205bb963","voteOnRegistration(uint256,bool,address)":"1177ce05"}}}}}