{
  "_format": "hh-sol-artifact-1",
  "contractName": "GenShareRegistry",
  "sourceName": "contracts/GenShareRegistry.sol",
  "abi": [
    {
      "inputs": [],
      "stateMutability": "nonpayable",
      "type": "constructor"
    },
    {
      "anonymous": false,
      "inputs": [
        {
          "indexed": false,
          "internalType": "string",
          "name": "pid",
          "type": "string"
        },
        {
          "indexed": true,
          "internalType": "address",
          "name": "researcher",
          "type": "address"
        },
        {
          "indexed": true,
          "internalType": "uint256",
          "name": "recordIndex",
          "type": "uint256"
        },
        {
          "indexed": false,
          "internalType": "string",
          "name": "reason",
          "type": "string"
        },
        {
          "indexed": false,
          "internalType": "uint256",
          "name": "timestamp",
          "type": "uint256"
        }
      ],
      "name": "AccessDenied",
      "type": "event"
    },
    {
      "anonymous": false,
      "inputs": [
        {
          "indexed": true,
          "internalType": "uint256",
          "name": "consentIndex",
          "type": "uint256"
        },
        {
          "indexed": false,
          "internalType": "string",
          "name": "pid",
          "type": "string"
        },
        {
          "indexed": true,
          "internalType": "address",
          "name": "researcher",
          "type": "address"
        },
        {
          "indexed": false,
          "internalType": "uint256",
          "name": "recordIndex",
          "type": "uint256"
        },
        {
          "indexed": false,
          "internalType": "uint256",
          "name": "grantedAt",
          "type": "uint256"
        },
        {
          "indexed": false,
          "internalType": "uint256",
          "name": "expiresAt",
          "type": "uint256"
        }
      ],
      "name": "ConsentGranted",
      "type": "event"
    },
    {
      "anonymous": false,
      "inputs": [
        {
          "indexed": true,
          "internalType": "uint256",
          "name": "consentIndex",
          "type": "uint256"
        },
        {
          "indexed": false,
          "internalType": "string",
          "name": "pid",
          "type": "string"
        },
        {
          "indexed": true,
          "internalType": "address",
          "name": "researcher",
          "type": "address"
        },
        {
          "indexed": false,
          "internalType": "uint256",
          "name": "timestamp",
          "type": "uint256"
        }
      ],
      "name": "ConsentRevoked",
      "type": "event"
    },
    {
      "anonymous": false,
      "inputs": [
        {
          "indexed": false,
          "internalType": "string",
          "name": "pid",
          "type": "string"
        },
        {
          "indexed": true,
          "internalType": "address",
          "name": "researcher",
          "type": "address"
        },
        {
          "indexed": true,
          "internalType": "uint256",
          "name": "recordIndex",
          "type": "uint256"
        },
        {
          "indexed": true,
          "internalType": "uint256",
          "name": "consentIndex",
          "type": "uint256"
        },
        {
          "indexed": false,
          "internalType": "uint256",
          "name": "timestamp",
          "type": "uint256"
        }
      ],
      "name": "DataAccessed",
      "type": "event"
    },
    {
      "anonymous": false,
      "inputs": [
        {
          "indexed": true,
          "internalType": "uint256",
          "name": "recordIndex",
          "type": "uint256"
        },
        {
          "indexed": false,
          "internalType": "string",
          "name": "pid",
          "type": "string"
        },
        {
          "indexed": false,
          "internalType": "string",
          "name": "fileHash",
          "type": "string"
        },
        {
          "indexed": false,
          "internalType": "string",
          "name": "ipfsCID",
          "type": "string"
        },
        {
          "indexed": true,
          "internalType": "address",
          "name": "registeredBy",
          "type": "address"
        },
        {
          "indexed": false,
          "internalType": "uint256",
          "name": "timestamp",
          "type": "uint256"
        }
      ],
      "name": "GenomicDataRegistered",
      "type": "event"
    },
    {
      "anonymous": false,
      "inputs": [
        {
          "indexed": true,
          "internalType": "uint256",
          "name": "proposalId",
          "type": "uint256"
        },
        {
          "indexed": true,
          "internalType": "address",
          "name": "applicant",
          "type": "address"
        },
        {
          "indexed": false,
          "internalType": "enum GenShareRegistry.Role",
          "name": "role",
          "type": "uint8"
        }
      ],
      "name": "RegistrationApproved",
      "type": "event"
    },
    {
      "anonymous": false,
      "inputs": [
        {
          "indexed": true,
          "internalType": "uint256",
          "name": "proposalId",
          "type": "uint256"
        },
        {
          "indexed": true,
          "internalType": "address",
          "name": "applicant",
          "type": "address"
        },
        {
          "indexed": false,
          "internalType": "enum GenShareRegistry.Role",
          "name": "requestedRole",
          "type": "uint8"
        },
        {
          "indexed": false,
          "internalType": "uint256",
          "name": "deadline",
          "type": "uint256"
        }
      ],
      "name": "RegistrationProposed",
      "type": "event"
    },
    {
      "anonymous": false,
      "inputs": [
        {
          "indexed": true,
          "internalType": "uint256",
          "name": "proposalId",
          "type": "uint256"
        },
        {
          "indexed": true,
          "internalType": "address",
          "name": "applicant",
          "type": "address"
        },
        {
          "indexed": false,
          "internalType": "enum GenShareRegistry.Role",
          "name": "role",
          "type": "uint8"
        }
      ],
      "name": "RegistrationRejected",
      "type": "event"
    },
    {
      "anonymous": false,
      "inputs": [
        {
          "indexed": true,
          "internalType": "uint256",
          "name": "proposalId",
          "type": "uint256"
        },
        {
          "indexed": true,
          "internalType": "address",
          "name": "voter",
          "type": "address"
        },
        {
          "indexed": false,
          "internalType": "bool",
          "name": "approve",
          "type": "bool"
        }
      ],
      "name": "RegistrationVoted",
      "type": "event"
    },
    {
      "anonymous": false,
      "inputs": [
        {
          "indexed": true,
          "internalType": "address",
          "name": "account",
          "type": "address"
        },
        {
          "indexed": false,
          "internalType": "enum GenShareRegistry.Role",
          "name": "role",
          "type": "uint8"
        }
      ],
      "name": "RoleRegistered",
      "type": "event"
    },
    {
      "inputs": [],
      "name": "consentCount",
      "outputs": [
        {
          "internalType": "uint256",
          "name": "",
          "type": "uint256"
        }
      ],
      "stateMutability": "view",
      "type": "function"
    },
    {
      "inputs": [
        {
          "internalType": "uint256",
          "name": "",
          "type": "uint256"
        }
      ],
      "name": "consents",
      "outputs": [
        {
          "internalType": "string",
          "name": "pid",
          "type": "string"
        },
        {
          "internalType": "address",
          "name": "researcher",
          "type": "address"
        },
        {
          "internalType": "uint256",
          "name": "recordIndex",
          "type": "uint256"
        },
        {
          "internalType": "uint256",
          "name": "grantedAt",
          "type": "uint256"
        },
        {
          "internalType": "uint256",
          "name": "expiresAt",
          "type": "uint256"
        },
        {
          "internalType": "bool",
          "name": "revoked",
          "type": "bool"
        },
        {
          "internalType": "bool",
          "name": "exists",
          "type": "bool"
        }
      ],
      "stateMutability": "view",
      "type": "function"
    },
    {
      "inputs": [
        {
          "internalType": "uint256",
          "name": "_proposalId",
          "type": "uint256"
        }
      ],
      "name": "finalizeRegistration",
      "outputs": [],
      "stateMutability": "nonpayable",
      "type": "function"
    },
    {
      "inputs": [
        {
          "internalType": "uint256",
          "name": "",
          "type": "uint256"
        }
      ],
      "name": "genomicRecords",
      "outputs": [
        {
          "internalType": "string",
          "name": "pid",
          "type": "string"
        },
        {
          "internalType": "string",
          "name": "fileHash",
          "type": "string"
        },
        {
          "internalType": "string",
          "name": "ipfsCID",
          "type": "string"
        },
        {
          "internalType": "address",
          "name": "registeredBy",
          "type": "address"
        },
        {
          "internalType": "uint256",
          "name": "timestamp",
          "type": "uint256"
        },
        {
          "internalType": "bool",
          "name": "exists",
          "type": "bool"
        }
      ],
      "stateMutability": "view",
      "type": "function"
    },
    {
      "inputs": [
        {
          "internalType": "uint256",
          "name": "_index",
          "type": "uint256"
        }
      ],
      "name": "getConsent",
      "outputs": [
        {
          "internalType": "string",
          "name": "pid",
          "type": "string"
        },
        {
          "internalType": "address",
          "name": "researcher",
          "type": "address"
        },
        {
          "internalType": "uint256",
          "name": "recordIndex",
          "type": "uint256"
        },
        {
          "internalType": "uint256",
          "name": "grantedAt",
          "type": "uint256"
        },
        {
          "internalType": "uint256",
          "name": "expiresAt",
          "type": "uint256"
        },
        {
          "internalType": "bool",
          "name": "revoked",
          "type": "bool"
        }
      ],
      "stateMutability": "view",
      "type": "function"
    },
    {
      "inputs": [
        {
          "internalType": "uint256",
          "name": "_index",
          "type": "uint256"
        }
      ],
      "name": "getGenomicRecord",
      "outputs": [
        {
          "internalType": "string",
          "name": "pid",
          "type": "string"
        },
        {
          "internalType": "string",
          "name": "fileHash",
          "type": "string"
        },
        {
          "internalType": "string",
          "name": "ipfsCID",
          "type": "string"
        },
        {
          "internalType": "address",
          "name": "registeredBy",
          "type": "address"
        },
        {
          "internalType": "uint256",
          "name": "timestamp",
          "type": "uint256"
        }
      ],
      "stateMutability": "view",
      "type": "function"
    },
    {
      "inputs": [
        {
          "internalType": "uint256",
          "name": "_proposalId",
          "type": "uint256"
        }
      ],
      "name": "getProposal",
      "outputs": [
        {
          "internalType": "address",
          "name": "applicant",
          "type": "address"
        },
        {
          "internalType": "enum GenShareRegistry.Role",
          "name": "requestedRole",
          "type": "uint8"
        },
        {
          "internalType": "uint256",
          "name": "approveCount",
          "type": "uint256"
        },
        {
          "internalType": "uint256",
          "name": "rejectCount",
          "type": "uint256"
        },
        {
          "internalType": "uint256",
          "name": "deadline",
          "type": "uint256"
        },
        {
          "internalType": "enum GenShareRegistry.ProposalStatus",
          "name": "status",
          "type": "uint8"
        }
      ],
      "stateMutability": "view",
      "type": "function"
    },
    {
      "inputs": [
        {
          "internalType": "string",
          "name": "_pid",
          "type": "string"
        },
        {
          "internalType": "address",
          "name": "_researcher",
          "type": "address"
        },
        {
          "internalType": "uint256",
          "name": "_recordIndex",
          "type": "uint256"
        },
        {
          "internalType": "uint256",
          "name": "_durationDays",
          "type": "uint256"
        }
      ],
      "name": "grantConsent",
      "outputs": [
        {
          "internalType": "uint256",
          "name": "",
          "type": "uint256"
        }
      ],
      "stateMutability": "nonpayable",
      "type": "function"
    },
    {
      "inputs": [
        {
          "internalType": "uint256",
          "name": "",
          "type": "uint256"
        },
        {
          "internalType": "address",
          "name": "",
          "type": "address"
        }
      ],
      "name": "hasVoted",
      "outputs": [
        {
          "internalType": "bool",
          "name": "",
          "type": "bool"
        }
      ],
      "stateMutability": "view",
      "type": "function"
    },
    {
      "inputs": [
        {
          "internalType": "uint256",
          "name": "_consentIndex",
          "type": "uint256"
        }
      ],
      "name": "isConsentActive",
      "outputs": [
        {
          "internalType": "bool",
          "name": "",
          "type": "bool"
        }
      ],
      "stateMutability": "view",
      "type": "function"
    },
    {
      "inputs": [
        {
          "internalType": "string",
          "name": "_pid",
          "type": "string"
        },
        {
          "internalType": "address",
          "name": "_researcher",
          "type": "address"
        },
        {
          "internalType": "uint256",
          "name": "_recordIndex",
          "type": "uint256"
        },
        {
          "internalType": "uint256",
          "name": "_consentIndex",
          "type": "uint256"
        }
      ],
      "name": "logAccess",
      "outputs": [
        {
          "internalType": "bool",
          "name": "",
          "type": "bool"
        }
      ],
      "stateMutability": "nonpayable",
      "type": "function"
    },
    {
      "inputs": [
        {
          "internalType": "uint8",
          "name": "",
          "type": "uint8"
        }
      ],
      "name": "memberCount",
      "outputs": [
        {
          "internalType": "uint256",
          "name": "",
          "type": "uint256"
        }
      ],
      "stateMutability": "view",
      "type": "function"
    },
    {
      "inputs": [],
      "name": "owner",
      "outputs": [
        {
          "internalType": "address",
          "name": "",
          "type": "address"
        }
      ],
      "stateMutability": "view",
      "type": "function"
    },
    {
      "inputs": [],
      "name": "proposalCount",
      "outputs": [
        {
          "internalType": "uint256",
          "name": "",
          "type": "uint256"
        }
      ],
      "stateMutability": "view",
      "type": "function"
    },
    {
      "inputs": [
        {
          "internalType": "uint256",
          "name": "",
          "type": "uint256"
        }
      ],
      "name": "proposals",
      "outputs": [
        {
          "internalType": "address",
          "name": "applicant",
          "type": "address"
        },
        {
          "internalType": "enum GenShareRegistry.Role",
          "name": "requestedRole",
          "type": "uint8"
        },
        {
          "internalType": "uint256",
          "name": "approveCount",
          "type": "uint256"
        },
        {
          "internalType": "uint256",
          "name": "rejectCount",
          "type": "uint256"
        },
        {
          "internalType": "uint256",
          "name": "deadline",
          "type": "uint256"
        },
        {
          "internalType": "enum GenShareRegistry.ProposalStatus",
          "name": "status",
          "type": "uint8"
        },
        {
          "internalType": "bool",
          "name": "exists",
          "type": "bool"
        }
      ],
      "stateMutability": "view",
      "type": "function"
    },
    {
      "inputs": [
        {
          "internalType": "address",
          "name": "_applicant",
          "type": "address"
        },
        {
          "internalType": "enum GenShareRegistry.Role",
          "name": "_role",
          "type": "uint8"
        },
        {
          "internalType": "uint256",
          "name": "_votingDays",
          "type": "uint256"
        }
      ],
      "name": "proposeRegistration",
      "outputs": [
        {
          "internalType": "uint256",
          "name": "",
          "type": "uint256"
        }
      ],
      "stateMutability": "nonpayable",
      "type": "function"
    },
    {
      "inputs": [],
      "name": "recordCount",
      "outputs": [
        {
          "internalType": "uint256",
          "name": "",
          "type": "uint256"
        }
      ],
      "stateMutability": "view",
      "type": "function"
    },
    {
      "inputs": [
        {
          "internalType": "string",
          "name": "_pid",
          "type": "string"
        },
        {
          "internalType": "string",
          "name": "_fileHash",
          "type": "string"
        },
        {
          "internalType": "string",
          "name": "_ipfsCID",
          "type": "string"
        }
      ],
      "name": "registerGenomicData",
      "outputs": [
        {
          "internalType": "uint256",
          "name": "",
          "type": "uint256"
        }
      ],
      "stateMutability": "nonpayable",
      "type": "function"
    },
    {
      "inputs": [
        {
          "internalType": "address",
          "name": "_account",
          "type": "address"
        },
        {
          "internalType": "enum GenShareRegistry.Role",
          "name": "_role",
          "type": "uint8"
        }
      ],
      "name": "registerRole",
      "outputs": [],
      "stateMutability": "nonpayable",
      "type": "function"
    },
    {
      "inputs": [
        {
          "internalType": "uint256",
          "name": "_consentIndex",
          "type": "uint256"
        }
      ],
      "name": "revokeConsent",
      "outputs": [],
      "stateMutability": "nonpayable",
      "type": "function"
    },
    {
      "inputs": [
        {
          "internalType": "address",
          "name": "",
          "type": "address"
        }
      ],
      "name": "roles",
      "outputs": [
        {
          "internalType": "enum GenShareRegistry.Role",
          "name": "",
          "type": "uint8"
        }
      ],
      "stateMutability": "view",
      "type": "function"
    },
    {
      "inputs": [
        {
          "internalType": "uint256",
          "name": "_recordIndex",
          "type": "uint256"
        },
        {
          "internalType": "string",
          "name": "_fileHash",
          "type": "string"
        }
      ],
      "name": "verifyIntegrity",
      "outputs": [
        {
          "internalType": "bool",
          "name": "matches",
          "type": "bool"
        }
      ],
      "stateMutability": "view",
      "type": "function"
    },
    {
      "inputs": [
        {
          "internalType": "uint256",
          "name": "_proposalId",
          "type": "uint256"
        },
        {
          "internalType": "bool",
          "name": "_approve",
          "type": "bool"
        },
        {
          "internalType": "address",
          "name": "_voter",
          "type": "address"
        }
      ],
      "name": "voteOnRegistration",
      "outputs": [],
      "stateMutability": "nonpayable",
      "type": "function"
    }
  ],
  "bytecode": "0x608060405234801561001057600080fd5b50600080546001600160a01b03191633179055612a3d806100326000396000f3fe608060405234801561001057600080fd5b506004361061014d5760003560e01c8063861a9066116100c3578063bb8b0e5b1161007c578063bb8b0e5b1461038f578063c7f758a8146103a2578063d557d53a146103c7578063da35c664146103ed578063da9ee29f146103f6578063f9de98e11461041657600080fd5b8063861a9066146102f25780638da5cb5b14610305578063900407bc146103305780639937464214610339578063b11053ad14610369578063bad34b2f1461037c57600080fd5b80631e1230f0116101155780631e1230f01461023b5780631edb91971461025e578063205bb9631461026757806332c4eac11461027a578063438596321461029f5780637a0e09aa146102cd57600080fd5b8063013cf08b146101525780630acc207e146101ce57806310b3140d146101ef5780631177ce051461021357806316a0042c14610228575b600080fd5b6101b2610160366004611ea3565b6004602081905260009182526040909120805460018201546002830154600384015493909401546001600160a01b0383169460ff600160a01b9094048416949293909291808216916101009091041687565b6040516101c59796959493929190611ef6565b60405180910390f35b6101e16101dc366004611f8f565b610429565b6040519081526020016101c5565b6102026101fd366004611ea3565b6105fb565b6040516101c595949392919061206f565b6102266102213660046120e2565b61081b565b005b610226610236366004611ea3565b610d39565b61024e610249366004611ea3565b610e18565b60405190151581526020016101c5565b6101e160085481565b61024e610275366004612125565b610e5b565b61028d610288366004611ea3565b610ed5565b6040516101c596959493929190612171565b61024e6102ad3660046121d4565b600560209081526000928352604080842090915290825290205460ff1681565b6102e06102db366004611ea3565b6110b0565b6040516101c596959493929190612200565b610226610300366004612256565b6111c3565b600054610318906001600160a01b031681565b6040516001600160a01b0390911681526020016101c5565b6101e160065481565b61035c610347366004612280565b60016020526000908152604090205460ff1681565b6040516101c5919061229b565b610226610377366004611ea3565b61134a565b6101e161038a3660046122af565b6115bd565b6101e161039d366004612315565b6117c6565b6103b56103b0366004611ea3565b611be6565b6040516101c596959493929190612351565b6103da6103d5366004611ea3565b611c6b565b6040516101c59796959493929190612398565b6101e160035481565b6101e16104043660046123e9565b60026020526000908152604090205481565b61024e6104243660046122af565b611d3e565b6006546040805160e06020601f8a01819004028201810190925260c08101888152600093928291908b908b9081908501838280828437600092019190915250505090825250604080516020601f8a0181900481028201810190925288815291810191908990899081908401838280828437600092019190915250505090825250604080516020601f88018190048102820181019092528681529181019190879087908190840183828082843760009201829052509385525050336020808501919091524260408086019190915260016060909501949094528583526007905250208151819061051890826124a7565b506020820151600182019061052d90826124a7565b506040820151600282019061054290826124a7565b5060608201516003820180546001600160a01b0319166001600160a01b039092169190911790556080820151600482015560a0909101516005909101805460ff19169115159190911790556006805490600061059d8361257d565b9190505550336001600160a01b0316817f507881d9472ba70f599c171f42b26cd4ab35a569fd366cbd11c9dc6ee20c1b9b8a8a8a8a8a8a426040516105e897969594939291906125bf565b60405180910390a3979650505050505050565b600081815260076020526040812060058101546060928392839282919060ff166106405760405162461bcd60e51b815260040161063790612610565b60405180910390fd5b6003810154600482015482548392600184019260028501926001600160a01b0390921691859061066f90612422565b80601f016020809104026020016040519081016040528092919081815260200182805461069b90612422565b80156106e85780601f106106bd576101008083540402835291602001916106e8565b820191906000526020600020905b8154815290600101906020018083116106cb57829003601f168201915b505050505094508380546106fb90612422565b80601f016020809104026020016040519081016040528092919081815260200182805461072790612422565b80156107745780601f1061074957610100808354040283529160200191610774565b820191906000526020600020905b81548152906001019060200180831161075757829003601f168201915b5050505050935082805461078790612422565b80601f01602080910402602001604051908101604052809291908181526020018280546107b390612422565b80156108005780601f106107d557610100808354040283529160200191610800565b820191906000526020600020905b8154815290600101906020018083116107e357829003601f168201915b50505050509250955095509550955095505091939590929450565b600083815260046020819052604090912090810154610100900460ff166108545760405162461bcd60e51b81526004016106379061263f565b6000600482015460ff16600281111561086f5761086f611ebc565b146108bc5760405162461bcd60e51b815260206004820152601960248201527f50726f706f73616c20616c7265616479207265736f6c766564000000000000006044820152606401610637565b80600301544211156109065760405162461bcd60e51b8152602060048201526013602482015272159bdd1a5b99c81c195c9a5bd908195b991959606a1b6044820152606401610637565b336001600160a01b038316148061092757506000546001600160a01b031633145b6109815760405162461bcd60e51b815260206004820152602560248201527f556e617574686f72697a656420746f20766f746520666f722074686973206164604482015264647265737360d81b6064820152608401610637565b8054600160a01b900460ff16600381111561099e5761099e611ebc565b6001600160a01b03831660009081526001602052604090205460ff1660038111156109cb576109cb611ebc565b14610a185760405162461bcd60e51b815260206004820152601b60248201527f4d75737420686f6c642073616d6520726f6c6520746f20766f746500000000006044820152606401610637565b60008481526005602090815260408083206001600160a01b038616845290915290205460ff1615610a7b5760405162461bcd60e51b815260206004820152600d60248201526c105b1c9958591e481d9bdd1959609a1b6044820152606401610637565b60008481526005602090815260408083206001600160a01b03861684529091529020805460ff191660011790558215610aca57600181018054906000610ac08361257d565b9190505550610ae2565b600281018054906000610adc8361257d565b91905055505b816001600160a01b0316847f54df9f13d0fba24181a5d64acb9ef191b5eb43f5629b164d326282d618f3e34485604051610b20911515815260200190565b60405180910390a380546000906002908290600160a01b900460ff166003811115610b4d57610b4d611ebc565b60ff16815260208101919091526040016000908120549150610b70600283612676565b610b7b906001612698565b905080836001015410610cc3576004830180546001919060ff19168280021790555082546001600160a01b03811660009081526001602081905260409091208054600160a01b90930460ff1692909160ff1990911690836003811115610be357610be3611ebc565b02179055508254600290600090600160a01b900460ff166003811115610c0b57610c0b611ebc565b60ff16815260208101919091526040016000908120805491610c2c8361257d565b909155505082546040516001600160a01b038216916000805160206129e883398151915291610c6591600160a01b900460ff169061229b565b60405180910390a282546040516001600160a01b0382169188917ffdb7e11145e15b9f4f6cbc27d43097bfe95fd3b1cd21b5fbcf033f50e350066c91610cb691600160a01b90910460ff169061229b565b60405180910390a3610d31565b80836002015410610d3157600483018054600260ff1990911617905582546040516001600160a01b0382169188917f1cf71c85a43a7a1c0a432bd307c6117bf702d4a7aa72ed16c7c5ab22a59ad38391610d2891600160a01b90910460ff169061229b565b60405180910390a35b505050505050565b60008181526009602052604090206005810154610100900460ff16610d705760405162461bcd60e51b8152600401610637906126ab565b600581015460ff1615610db75760405162461bcd60e51b815260206004820152600f60248201526e105b1c9958591e481c995d9bdad959608a1b6044820152606401610637565b60058101805460ff191660019081179091558101546040516001600160a01b039091169083907f046822d776370604e191182e5581386e4e1096af80846ca3940e7a23f140bced90610e0c90859042906126e1565b60405180910390a35050565b60008181526009602052604081206005810154610100900460ff168015610e445750600581015460ff16155b8015610e54575080600401544211155b9392505050565b60008381526007602052604081206005015460ff16610e8c5760405162461bcd60e51b815260040161063790612610565b8282604051610e9c929190612775565b6040805191829003822060008781526007602052919091209091610ec39160010190612785565b60405180910390201490509392505050565b600760205260009081526040902080548190610ef090612422565b80601f0160208091040260200160405190810160405280929190818152602001828054610f1c90612422565b8015610f695780601f10610f3e57610100808354040283529160200191610f69565b820191906000526020600020905b815481529060010190602001808311610f4c57829003601f168201915b505050505090806001018054610f7e90612422565b80601f0160208091040260200160405190810160405280929190818152602001828054610faa90612422565b8015610ff75780601f10610fcc57610100808354040283529160200191610ff7565b820191906000526020600020905b815481529060010190602001808311610fda57829003601f168201915b50505050509080600201805461100c90612422565b80601f016020809104026020016040519081016040528092919081815260200182805461103890612422565b80156110855780601f1061105a57610100808354040283529160200191611085565b820191906000526020600020905b81548152906001019060200180831161106857829003601f168201915b505050506003830154600484015460059094015492936001600160a01b039091169290915060ff1686565b6000818152600960205260408120600581015460609291829182918291829190610100900460ff166110f45760405162461bcd60e51b8152600401610637906126ab565b60018101546002820154600383015460048401546005850154855486956001600160a01b03169493929160ff1690869061112d90612422565b80601f016020809104026020016040519081016040528092919081815260200182805461115990612422565b80156111a65780601f1061117b576101008083540402835291602001916111a6565b820191906000526020600020905b81548152906001019060200180831161118957829003601f168201915b505050505095509650965096509650965096505091939550919395565b6000546001600160a01b0316331461120a5760405162461bcd60e51b815260206004820152600a60248201526927b7363c9037bbb732b960b11b6044820152606401610637565b600081600381111561121e5761121e611ebc565b0361126b5760405162461bcd60e51b815260206004820152601760248201527f43616e6e6f742061737369676e204e6f6e6520726f6c650000000000000000006044820152606401610637565b6001600160a01b03821660009081526001602052604081205460ff16600381111561129857611298611ebc565b036112da57600260008260038111156112b3576112b3611ebc565b60ff168152602081019190915260400160009081208054916112d48361257d565b91905055505b6001600160a01b03821660009081526001602081905260409091208054839260ff199091169083600381111561131257611312611ebc565b0217905550816001600160a01b03166000805160206129e88339815191528260405161133e919061229b565b60405180910390a25050565b600081815260046020819052604090912090810154610100900460ff166113835760405162461bcd60e51b81526004016106379061263f565b6000600482015460ff16600281111561139e5761139e611ebc565b146113de5760405162461bcd60e51b815260206004820152601060248201526f105b1c9958591e481c995cdbdb1d995960821b6044820152606401610637565b806003015442116114255760405162461bcd60e51b81526020600482015260116024820152702b37ba34b7339039ba34b6361037b832b760791b6044820152606401610637565b806002015481600101541115611563576004810180546001919060ff19168280021790555080546001600160a01b03811660009081526001602081905260409091208054600160a01b90930460ff1692909160ff199091169083600381111561149057611490611ebc565b02179055508054600290600090600160a01b900460ff1660038111156114b8576114b8611ebc565b60ff168152602081019190915260400160009081208054916114d98361257d565b909155505080546040516001600160a01b038216916000805160206129e88339815191529161151291600160a01b900460ff169061229b565b60405180910390a280546040516001600160a01b0382169184917ffdb7e11145e15b9f4f6cbc27d43097bfe95fd3b1cd21b5fbcf033f50e350066c91610e0c91600160a01b90910460ff169061229b565b600481018054600260ff1990911617905580546040516001600160a01b0382169184917f1cf71c85a43a7a1c0a432bd307c6117bf702d4a7aa72ed16c7c5ab22a59ad38391610e0c91600160a01b90910460ff169061229b565b60008281526007602052604081206005015460ff166115ee5760405162461bcd60e51b815260040161063790612610565b600082116116355760405162461bcd60e51b815260206004820152601460248201527304475726174696f6e206d757374206265203e20360641b6044820152606401610637565b600854600061164784620151806127fb565b6116519042612698565b604080516101006020601f8c01819004028201810190925260e081018a81529293509182918b908b908190850183828082843760009201829052509385525050506001600160a01b03891660208084019190915260408084018a90524260608501526080840186905260a08401839052600160c0909401939093528582526009905220815181906116e290826124a7565b5060208201516001820180546001600160a01b039092166001600160a01b031990921691909117905560408201516002820155606082015160038201556080820151600482015560a08201516005909101805460c09093015115156101000261ff00199215159290921661ffff19909316929092171790556008805490600061176a8361257d565b9190505550856001600160a01b0316827f0c78594ef217f41cf185e25d2754d568d45b23a830b1dccefd45ae0aa05d70c28a8a8942876040516117b1959493929190612812565b60405180910390a35090505b95945050505050565b600060028360038111156117dc576117dc611ebc565b14806117f9575060038360038111156117f7576117f7611ebc565b145b6118455760405162461bcd60e51b815260206004820152601c60248201527f4f6e6c79204c6162206f72205265736561726368657220726f6c6573000000006044820152606401610637565b6001600160a01b03841660009081526001602052604081205460ff16600381111561187257611872611ebc565b146118b45760405162461bcd60e51b8152602060048201526012602482015271416c726561647920686173206120726f6c6560701b6044820152606401610637565b600082116119045760405162461bcd60e51b815260206004820152601b60248201527f566f74696e67206475726174696f6e206d757374206265203e203000000000006044820152606401610637565b600354600061191684620151806127fb565b6119209042612698565b90506040518060e00160405280876001600160a01b0316815260200186600381111561194e5761194e611ebc565b815260200160008152602001600081526020018281526020016000600281111561197a5761197a611ebc565b8152600160209182015260008481526004825260409020825181546001600160a01b039091166001600160a01b031982168117835592840151919283916001600160a81b03191617600160a01b8360038111156119d9576119d9611ebc565b021790555060408201518160010155606082015181600201556080820151816003015560a08201518160040160006101000a81548160ff02191690836002811115611a2657611a26611ebc565b021790555060c09190910151600490910180549115156101000261ff001990921691909117905560038054906000611a5d8361257d565b9190505550856001600160a01b0316827fc3761c607cdaac1aa357f04c10d0df99cf35aafc634da0b25c91b74b646a981b8784604051611a9e929190612843565b60405180910390a360026000866003811115611abc57611abc611ebc565b60ff1660ff16815260200190815260200160002054600003611bdd5760008281526004602081815260408084209092018054600160ff1991821681179092556001600160a01b038b1685529181905291909220805488939192911690836003811115611b2a57611b2a611ebc565b021790555060026000866003811115611b4557611b45611ebc565b60ff16815260208101919091526040016000908120805491611b668361257d565b9190505550856001600160a01b03166000805160206129e883398151915286604051611b92919061229b565b60405180910390a2856001600160a01b0316827ffdb7e11145e15b9f4f6cbc27d43097bfe95fd3b1cd21b5fbcf033f50e350066c87604051611bd4919061229b565b60405180910390a35b50949350505050565b60008181526004602081905260408220908101548291829182918291829190610100900460ff16611c295760405162461bcd60e51b81526004016106379061263f565b80546001820154600283015460038401546004909401546001600160a01b0384169c60ff600160a01b90950485169c50929a5090985092965091169350915050565b600960205260009081526040902080548190611c8690612422565b80601f0160208091040260200160405190810160405280929190818152602001828054611cb290612422565b8015611cff5780601f10611cd457610100808354040283529160200191611cff565b820191906000526020600020905b815481529060010190602001808311611ce257829003601f168201915b505050600184015460028501546003860154600487015460059097015495966001600160a01b0390931695919450925060ff8082169161010090041687565b60008181526009602052604081206005810154610100900460ff16611d9b5783856001600160a01b03166000805160206129c8833981519152898942604051611d899392919061285e565b60405180910390a360009150506117bd565b600581015460ff1615611dd45783856001600160a01b03166000805160206129c8833981519152898942604051611d89939291906128b8565b8060040154421115611e0c5783856001600160a01b03166000805160206129c8833981519152898942604051611d8993929190612905565b60018101546001600160a01b03868116911614611e4f5783856001600160a01b03166000805160206129c8833981519152898942604051611d8993929190612952565b8284866001600160a01b03167f598c81673d4c4421446f161f9ced18b89d81adb3ef7b0b6afabcfae11148cdc68a8a42604051611e8e939291906129a3565b60405180910390a45060019695505050505050565b600060208284031215611eb557600080fd5b5035919050565b634e487b7160e01b600052602160045260246000fd5b60048110611ee257611ee2611ebc565b9052565b60038110611ee257611ee2611ebc565b6001600160a01b038816815260e08101611f136020830189611ed2565b866040830152856060830152846080830152611f3260a0830185611ee6565b82151560c083015298975050505050505050565b60008083601f840112611f5857600080fd5b50813567ffffffffffffffff811115611f7057600080fd5b602083019150836020828501011115611f8857600080fd5b9250929050565b60008060008060008060608789031215611fa857600080fd5b863567ffffffffffffffff80821115611fc057600080fd5b611fcc8a838b01611f46565b90985096506020890135915080821115611fe557600080fd5b611ff18a838b01611f46565b9096509450604089013591508082111561200a57600080fd5b5061201789828a01611f46565b979a9699509497509295939492505050565b6000815180845260005b8181101561204f57602081850181015186830182015201612033565b506000602082860101526020601f19601f83011685010191505092915050565b60a08152600061208260a0830188612029565b82810360208401526120948188612029565b905082810360408401526120a88187612029565b6001600160a01b039590951660608401525050608001529392505050565b80356001600160a01b03811681146120dd57600080fd5b919050565b6000806000606084860312156120f757600080fd5b833592506020840135801515811461210e57600080fd5b915061211c604085016120c6565b90509250925092565b60008060006040848603121561213a57600080fd5b83359250602084013567ffffffffffffffff81111561215857600080fd5b61216486828701611f46565b9497909650939450505050565b60c08152600061218460c0830189612029565b82810360208401526121968189612029565b905082810360408401526121aa8188612029565b6001600160a01b0396909616606084015250506080810192909252151560a0909101529392505050565b600080604083850312156121e757600080fd5b823591506121f7602084016120c6565b90509250929050565b60c08152600061221360c0830189612029565b6001600160a01b0397909716602083015250604081019490945260608401929092526080830152151560a090910152919050565b8035600481106120dd57600080fd5b6000806040838503121561226957600080fd5b612272836120c6565b91506121f760208401612247565b60006020828403121561229257600080fd5b610e54826120c6565b602081016122a98284611ed2565b92915050565b6000806000806000608086880312156122c757600080fd5b853567ffffffffffffffff8111156122de57600080fd5b6122ea88828901611f46565b90965094506122fd9050602087016120c6565b94979396509394604081013594506060013592915050565b60008060006060848603121561232a57600080fd5b612333846120c6565b925061234160208501612247565b9150604084013590509250925092565b6001600160a01b038716815260c0810161236e6020830188611ed2565b85604083015284606083015283608083015261238d60a0830184611ee6565b979650505050505050565b60e0815260006123ab60e083018a612029565b6001600160a01b0398909816602083015250604081019590955260608501939093526080840191909152151560a0830152151560c090910152919050565b6000602082840312156123fb57600080fd5b813560ff81168114610e5457600080fd5b634e487b7160e01b600052604160045260246000fd5b600181811c9082168061243657607f821691505b60208210810361245657634e487b7160e01b600052602260045260246000fd5b50919050565b601f8211156124a257600081815260208120601f850160051c810160208610156124835750805b601f850160051c820191505b81811015610d315782815560010161248f565b505050565b815167ffffffffffffffff8111156124c1576124c161240c565b6124d5816124cf8454612422565b8461245c565b602080601f83116001811461250a57600084156124f25750858301515b600019600386901b1c1916600185901b178555610d31565b600085815260208120601f198616915b828110156125395788860151825594840194600190910190840161251a565b50858210156125575787850151600019600388901b60f8161c191681555b5050505050600190811b01905550565b634e487b7160e01b600052601160045260246000fd5b60006001820161258f5761258f612567565b5060010190565b81835281816020850137506000828201602090810191909152601f909101601f19169091010190565b6080815260006125d360808301898b612596565b82810360208401526125e681888a612596565b905082810360408401526125fb818688612596565b91505082606083015298975050505050505050565b602080825260159082015274149958dbdc9908191bd95cc81b9bdd08195e1a5cdd605a1b604082015260600190565b60208082526017908201527f50726f706f73616c20646f6573206e6f74206578697374000000000000000000604082015260600190565b60008261269357634e487b7160e01b600052601260045260246000fd5b500490565b808201808211156122a9576122a9612567565b6020815260006122a960208301601681527510dbdb9cd95b9d08191bd95cc81b9bdd08195e1a5cdd60521b602082015260400190565b6040815260008084546126f381612422565b8060408601526060600180841660008114612715576001811461272f57612760565b60ff1985168884015283151560051b880183019550612760565b8960005260208060002060005b868110156127575781548b820187015290840190820161273c565b8a018501975050505b50505050506020929092019290925292915050565b8183823760009101908152919050565b600080835461279381612422565b600182811680156127ab57600181146127c0576127ef565b60ff19841687528215158302870194506127ef565b8760005260208060002060005b858110156127e65781548a8201529084019082016127cd565b50505082870194505b50929695505050505050565b80820281158282048414176122a9576122a9612567565b608081526000612826608083018789612596565b602083019590955250604081019290925260609091015292915050565b604081016128518285611ed2565b8260208301529392505050565b606081526000612872606083018587612596565b82810360208401526128a781601681527510dbdb9cd95b9d08191bd95cc81b9bdd08195e1a5cdd60521b602082015260400190565b915050826040830152949350505050565b6060815260006128cc606083018587612596565b8281036020840152600f81526e10dbdb9cd95b9d081c995d9bdad959608a1b602082015260408101915050826040830152949350505050565b606081526000612919606083018587612596565b8281036020840152600f81526e10dbdb9cd95b9d08195e1c1a5c9959608a1b602082015260408101915050826040830152949350505050565b606081526000612966606083018587612596565b828103602084015260138152720a4cae6cac2e4c6d0cae440dad2e6dac2e8c6d606b1b602082015260408101915050826040830152949350505050565b6040815260006129b7604083018587612596565b905082602083015294935050505056fed4459a1e064160d6e3f216d1cc85b99bdc670d5d4d7342bb04fd6556f5bc7af61e9acfe4df89a29b2be615d44fd962d8ce1fd19ff4a74ddf5a9401a6a4a2a6d2a26469706673582212200ae0a8f682975183b98891f9a8d94f4ce90e260be57f28f89273524351808b1664736f6c63430008140033",
  "linkReferences": {},
  "deployedLinkReferences": {}
}