{
  "_format": "hh-sol-artifact-1",
  "contractName": "GenShareRegistry",
  "sourceName": "contracts/GenShareRegistry.sol",
  "abi": [
    {
      "inputs": [],
      "stateMutability": "nonpayable",
      "type": "constructor"
    },
    {
      "anonymous": false,
      "inputs": [
        {
          "indexed": false,
          "internalType": "string",
          "name": "pid",
          "type": "string"
        },
        {
          "indexed": true,
          "internalType": "address",
          "name": "researcher",
          "type": "address"
        },
        {
          "indexed": true,
          "internalType": "uint256",
          "name": "recordIndex",
          "type": "uint256"
        },
        {
          "indexed": false,
          "internalType": "string",
          "name": "reason",
          "type": "string"
        },
        {
          "indexed": false,
          "internalType": "uint256",
          "name": "timestamp",
          "type": "uint256"
        }
      ],
      "name": "AccessDenied",
      "type": "event"
    },
    {
      "anonymous": false,
      "inputs": [
        {
          "indexed": true,
          "internalType": "uint256",
          "name": "consentIndex",
          "type": "uint256"
        },
        {
          "indexed": false,
          "internalType": "string",
          "name": "pid",
          "type": "string"
        },
        {
          "indexed": true,
          "internalType": "address",
          "name": "researcher",
          "type": "address"
        },
        {
          "indexed": false,
          "internalType": "uint256",
          "name": "recordIndex",
          "type": "uint256"
        },
        {
          "indexed": false,
          "internalType": "uint256",
          "name": "grantedAt",
          "type": "uint256"
        },
        {
          "indexed": false,
          "internalType": "uint256",
          "name": "expiresAt",
          "type": "uint256"
        }
      ],
      "name": "ConsentGranted",
      "type": "event"
    },
    {
      "anonymous": false,
      "inputs": [
        {
          "indexed": true,
          "internalType": "uint256",
          "name": "consentIndex",
          "type": "uint256"
        },
        {
          "indexed": false,
          "internalType": "string",
          "name": "pid",
          "type": "string"
        },
        {
          "indexed": true,
          "internalType": "address",
          "name": "researcher",
          "type": "address"
        },
        {
          "indexed": false,
          "internalType": "uint256",
          "name": "timestamp",
          "type": "uint256"
        }
      ],
      "name": "ConsentRevoked",
      "type": "event"
    },
    {
      "anonymous": false,
      "inputs": [
        {
          "indexed": false,
          "internalType": "string",
          "name": "pid",
          "type": "string"
        },
        {
          "indexed": true,
          "internalType": "address",
          "name": "researcher",
          "type": "address"
        },
        {
          "indexed": true,
          "internalType": "uint256",
          "name": "recordIndex",
          "type": "uint256"
        },
        {
          "indexed": true,
          "internalType": "uint256",
          "name": "consentIndex",
          "type": "uint256"
        },
        {
          "indexed": false,
          "internalType": "uint256",
          "name": "timestamp",
          "type": "uint256"
        }
      ],
      "name": "DataAccessed",
      "type": "event"
    },
    {
      "anonymous": false,
      "inputs": [
        {
          "indexed": true,
          "internalType": "uint256",
          "name": "recordIndex",
          "type": "uint256"
        },
        {
          "indexed": false,
          "internalType": "string",
          "name": "pid",
          "type": "string"
        },
        {
          "indexed": false,
          "internalType": "string",
          "name": "fileHash",
          "type": "string"
        },
        {
          "indexed": false,
          "internalType": "string",
          "name": "ipfsCID",
          "type": "string"
        },
        {
          "indexed": true,
          "internalType": "address",
          "name": "registeredBy",
          "type": "address"
        },
        {
          "indexed": false,
          "internalType": "uint256",
          "name": "timestamp",
          "type": "uint256"
        }
      ],
      "name": "GenomicDataRegistered",
      "type": "event"
    },
    {
      "anonymous": false,
      "inputs": [
        {
          "indexed": true,
          "internalType": "uint256",
          "name": "proposalId",
          "type": "uint256"
        },
        {
          "indexed": true,
          "internalType": "address",
          "name": "applicant",
          "type": "address"
        },
        {
          "indexed": false,
          "internalType": "enum GenShareRegistry.Role",
          "name": "role",
          "type": "uint8"
        }
      ],
      "name": "RegistrationApproved",
      "type": "event"
    },
    {
      "anonymous": false,
      "inputs": [
        {
          "indexed": true,
          "internalType": "uint256",
          "name": "proposalId",
          "type": "uint256"
        },
        {
          "indexed": true,
          "internalType": "address",
          "name": "applicant",
          "type": "address"
        },
        {
          "indexed": false,
          "internalType": "enum GenShareRegistry.Role",
          "name": "requestedRole",
          "type": "uint8"
        },
        {
          "indexed": false,
          "internalType": "uint256",
          "name": "deadline",
          "type": "uint256"
        }
      ],
      "name": "RegistrationProposed",
      "type": "event"
    },
    {
      "anonymous": false,
      "inputs": [
        {
          "indexed": true,
          "internalType": "uint256",
          "name": "proposalId",
          "type": "uint256"
        },
        {
          "indexed": true,
          "internalType": "address",
          "name": "applicant",
          "type": "address"
        },
        {
          "indexed": false,
          "internalType": "enum GenShareRegistry.Role",
          "name": "role",
          "type": "uint8"
        }
      ],
      "name": "RegistrationRejected",
      "type": "event"
    },
    {
      "anonymous": false,
      "inputs": [
        {
          "indexed": true,
          "internalType": "uint256",
          "name": "proposalId",
          "type": "uint256"
        },
        {
          "indexed": true,
          "internalType": "address",
          "name": "voter",
          "type": "address"
        },
        {
          "indexed": false,
          "internalType": "bool",
          "name": "approve",
          "type": "bool"
        }
      ],
      "name": "RegistrationVoted",
      "type": "event"
    },
    {
      "anonymous": false,
      "inputs": [
        {
          "indexed": true,
          "internalType": "address",
          "name": "account",
          "type": "address"
        },
        {
          "indexed": false,
          "internalType": "enum GenShareRegistry.Role",
          "name": "role",
          "type": "uint8"
        }
      ],
      "name": "RoleRegistered",
      "type": "event"
    },
    {
      "inputs": [],
      "name": "consentCount",
      "outputs": [
        {
          "internalType": "uint256",
          "name": "",
          "type": "uint256"
        }
      ],
      "stateMutability": "view",
      "type": "function"
    },
    {
      "inputs": [
        {
          "internalType": "uint256",
          "name": "",
          "type": "uint256"
        }
      ],
      "name": "consents",
      "outputs": [
        {
          "internalType": "string",
          "name": "pid",
          "type": "string"
        },
        {
          "internalType": "address",
          "name": "researcher",
          "type": "address"
        },
        {
          "internalType": "uint256",
          "name": "recordIndex",
          "type": "uint256"
        },
        {
          "internalType": "uint256",
          "name": "grantedAt",
          "type": "uint256"
        },
        {
          "internalType": "uint256",
          "name": "expiresAt",
          "type": "uint256"
        },
        {
          "internalType": "bool",
          "name": "revoked",
          "type": "bool"
        },
        {
          "internalType": "bool",
          "name": "exists",
          "type": "bool"
        }
      ],
      "stateMutability": "view",
      "type": "function"
    },
    {
      "inputs": [
        {
          "internalType": "uint256",
          "name": "_proposalId",
          "type": "uint256"
        }
      ],
      "name": "finalizeRegistration",
      "outputs": [],
      "stateMutability": "nonpayable",
      "type": "function"
    },
    {
      "inputs": [
        {
          "internalType": "uint256",
          "name": "",
          "type": "uint256"
        }
      ],
      "name": "genomicRecords",
      "outputs": [
        {
          "internalType": "string",
          "name": "pid",
          "type": "string"
        },
        {
          "internalType": "string",
          "name": "fileHash",
          "type": "string"
        },
        {
          "internalType": "string",
          "name": "ipfsCID",
          "type": "string"
        },
        {
          "internalType": "address",
          "name": "registeredBy",
          "type": "address"
        },
        {
          "internalType": "uint256",
          "name": "timestamp",
          "type": "uint256"
        },
        {
          "internalType": "bool",
          "name": "exists",
          "type": "bool"
        }
      ],
      "stateMutability": "view",
      "type": "function"
    },
    {
      "inputs": [
        {
          "internalType": "uint256",
          "name": "_index",
          "type": "uint256"
        }
      ],
      "name": "getConsent",
      "outputs": [
        {
          "internalType": "string",
          "name": "pid",
          "type": "string"
        },
        {
          "internalType": "address",
          "name": "researcher",
          "type": "address"
        },
        {
          "internalType": "uint256",
          "name": "recordIndex",
          "type": "uint256"
        },
        {
          "internalType": "uint256",
          "name": "grantedAt",
          "type": "uint256"
        },
        {
          "internalType": "uint256",
          "name": "expiresAt",
          "type": "uint256"
        },
        {
          "internalType": "bool",
          "name": "revoked",
          "type": "bool"
        }
      ],
      "stateMutability": "view",
      "type": "function"
    },
    {
      "inputs": [
        {
          "internalType": "uint256",
          "name": "_index",
          "type": "uint256"
        }
      ],
      "name": "getGenomicRecord",
      "outputs": [
        {
          "internalType": "string",
          "name": "pid",
          "type": "string"
        },
        {
          "internalType": "string",
          "name": "fileHash",
          "type": "string"
        },
        {
          "internalType": "string",
          "name": "ipfsCID",
          "type": "string"
        },
        {
          "internalType": "address",
          "name": "registeredBy",
          "type": "address"
        },
        {
          "internalType": "uint256",
          "name": "timestamp",
          "type": "uint256"
        }
      ],
      "stateMutability": "view",
      "type": "function"
    },
    {
      "inputs": [
        {
          "internalType": "uint256",
          "name": "_proposalId",
          "type": "uint256"
        }
      ],
      "name": "getProposal",
      "outputs": [
        {
          "internalType": "address",
          "name": "applicant",
          "type": "address"
        },
        {
          "internalType": "enum GenShareRegistry.Role",
          "name": "requestedRole",
          "type": "uint8"
        },
        {
          "internalType": "uint256",
          "name": "approveCount",
          "type": "uint256"
        },
        {
          "internalType": "uint256",
          "name": "rejectCount",
          "type": "uint256"
        },
        {
          "internalType": "uint256",
          "name": "deadline",
          "type": "uint256"
        },
        {
          "internalType": "enum GenShareRegistry.ProposalStatus",
          "name": "status",
          "type": "uint8"
        }
      ],
      "stateMutability": "view",
      "type": "function"
    },
    {
      "inputs": [
        {
          "internalType": "string",
          "name": "_pid",
          "type": "string"
        },
        {
          "internalType": "address",
          "name": "_researcher",
          "type": "address"
        },
        {
          "internalType": "uint256",
          "name": "_recordIndex",
          "type": "uint256"
        },
        {
          "internalType": "uint256",
          "name": "_durationDays",
          "type": "uint256"
        }
      ],
      "name": "grantConsent",
      "outputs": [
        {
          "internalType": "uint256",
          "name": "",
          "type": "uint256"
        }
      ],
      "stateMutability": "nonpayable",
      "type": "function"
    },
    {
      "inputs": [
        {
          "internalType": "uint256",
          "name": "",
          "type": "uint256"
        },
        {
          "internalType": "address",
          "name": "",
          "type": "address"
        }
      ],
      "name": "hasVoted",
      "outputs": [
        {
          "internalType": "bool",
          "name": "",
          "type": "bool"
        }
      ],
      "stateMutability": "view",
      "type": "function"
    },
    {
      "inputs": [
        {
          "internalType": "uint256",
          "name": "_consentIndex",
          "type": "uint256"
        }
      ],
      "name": "isConsentActive",
      "outputs": [
        {
          "internalType": "bool",
          "name": "",
          "type": "bool"
        }
      ],
      "stateMutability": "view",
      "type": "function"
    },
    {
      "inputs": [
        {
          "internalType": "string",
          "name": "_pid",
          "type": "string"
        },
        {
          "internalType": "address",
          "name": "_researcher",
          "type": "address"
        },
        {
          "internalType": "uint256",
          "name": "_recordIndex",
          "type": "uint256"
        },
        {
          "internalType": "uint256",
          "name": "_consentIndex",
          "type": "uint256"
        }
      ],
      "name": "logAccess",
      "outputs": [
        {
          "internalType": "bool",
          "name": "",
          "type": "bool"
        }
      ],
      "stateMutability": "nonpayable",
      "type": "function"
    },
    {
      "inputs": [
        {
          "internalType": "uint8",
          "name": "",
          "type": "uint8"
        }
      ],
      "name": "memberCount",
      "outputs": [
        {
          "internalType": "uint256",
          "name": "",
          "type": "uint256"
        }
      ],
      "stateMutability": "view",
      "type": "function"
    },
    {
      "inputs": [],
      "name": "owner",
      "outputs": [
        {
          "internalType": "address",
          "name": "",
          "type": "address"
        }
      ],
      "stateMutability": "view",
      "type": "function"
    },
    {
      "inputs": [],
      "name": "proposalCount",
      "outputs": [
        {
          "internalType": "uint256",
          "name": "",
          "type": "uint256"
        }
      ],
      "stateMutability": "view",
      "type": "function"
    },
    {
      "inputs": [
        {
          "internalType": "uint256",
          "name": "",
          "type": "uint256"
        }
      ],
      "name": "proposals",
      "outputs": [
        {
          "internalType": "address",
          "name": "applicant",
          "type": "address"
        },
        {
          "internalType": "enum GenShareRegistry.Role",
          "name": "requestedRole",
          "type": "uint8"
        },
        {
          "internalType": "uint256",
          "name": "approveCount",
          "type": "uint256"
        },
        {
          "internalType": "uint256",
          "name": "rejectCount",
          "type": "uint256"
        },
        {
          "internalType": "uint256",
          "name": "deadline",
          "type": "uint256"
        },
        {
          "internalType": "enum GenShareRegistry.ProposalStatus",
          "name": "status",
          "type": "uint8"
        },
        {
          "internalType": "bool",
          "name": "exists",
          "type": "bool"
        }
      ],
      "stateMutability": "view",
      "type": "function"
    },
    {
      "inputs": [
        {
          "internalType": "address",
          "name": "_applicant",
          "type": "address"
        },
        {
          "internalType": "enum GenShareRegistry.Role",
          "name": "_role",
          "type": "uint8"
        },
        {
          "internalType": "uint256",
          "name": "_votingDays",
          "type": "uint256"
        }
      ],
      "name": "proposeRegistration",
      "outputs": [
        {
          "internalType": "uint256",
          "name": "",
          "type": "uint256"
        }
      ],
      "stateMutability": "nonpayable",
      "type": "function"
    },
    {
      "inputs": [],
      "name": "recordCount",
      "outputs": [
        {
          "internalType": "uint256",
          "name": "",
          "type": "uint256"
        }
      ],
      "stateMutability": "view",
      "type": "function"
    },
    {
      "inputs": [
        {
          "internalType": "string",
          "name": "_pid",
          "type": "string"
        },
        {
          "internalType": "string",
          "name": "_fileHash",
          "type": "string"
        },
        {
          "internalType": "string",
          "name": "_ipfsCID",
          "type": "string"
        }
      ],
      "name": "registerGenomicData",
      "outputs": [
        {
          "internalType": "uint256",
          "name": "",
          "type": "uint256"
        }
      ],
      "stateMutability": "nonpayable",
      "type": "function"
    },
    {
      "inputs": [
        {
          "internalType": "address",
          "name": "_account",
          "type": "address"
        },
        {
          "internalType": "enum GenShareRegistry.Role",
          "name": "_role",
          "type": "uint8"
        }
      ],
      "name": "registerRole",
      "outputs": [],
      "stateMutability": "nonpayable",
      "type": "function"
    },
    {
      "inputs": [
        {
          "internalType": "uint256",
          "name": "_consentIndex",
          "type": "uint256"
        }
      ],
      "name": "revokeConsent",
      "outputs": [],
      "stateMutability": "nonpayable",
      "type": "function"
    },
    {
      "inputs": [
        {
          "internalType": "address",
          "name": "",
          "type": "address"
        }
      ],
      "name": "roles",
      "outputs": [
        {
          "internalType": "enum GenShareRegistry.Role",
          "name": "",
          "type": "uint8"
        }
      ],
      "stateMutability": "view",
      "type": "function"
    },
    {
      "inputs": [
        {
          "internalType": "uint256",
          "name": "_recordIndex",
          "type": "uint256"
        },
        {
          "internalType": "string",
          "name": "_fileHash",
          "type": "string"
        }
      ],
      "name": "verifyIntegrity",
      "outputs": [
        {
          "internalType": "bool",
          "name": "matches",
          "type": "bool"
        }
      ],
      "stateMutability": "view",
      "type": "function"
    },
    {
      "inputs": [
        {
          "internalType": "uint256",
          "name": "_proposalId",
          "type": "uint256"
        },
        {
          "internalType": "bool",
          "name": "_approve",
          "type": "bool"
        }
      ],
      "name": "voteOnRegistration",
      "outputs": [],
      "stateMutability": "nonpayable",
      "type": "function"
    }
  ],
  "bytecode": "0x608060405234801561001057600080fd5b50600080546001600160a01b0319163317905561298f806100326000396000f3fe608060405234801561001057600080fd5b506004361061014d5760003560e01c8063861a9066116100c3578063bb8b0e5b1161007c578063bb8b0e5b1461038f578063c7f758a8146103a2578063d557d53a146103c7578063da35c664146103ed578063da9ee29f146103f6578063f9de98e11461041657600080fd5b8063861a9066146102f25780638da5cb5b14610305578063900407bc146103305780639937464214610339578063b11053ad14610369578063bad34b2f1461037c57600080fd5b80631edb9197116101155780631edb91971461024b578063205bb9631461025457806332c4eac1146102675780633b2c9bfc1461028c578063438596321461029f5780637a0e09aa146102cd57600080fd5b8063013cf08b146101525780630acc207e146101ce57806310b3140d146101ef57806316a0042c146102135780631e1230f014610228575b600080fd5b6101b2610160366004611dff565b6004602081905260009182526040909120805460018201546002830154600384015493909401546001600160a01b0383169460ff600160a01b9094048416949293909291808216916101009091041687565b6040516101c59796959493929190611e52565b60405180910390f35b6101e16101dc366004611eeb565b610429565b6040519081526020016101c5565b6102026101fd366004611dff565b6105fb565b6040516101c5959493929190611fcb565b610226610221366004611dff565b61081b565b005b61023b610236366004611dff565b6108fa565b60405190151581526020016101c5565b6101e160085481565b61023b610262366004612022565b61093d565b61027a610275366004611dff565b6109b7565b6040516101c59695949392919061206e565b61022661029a3660046120d1565b610b92565b61023b6102ad366004612122565b600560209081526000928352604080842090915290825290205460ff1681565b6102e06102db366004611dff565b61100c565b6040516101c59695949392919061214e565b6102266103003660046121a4565b61111f565b600054610318906001600160a01b031681565b6040516001600160a01b0390911681526020016101c5565b6101e160065481565b61035c6103473660046121ce565b60016020526000908152604090205460ff1681565b6040516101c591906121e9565b610226610377366004611dff565b6112a6565b6101e161038a3660046121fd565b611519565b6101e161039d366004612263565b611722565b6103b56103b0366004611dff565b611b42565b6040516101c59695949392919061229f565b6103da6103d5366004611dff565b611bc7565b6040516101c597969594939291906122e6565b6101e160035481565b6101e1610404366004612337565b60026020526000908152604090205481565b61023b6104243660046121fd565b611c9a565b6006546040805160e06020601f8a01819004028201810190925260c08101888152600093928291908b908b9081908501838280828437600092019190915250505090825250604080516020601f8a0181900481028201810190925288815291810191908990899081908401838280828437600092019190915250505090825250604080516020601f88018190048102820181019092528681529181019190879087908190840183828082843760009201829052509385525050336020808501919091524260408086019190915260016060909501949094528583526007905250208151819061051890826123f9565b506020820151600182019061052d90826123f9565b506040820151600282019061054290826123f9565b5060608201516003820180546001600160a01b0319166001600160a01b039092169190911790556080820151600482015560a0909101516005909101805460ff19169115159190911790556006805490600061059d836124cf565b9190505550336001600160a01b0316817f507881d9472ba70f599c171f42b26cd4ab35a569fd366cbd11c9dc6ee20c1b9b8a8a8a8a8a8a426040516105e89796959493929190612511565b60405180910390a3979650505050505050565b600081815260076020526040812060058101546060928392839282919060ff166106405760405162461bcd60e51b815260040161063790612562565b60405180910390fd5b6003810154600482015482548392600184019260028501926001600160a01b0390921691859061066f90612370565b80601f016020809104026020016040519081016040528092919081815260200182805461069b90612370565b80156106e85780601f106106bd576101008083540402835291602001916106e8565b820191906000526020600020905b8154815290600101906020018083116106cb57829003601f168201915b505050505094508380546106fb90612370565b80601f016020809104026020016040519081016040528092919081815260200182805461072790612370565b80156107745780601f1061074957610100808354040283529160200191610774565b820191906000526020600020905b81548152906001019060200180831161075757829003601f168201915b5050505050935082805461078790612370565b80601f01602080910402602001604051908101604052809291908181526020018280546107b390612370565b80156108005780601f106107d557610100808354040283529160200191610800565b820191906000526020600020905b8154815290600101906020018083116107e357829003601f168201915b50505050509250955095509550955095505091939590929450565b60008181526009602052604090206005810154610100900460ff166108525760405162461bcd60e51b815260040161063790612591565b600581015460ff16156108995760405162461bcd60e51b815260206004820152600f60248201526e105b1c9958591e481c995d9bdad959608a1b6044820152606401610637565b60058101805460ff191660019081179091558101546040516001600160a01b039091169083907f046822d776370604e191182e5581386e4e1096af80846ca3940e7a23f140bced906108ee90859042906125c7565b60405180910390a35050565b60008181526009602052604081206005810154610100900460ff1680156109265750600581015460ff16155b8015610936575080600401544211155b9392505050565b60008381526007602052604081206005015460ff1661096e5760405162461bcd60e51b815260040161063790612562565b828260405161097e92919061265b565b60408051918290038220600087815260076020529190912090916109a5916001019061266b565b60405180910390201490509392505050565b6007602052600090815260409020805481906109d290612370565b80601f01602080910402602001604051908101604052809291908181526020018280546109fe90612370565b8015610a4b5780601f10610a2057610100808354040283529160200191610a4b565b820191906000526020600020905b815481529060010190602001808311610a2e57829003601f168201915b505050505090806001018054610a6090612370565b80601f0160208091040260200160405190810160405280929190818152602001828054610a8c90612370565b8015610ad95780601f10610aae57610100808354040283529160200191610ad9565b820191906000526020600020905b815481529060010190602001808311610abc57829003601f168201915b505050505090806002018054610aee90612370565b80601f0160208091040260200160405190810160405280929190818152602001828054610b1a90612370565b8015610b675780601f10610b3c57610100808354040283529160200191610b67565b820191906000526020600020905b815481529060010190602001808311610b4a57829003601f168201915b505050506003830154600484015460059094015492936001600160a01b039091169290915060ff1686565b600082815260046020819052604090912090810154610100900460ff16610bcb5760405162461bcd60e51b8152600401610637906126e1565b6000600482015460ff166002811115610be657610be6611e18565b14610c335760405162461bcd60e51b815260206004820152601960248201527f50726f706f73616c20616c7265616479207265736f6c766564000000000000006044820152606401610637565b8060030154421115610c7d5760405162461bcd60e51b8152602060048201526013602482015272159bdd1a5b99c81c195c9a5bd908195b991959606a1b6044820152606401610637565b8054600160a01b900460ff166003811115610c9a57610c9a611e18565b3360009081526001602052604090205460ff166003811115610cbe57610cbe611e18565b14610d0b5760405162461bcd60e51b815260206004820152601b60248201527f4d75737420686f6c642073616d6520726f6c6520746f20766f746500000000006044820152606401610637565b600083815260056020908152604080832033845290915290205460ff1615610d655760405162461bcd60e51b815260206004820152600d60248201526c105b1c9958591e481d9bdd1959609a1b6044820152606401610637565b60008381526005602090815260408083203384529091529020805460ff191660011790558115610dab57600181018054906000610da1836124cf565b9190505550610dc3565b600281018054906000610dbd836124cf565b91905055505b6040518215158152339084907f54df9f13d0fba24181a5d64acb9ef191b5eb43f5629b164d326282d618f3e3449060200160405180910390a380546000906002908290600160a01b900460ff166003811115610e2157610e21611e18565b60ff16815260208101919091526040016000908120549150610e44600283612718565b610e4f90600161273a565b905080836001015410610f97576004830180546001919060ff19168280021790555082546001600160a01b03811660009081526001602081905260409091208054600160a01b90930460ff1692909160ff1990911690836003811115610eb757610eb7611e18565b02179055508254600290600090600160a01b900460ff166003811115610edf57610edf611e18565b60ff16815260208101919091526040016000908120805491610f00836124cf565b909155505082546040516001600160a01b0382169160008051602061293a83398151915291610f3991600160a01b900460ff16906121e9565b60405180910390a282546040516001600160a01b0382169187917ffdb7e11145e15b9f4f6cbc27d43097bfe95fd3b1cd21b5fbcf033f50e350066c91610f8a91600160a01b90910460ff16906121e9565b60405180910390a3611005565b8083600201541061100557600483018054600260ff1990911617905582546040516001600160a01b0382169187917f1cf71c85a43a7a1c0a432bd307c6117bf702d4a7aa72ed16c7c5ab22a59ad38391610ffc91600160a01b90910460ff16906121e9565b60405180910390a35b5050505050565b6000818152600960205260408120600581015460609291829182918291829190610100900460ff166110505760405162461bcd60e51b815260040161063790612591565b60018101546002820154600383015460048401546005850154855486956001600160a01b03169493929160ff1690869061108990612370565b80601f01602080910402602001604051908101604052809291908181526020018280546110b590612370565b80156111025780601f106110d757610100808354040283529160200191611102565b820191906000526020600020905b8154815290600101906020018083116110e557829003601f168201915b505050505095509650965096509650965096505091939550919395565b6000546001600160a01b031633146111665760405162461bcd60e51b815260206004820152600a60248201526927b7363c9037bbb732b960b11b6044820152606401610637565b600081600381111561117a5761117a611e18565b036111c75760405162461bcd60e51b815260206004820152601760248201527f43616e6e6f742061737369676e204e6f6e6520726f6c650000000000000000006044820152606401610637565b6001600160a01b03821660009081526001602052604081205460ff1660038111156111f4576111f4611e18565b03611236576002600082600381111561120f5761120f611e18565b60ff16815260208101919091526040016000908120805491611230836124cf565b91905055505b6001600160a01b03821660009081526001602081905260409091208054839260ff199091169083600381111561126e5761126e611e18565b0217905550816001600160a01b031660008051602061293a8339815191528260405161129a91906121e9565b60405180910390a25050565b600081815260046020819052604090912090810154610100900460ff166112df5760405162461bcd60e51b8152600401610637906126e1565b6000600482015460ff1660028111156112fa576112fa611e18565b1461133a5760405162461bcd60e51b815260206004820152601060248201526f105b1c9958591e481c995cdbdb1d995960821b6044820152606401610637565b806003015442116113815760405162461bcd60e51b81526020600482015260116024820152702b37ba34b7339039ba34b6361037b832b760791b6044820152606401610637565b8060020154816001015411156114bf576004810180546001919060ff19168280021790555080546001600160a01b03811660009081526001602081905260409091208054600160a01b90930460ff1692909160ff19909116908360038111156113ec576113ec611e18565b02179055508054600290600090600160a01b900460ff16600381111561141457611414611e18565b60ff16815260208101919091526040016000908120805491611435836124cf565b909155505080546040516001600160a01b0382169160008051602061293a8339815191529161146e91600160a01b900460ff16906121e9565b60405180910390a280546040516001600160a01b0382169184917ffdb7e11145e15b9f4f6cbc27d43097bfe95fd3b1cd21b5fbcf033f50e350066c916108ee91600160a01b90910460ff16906121e9565b600481018054600260ff1990911617905580546040516001600160a01b0382169184917f1cf71c85a43a7a1c0a432bd307c6117bf702d4a7aa72ed16c7c5ab22a59ad383916108ee91600160a01b90910460ff16906121e9565b60008281526007602052604081206005015460ff1661154a5760405162461bcd60e51b815260040161063790612562565b600082116115915760405162461bcd60e51b815260206004820152601460248201527304475726174696f6e206d757374206265203e20360641b6044820152606401610637565b60085460006115a3846201518061274d565b6115ad904261273a565b604080516101006020601f8c01819004028201810190925260e081018a81529293509182918b908b908190850183828082843760009201829052509385525050506001600160a01b03891660208084019190915260408084018a90524260608501526080840186905260a08401839052600160c09094019390935285825260099052208151819061163e90826123f9565b5060208201516001820180546001600160a01b039092166001600160a01b031990921691909117905560408201516002820155606082015160038201556080820151600482015560a08201516005909101805460c09093015115156101000261ff00199215159290921661ffff1990931692909217179055600880549060006116c6836124cf565b9190505550856001600160a01b0316827f0c78594ef217f41cf185e25d2754d568d45b23a830b1dccefd45ae0aa05d70c28a8a89428760405161170d959493929190612764565b60405180910390a35090505b95945050505050565b6000600283600381111561173857611738611e18565b14806117555750600383600381111561175357611753611e18565b145b6117a15760405162461bcd60e51b815260206004820152601c60248201527f4f6e6c79204c6162206f72205265736561726368657220726f6c6573000000006044820152606401610637565b6001600160a01b03841660009081526001602052604081205460ff1660038111156117ce576117ce611e18565b146118105760405162461bcd60e51b8152602060048201526012602482015271416c726561647920686173206120726f6c6560701b6044820152606401610637565b600082116118605760405162461bcd60e51b815260206004820152601b60248201527f566f74696e67206475726174696f6e206d757374206265203e203000000000006044820152606401610637565b6003546000611872846201518061274d565b61187c904261273a565b90506040518060e00160405280876001600160a01b031681526020018660038111156118aa576118aa611e18565b81526020016000815260200160008152602001828152602001600060028111156118d6576118d6611e18565b8152600160209182015260008481526004825260409020825181546001600160a01b039091166001600160a01b031982168117835592840151919283916001600160a81b03191617600160a01b83600381111561193557611935611e18565b021790555060408201518160010155606082015181600201556080820151816003015560a08201518160040160006101000a81548160ff0219169083600281111561198257611982611e18565b021790555060c09190910151600490910180549115156101000261ff0019909216919091179055600380549060006119b9836124cf565b9190505550856001600160a01b0316827fc3761c607cdaac1aa357f04c10d0df99cf35aafc634da0b25c91b74b646a981b87846040516119fa929190612795565b60405180910390a360026000866003811115611a1857611a18611e18565b60ff1660ff16815260200190815260200160002054600003611b395760008281526004602081815260408084209092018054600160ff1991821681179092556001600160a01b038b1685529181905291909220805488939192911690836003811115611a8657611a86611e18565b021790555060026000866003811115611aa157611aa1611e18565b60ff16815260208101919091526040016000908120805491611ac2836124cf565b9190505550856001600160a01b031660008051602061293a83398151915286604051611aee91906121e9565b60405180910390a2856001600160a01b0316827ffdb7e11145e15b9f4f6cbc27d43097bfe95fd3b1cd21b5fbcf033f50e350066c87604051611b3091906121e9565b60405180910390a35b50949350505050565b60008181526004602081905260408220908101548291829182918291829190610100900460ff16611b855760405162461bcd60e51b8152600401610637906126e1565b80546001820154600283015460038401546004909401546001600160a01b0384169c60ff600160a01b90950485169c50929a5090985092965091169350915050565b600960205260009081526040902080548190611be290612370565b80601f0160208091040260200160405190810160405280929190818152602001828054611c0e90612370565b8015611c5b5780601f10611c3057610100808354040283529160200191611c5b565b820191906000526020600020905b815481529060010190602001808311611c3e57829003601f168201915b505050600184015460028501546003860154600487015460059097015495966001600160a01b0390931695919450925060ff8082169161010090041687565b60008181526009602052604081206005810154610100900460ff16611cf75783856001600160a01b031660008051602061291a833981519152898942604051611ce5939291906127b0565b60405180910390a36000915050611719565b600581015460ff1615611d305783856001600160a01b031660008051602061291a833981519152898942604051611ce59392919061280a565b8060040154421115611d685783856001600160a01b031660008051602061291a833981519152898942604051611ce593929190612857565b60018101546001600160a01b03868116911614611dab5783856001600160a01b031660008051602061291a833981519152898942604051611ce5939291906128a4565b8284866001600160a01b03167f598c81673d4c4421446f161f9ced18b89d81adb3ef7b0b6afabcfae11148cdc68a8a42604051611dea939291906128f5565b60405180910390a45060019695505050505050565b600060208284031215611e1157600080fd5b5035919050565b634e487b7160e01b600052602160045260246000fd5b60048110611e3e57611e3e611e18565b9052565b60038110611e3e57611e3e611e18565b6001600160a01b038816815260e08101611e6f6020830189611e2e565b866040830152856060830152846080830152611e8e60a0830185611e42565b82151560c083015298975050505050505050565b60008083601f840112611eb457600080fd5b50813567ffffffffffffffff811115611ecc57600080fd5b602083019150836020828501011115611ee457600080fd5b9250929050565b60008060008060008060608789031215611f0457600080fd5b863567ffffffffffffffff80821115611f1c57600080fd5b611f288a838b01611ea2565b90985096506020890135915080821115611f4157600080fd5b611f4d8a838b01611ea2565b90965094506040890135915080821115611f6657600080fd5b50611f7389828a01611ea2565b979a9699509497509295939492505050565b6000815180845260005b81811015611fab57602081850181015186830182015201611f8f565b506000602082860101526020601f19601f83011685010191505092915050565b60a081526000611fde60a0830188611f85565b8281036020840152611ff08188611f85565b905082810360408401526120048187611f85565b6001600160a01b039590951660608401525050608001529392505050565b60008060006040848603121561203757600080fd5b83359250602084013567ffffffffffffffff81111561205557600080fd5b61206186828701611ea2565b9497909650939450505050565b60c08152600061208160c0830189611f85565b82810360208401526120938189611f85565b905082810360408401526120a78188611f85565b6001600160a01b0396909616606084015250506080810192909252151560a0909101529392505050565b600080604083850312156120e457600080fd5b82359150602083013580151581146120fb57600080fd5b809150509250929050565b80356001600160a01b038116811461211d57600080fd5b919050565b6000806040838503121561213557600080fd5b8235915061214560208401612106565b90509250929050565b60c08152600061216160c0830189611f85565b6001600160a01b0397909716602083015250604081019490945260608401929092526080830152151560a090910152919050565b80356004811061211d57600080fd5b600080604083850312156121b757600080fd5b6121c083612106565b915061214560208401612195565b6000602082840312156121e057600080fd5b61093682612106565b602081016121f78284611e2e565b92915050565b60008060008060006080868803121561221557600080fd5b853567ffffffffffffffff81111561222c57600080fd5b61223888828901611ea2565b909650945061224b905060208701612106565b94979396509394604081013594506060013592915050565b60008060006060848603121561227857600080fd5b61228184612106565b925061228f60208501612195565b9150604084013590509250925092565b6001600160a01b038716815260c081016122bc6020830188611e2e565b8560408301528460608301528360808301526122db60a0830184611e42565b979650505050505050565b60e0815260006122f960e083018a611f85565b6001600160a01b0398909816602083015250604081019590955260608501939093526080840191909152151560a0830152151560c090910152919050565b60006020828403121561234957600080fd5b813560ff8116811461093657600080fd5b634e487b7160e01b600052604160045260246000fd5b600181811c9082168061238457607f821691505b6020821081036123a457634e487b7160e01b600052602260045260246000fd5b50919050565b601f8211156123f457600081815260208120601f850160051c810160208610156123d15750805b601f850160051c820191505b818110156123f0578281556001016123dd565b5050505b505050565b815167ffffffffffffffff8111156124135761241361235a565b612427816124218454612370565b846123aa565b602080601f83116001811461245c57600084156124445750858301515b600019600386901b1c1916600185901b1785556123f0565b600085815260208120601f198616915b8281101561248b5788860151825594840194600190910190840161246c565b50858210156124a95787850151600019600388901b60f8161c191681555b5050505050600190811b01905550565b634e487b7160e01b600052601160045260246000fd5b6000600182016124e1576124e16124b9565b5060010190565b81835281816020850137506000828201602090810191909152601f909101601f19169091010190565b60808152600061252560808301898b6124e8565b828103602084015261253881888a6124e8565b9050828103604084015261254d8186886124e8565b91505082606083015298975050505050505050565b602080825260159082015274149958dbdc9908191bd95cc81b9bdd08195e1a5cdd605a1b604082015260600190565b6020815260006121f760208301601681527510dbdb9cd95b9d08191bd95cc81b9bdd08195e1a5cdd60521b602082015260400190565b6040815260008084546125d981612370565b80604086015260606001808416600081146125fb576001811461261557612646565b60ff1985168884015283151560051b880183019550612646565b8960005260208060002060005b8681101561263d5781548b8201870152908401908201612622565b8a018501975050505b50505050506020929092019290925292915050565b8183823760009101908152919050565b600080835461267981612370565b6001828116801561269157600181146126a6576126d5565b60ff19841687528215158302870194506126d5565b8760005260208060002060005b858110156126cc5781548a8201529084019082016126b3565b50505082870194505b50929695505050505050565b60208082526017908201527f50726f706f73616c20646f6573206e6f74206578697374000000000000000000604082015260600190565b60008261273557634e487b7160e01b600052601260045260246000fd5b500490565b808201808211156121f7576121f76124b9565b80820281158282048414176121f7576121f76124b9565b6080815260006127786080830187896124e8565b602083019590955250604081019290925260609091015292915050565b604081016127a38285611e2e565b8260208301529392505050565b6060815260006127c46060830185876124e8565b82810360208401526127f981601681527510dbdb9cd95b9d08191bd95cc81b9bdd08195e1a5cdd60521b602082015260400190565b915050826040830152949350505050565b60608152600061281e6060830185876124e8565b8281036020840152600f81526e10dbdb9cd95b9d081c995d9bdad959608a1b602082015260408101915050826040830152949350505050565b60608152600061286b6060830185876124e8565b8281036020840152600f81526e10dbdb9cd95b9d08195e1c1a5c9959608a1b602082015260408101915050826040830152949350505050565b6060815260006128b86060830185876124e8565b828103602084015260138152720a4cae6cac2e4c6d0cae440dad2e6dac2e8c6d606b1b602082015260408101915050826040830152949350505050565b6040815260006129096040830185876124e8565b905082602083015294935050505056fed4459a1e064160d6e3f216d1cc85b99bdc670d5d4d7342bb04fd6556f5bc7af61e9acfe4df89a29b2be615d44fd962d8ce1fd19ff4a74ddf5a9401a6a4a2a6d2a2646970667358221220790905d2842d91f2f9d419a9ee20f7137b31ae6529d84ef1f5dc45344bb80a8f64736f6c63430008140033",
  "linkReferences": {},
  "deployedLinkReferences": {}
}