{
  "_format": "hh-sol-artifact-1",
  "contractName": "GenShareRegistry",
  "sourceName": "contracts/GenShareRegistry.sol",
  "abi": [
    {
      "inputs": [],
      "stateMutability": "nonpayable",
      "type": "constructor"
    },
    {
      "anonymous": false,
      "inputs": [
        {
          "indexed": false,
          "internalType": "string",
          "name": "pid",
          "type": "string"
        },
        {
          "indexed": true,
          "internalType": "address",
          "name": "researcher",
          "type": "address"
        },
        {
          "indexed": true,
          "internalType": "uint256",
          "name": "recordIndex",
          "type": "uint256"
        },
        {
          "indexed": false,
          "internalType": "string",
          "name": "reason",
          "type": "string"
        },
        {
          "indexed": false,
          "internalType": "uint256",
          "name": "timestamp",
          "type": "uint256"
        }
      ],
      "name": "AccessDenied",
      "type": "event"
    },
    {
      "anonymous": false,
      "inputs": [
        {
          "indexed": true,
          "internalType": "uint256",
          "name": "consentIndex",
          "type": "uint256"
        },
        {
          "indexed": false,
          "internalType": "string",
          "name": "pid",
          "type": "string"
        },
        {
          "indexed": true,
          "internalType": "address",
          "name": "researcher",
          "type": "address"
        },
        {
          "indexed": false,
          "internalType": "uint256",
          "name": "recordIndex",
          "type": "uint256"
        },
        {
          "indexed": false,
          "internalType": "uint256",
          "name": "grantedAt",
          "type": "uint256"
        },
        {
          "indexed": false,
          "internalType": "uint256",
          "name": "expiresAt",
          "type": "uint256"
        }
      ],
      "name": "ConsentGranted",
      "type": "event"
    },
    {
      "anonymous": false,
      "inputs": [
        {
          "indexed": true,
          "internalType": "uint256",
          "name": "consentIndex",
          "type": "uint256"
        },
        {
          "indexed": false,
          "internalType": "string",
          "name": "pid",
          "type": "string"
        },
        {
          "indexed": true,
          "internalType": "address",
          "name": "researcher",
          "type": "address"
        },
        {
          "indexed": false,
          "internalType": "uint256",
          "name": "timestamp",
          "type": "uint256"
        }
      ],
      "name": "ConsentRevoked",
      "type": "event"
    },
    {
      "anonymous": false,
      "inputs": [
        {
          "indexed": false,
          "internalType": "string",
          "name": "pid",
          "type": "string"
        },
        {
          "indexed": true,
          "internalType": "address",
          "name": "researcher",
          "type": "address"
        },
        {
          "indexed": true,
          "internalType": "uint256",
          "name": "recordIndex",
          "type": "uint256"
        },
        {
          "indexed": true,
          "internalType": "uint256",
          "name": "consentIndex",
          "type": "uint256"
        },
        {
          "indexed": false,
          "internalType": "uint256",
          "name": "timestamp",
          "type": "uint256"
        }
      ],
      "name": "DataAccessed",
      "type": "event"
    },
    {
      "anonymous": false,
      "inputs": [
        {
          "indexed": true,
          "internalType": "uint256",
          "name": "recordIndex",
          "type": "uint256"
        },
        {
          "indexed": false,
          "internalType": "string",
          "name": "pid",
          "type": "string"
        },
        {
          "indexed": false,
          "internalType": "string",
          "name": "fileHash",
          "type": "string"
        },
        {
          "indexed": false,
          "internalType": "string",
          "name": "ipfsCID",
          "type": "string"
        },
        {
          "indexed": true,
          "internalType": "address",
          "name": "registeredBy",
          "type": "address"
        },
        {
          "indexed": false,
          "internalType": "uint256",
          "name": "timestamp",
          "type": "uint256"
        }
      ],
      "name": "GenomicDataRegistered",
      "type": "event"
    },
    {
      "anonymous": false,
      "inputs": [
        {
          "indexed": true,
          "internalType": "address",
          "name": "account",
          "type": "address"
        },
        {
          "indexed": false,
          "internalType": "enum GenShareRegistry.Role",
          "name": "role",
          "type": "uint8"
        }
      ],
      "name": "RoleRegistered",
      "type": "event"
    },
    {
      "inputs": [],
      "name": "consentCount",
      "outputs": [
        {
          "internalType": "uint256",
          "name": "",
          "type": "uint256"
        }
      ],
      "stateMutability": "view",
      "type": "function"
    },
    {
      "inputs": [
        {
          "internalType": "uint256",
          "name": "",
          "type": "uint256"
        }
      ],
      "name": "consents",
      "outputs": [
        {
          "internalType": "string",
          "name": "pid",
          "type": "string"
        },
        {
          "internalType": "address",
          "name": "researcher",
          "type": "address"
        },
        {
          "internalType": "uint256",
          "name": "recordIndex",
          "type": "uint256"
        },
        {
          "internalType": "uint256",
          "name": "grantedAt",
          "type": "uint256"
        },
        {
          "internalType": "uint256",
          "name": "expiresAt",
          "type": "uint256"
        },
        {
          "internalType": "bool",
          "name": "revoked",
          "type": "bool"
        },
        {
          "internalType": "bool",
          "name": "exists",
          "type": "bool"
        }
      ],
      "stateMutability": "view",
      "type": "function"
    },
    {
      "inputs": [
        {
          "internalType": "uint256",
          "name": "",
          "type": "uint256"
        }
      ],
      "name": "genomicRecords",
      "outputs": [
        {
          "internalType": "string",
          "name": "pid",
          "type": "string"
        },
        {
          "internalType": "string",
          "name": "fileHash",
          "type": "string"
        },
        {
          "internalType": "string",
          "name": "ipfsCID",
          "type": "string"
        },
        {
          "internalType": "address",
          "name": "registeredBy",
          "type": "address"
        },
        {
          "internalType": "uint256",
          "name": "timestamp",
          "type": "uint256"
        },
        {
          "internalType": "bool",
          "name": "exists",
          "type": "bool"
        }
      ],
      "stateMutability": "view",
      "type": "function"
    },
    {
      "inputs": [
        {
          "internalType": "uint256",
          "name": "_index",
          "type": "uint256"
        }
      ],
      "name": "getConsent",
      "outputs": [
        {
          "internalType": "string",
          "name": "pid",
          "type": "string"
        },
        {
          "internalType": "address",
          "name": "researcher",
          "type": "address"
        },
        {
          "internalType": "uint256",
          "name": "recordIndex",
          "type": "uint256"
        },
        {
          "internalType": "uint256",
          "name": "grantedAt",
          "type": "uint256"
        },
        {
          "internalType": "uint256",
          "name": "expiresAt",
          "type": "uint256"
        },
        {
          "internalType": "bool",
          "name": "revoked",
          "type": "bool"
        }
      ],
      "stateMutability": "view",
      "type": "function"
    },
    {
      "inputs": [
        {
          "internalType": "uint256",
          "name": "_index",
          "type": "uint256"
        }
      ],
      "name": "getGenomicRecord",
      "outputs": [
        {
          "internalType": "string",
          "name": "pid",
          "type": "string"
        },
        {
          "internalType": "string",
          "name": "fileHash",
          "type": "string"
        },
        {
          "internalType": "string",
          "name": "ipfsCID",
          "type": "string"
        },
        {
          "internalType": "address",
          "name": "registeredBy",
          "type": "address"
        },
        {
          "internalType": "uint256",
          "name": "timestamp",
          "type": "uint256"
        }
      ],
      "stateMutability": "view",
      "type": "function"
    },
    {
      "inputs": [
        {
          "internalType": "string",
          "name": "_pid",
          "type": "string"
        },
        {
          "internalType": "address",
          "name": "_researcher",
          "type": "address"
        },
        {
          "internalType": "uint256",
          "name": "_recordIndex",
          "type": "uint256"
        },
        {
          "internalType": "uint256",
          "name": "_durationDays",
          "type": "uint256"
        }
      ],
      "name": "grantConsent",
      "outputs": [
        {
          "internalType": "uint256",
          "name": "",
          "type": "uint256"
        }
      ],
      "stateMutability": "nonpayable",
      "type": "function"
    },
    {
      "inputs": [
        {
          "internalType": "uint256",
          "name": "_consentIndex",
          "type": "uint256"
        }
      ],
      "name": "isConsentActive",
      "outputs": [
        {
          "internalType": "bool",
          "name": "",
          "type": "bool"
        }
      ],
      "stateMutability": "view",
      "type": "function"
    },
    {
      "inputs": [
        {
          "internalType": "string",
          "name": "_pid",
          "type": "string"
        },
        {
          "internalType": "address",
          "name": "_researcher",
          "type": "address"
        },
        {
          "internalType": "uint256",
          "name": "_recordIndex",
          "type": "uint256"
        },
        {
          "internalType": "uint256",
          "name": "_consentIndex",
          "type": "uint256"
        }
      ],
      "name": "logAccess",
      "outputs": [
        {
          "internalType": "bool",
          "name": "",
          "type": "bool"
        }
      ],
      "stateMutability": "nonpayable",
      "type": "function"
    },
    {
      "inputs": [],
      "name": "owner",
      "outputs": [
        {
          "internalType": "address",
          "name": "",
          "type": "address"
        }
      ],
      "stateMutability": "view",
      "type": "function"
    },
    {
      "inputs": [],
      "name": "recordCount",
      "outputs": [
        {
          "internalType": "uint256",
          "name": "",
          "type": "uint256"
        }
      ],
      "stateMutability": "view",
      "type": "function"
    },
    {
      "inputs": [
        {
          "internalType": "string",
          "name": "_pid",
          "type": "string"
        },
        {
          "internalType": "string",
          "name": "_fileHash",
          "type": "string"
        },
        {
          "internalType": "string",
          "name": "_ipfsCID",
          "type": "string"
        }
      ],
      "name": "registerGenomicData",
      "outputs": [
        {
          "internalType": "uint256",
          "name": "",
          "type": "uint256"
        }
      ],
      "stateMutability": "nonpayable",
      "type": "function"
    },
    {
      "inputs": [
        {
          "internalType": "address",
          "name": "_account",
          "type": "address"
        },
        {
          "internalType": "enum GenShareRegistry.Role",
          "name": "_role",
          "type": "uint8"
        }
      ],
      "name": "registerRole",
      "outputs": [],
      "stateMutability": "nonpayable",
      "type": "function"
    },
    {
      "inputs": [
        {
          "internalType": "uint256",
          "name": "_consentIndex",
          "type": "uint256"
        }
      ],
      "name": "revokeConsent",
      "outputs": [],
      "stateMutability": "nonpayable",
      "type": "function"
    },
    {
      "inputs": [
        {
          "internalType": "address",
          "name": "",
          "type": "address"
        }
      ],
      "name": "roles",
      "outputs": [
        {
          "internalType": "enum GenShareRegistry.Role",
          "name": "",
          "type": "uint8"
        }
      ],
      "stateMutability": "view",
      "type": "function"
    },
    {
      "inputs": [
        {
          "internalType": "uint256",
          "name": "_recordIndex",
          "type": "uint256"
        },
        {
          "internalType": "string",
          "name": "_fileHash",
          "type": "string"
        }
      ],
      "name": "verifyIntegrity",
      "outputs": [
        {
          "internalType": "bool",
          "name": "matches",
          "type": "bool"
        }
      ],
      "stateMutability": "view",
      "type": "function"
    }
  ],
  "bytecode": "0x608060405234801561001057600080fd5b50600080546001600160a01b03191633179055611a32806100326000396000f3fe608060405234801561001057600080fd5b50600436106100f55760003560e01c80637a0e09aa1161009757806399374642116100665780639937464214610229578063bad34b2f14610259578063d557d53a1461026c578063f9de98e11461029257600080fd5b80637a0e09aa146101bd578063861a9066146101e25780638da5cb5b146101f5578063900407bc1461022057600080fd5b80631e1230f0116100d35780631e1230f0146101595780631edb91971461017c578063205bb9631461018557806332c4eac11461019857600080fd5b80630acc207e146100fa57806310b3140d1461012057806316a0042c14610144575b600080fd5b61010d6101083660046110de565b6102a5565b6040519081526020015b60405180910390f35b61013361012e366004611178565b610477565b6040516101179594939291906111d7565b610157610152366004611178565b610697565b005b61016c610167366004611178565b610778565b6040519015158152602001610117565b61010d60045481565b61016c61019336600461122e565b6107bc565b6101ab6101a6366004611178565b610836565b6040516101179695949392919061127a565b6101d06101cb366004611178565b610a11565b604051610117969594939291906112dd565b6101576101f0366004611340565b610b25565b600054610208906001600160a01b031681565b6040516001600160a01b039091168152602001610117565b61010d60025481565b61024c61023736600461137b565b60016020526000908152604090205460ff1681565b60405161011791906113ac565b61010d6102673660046113d4565b610c4f565b61027f61027a366004611178565b610e5c565b604051610117979695949392919061143a565b61016c6102a03660046113d4565b610f2f565b6002546040805160e06020601f8a01819004028201810190925260c08101888152600093928291908b908b9081908501838280828437600092019190915250505090825250604080516020601f8a0181900481028201810190925288815291810191908990899081908401838280828437600092019190915250505090825250604080516020601f880181900481028201810190925286815291810191908790879081908401838280828437600092018290525093855250503360208085019190915242604080860191909152600160609095019490945285835260039052502081518190610394908261152a565b50602082015160018201906103a9908261152a565b50604082015160028201906103be908261152a565b5060608201516003820180546001600160a01b0319166001600160a01b039092169190911790556080820151600482015560a0909101516005909101805460ff19169115159190911790556002805490600061041983611600565b9190505550336001600160a01b0316817f507881d9472ba70f599c171f42b26cd4ab35a569fd366cbd11c9dc6ee20c1b9b8a8a8a8a8a8a426040516104649796959493929190611642565b60405180910390a3979650505050505050565b600081815260036020526040812060058101546060928392839282919060ff166104bc5760405162461bcd60e51b81526004016104b390611693565b60405180910390fd5b6003810154600482015482548392600184019260028501926001600160a01b039092169185906104eb906114a1565b80601f0160208091040260200160405190810160405280929190818152602001828054610517906114a1565b80156105645780601f1061053957610100808354040283529160200191610564565b820191906000526020600020905b81548152906001019060200180831161054757829003601f168201915b50505050509450838054610577906114a1565b80601f01602080910402602001604051908101604052809291908181526020018280546105a3906114a1565b80156105f05780601f106105c5576101008083540402835291602001916105f0565b820191906000526020600020905b8154815290600101906020018083116105d357829003601f168201915b50505050509350828054610603906114a1565b80601f016020809104026020016040519081016040528092919081815260200182805461062f906114a1565b801561067c5780601f106106515761010080835404028352916020019161067c565b820191906000526020600020905b81548152906001019060200180831161065f57829003601f168201915b50505050509250955095509550955095505091939590929450565b600081815260056020819052604090912090810154610100900460ff166106d05760405162461bcd60e51b81526004016104b3906116c2565b600581015460ff16156107175760405162461bcd60e51b815260206004820152600f60248201526e105b1c9958591e481c995d9bdad959608a1b60448201526064016104b3565b60058101805460ff191660019081179091558101546040516001600160a01b039091169083907f046822d776370604e191182e5581386e4e1096af80846ca3940e7a23f140bced9061076c90859042906116fe565b60405180910390a35050565b6000818152600560208190526040822090810154610100900460ff1680156107a55750600581015460ff16155b80156107b5575080600401544211155b9392505050565b60008381526003602052604081206005015460ff166107ed5760405162461bcd60e51b81526004016104b390611693565b82826040516107fd929190611792565b604080519182900382206000878152600360205291909120909161082491600101906117a2565b60405180910390201490509392505050565b600360205260009081526040902080548190610851906114a1565b80601f016020809104026020016040519081016040528092919081815260200182805461087d906114a1565b80156108ca5780601f1061089f576101008083540402835291602001916108ca565b820191906000526020600020905b8154815290600101906020018083116108ad57829003601f168201915b5050505050908060010180546108df906114a1565b80601f016020809104026020016040519081016040528092919081815260200182805461090b906114a1565b80156109585780601f1061092d57610100808354040283529160200191610958565b820191906000526020600020905b81548152906001019060200180831161093b57829003601f168201915b50505050509080600201805461096d906114a1565b80601f0160208091040260200160405190810160405280929190818152602001828054610999906114a1565b80156109e65780601f106109bb576101008083540402835291602001916109e6565b820191906000526020600020905b8154815290600101906020018083116109c957829003601f168201915b505050506003830154600484015460059094015492936001600160a01b039091169290915060ff1686565b600081815260056020819052604082209081015460609291829182918291829190610100900460ff16610a565760405162461bcd60e51b81526004016104b3906116c2565b60018101546002820154600383015460048401546005850154855486956001600160a01b03169493929160ff16908690610a8f906114a1565b80601f0160208091040260200160405190810160405280929190818152602001828054610abb906114a1565b8015610b085780601f10610add57610100808354040283529160200191610b08565b820191906000526020600020905b815481529060010190602001808311610aeb57829003601f168201915b505050505095509650965096509650965096505091939550919395565b6000546001600160a01b03163314610b6c5760405162461bcd60e51b815260206004820152600a60248201526927b7363c9037bbb732b960b11b60448201526064016104b3565b6000816003811115610b8057610b80611396565b03610bcd5760405162461bcd60e51b815260206004820152601760248201527f43616e6e6f742061737369676e204e6f6e6520726f6c6500000000000000000060448201526064016104b3565b6001600160a01b03821660009081526001602081905260409091208054839260ff1990911690836003811115610c0557610c05611396565b0217905550816001600160a01b03167f1e9acfe4df89a29b2be615d44fd962d8ce1fd19ff4a74ddf5a9401a6a4a2a6d282604051610c4391906113ac565b60405180910390a25050565b60008281526003602052604081206005015460ff16610c805760405162461bcd60e51b81526004016104b390611693565b60008211610cc75760405162461bcd60e51b815260206004820152601460248201527304475726174696f6e206d757374206265203e20360641b60448201526064016104b3565b6004546000610cd98462015180611818565b610ce3904261182f565b604080516101006020601f8c01819004028201810190925260e081018a81529293509182918b908b908190850183828082843760009201829052509385525050506001600160a01b03891660208084019190915260408084018a90524260608501526080840186905260a08401839052600160c090940193909352858252600590522081518190610d74908261152a565b5060208201516001820180546001600160a01b0319166001600160a01b039092169190911790556040820151600282015560608201516003820155608082015160048083019190915560a08301516005909201805460c09094015161ffff1990941692151561ff00191692909217610100931515939093029290921790558054906000610e0083611600565b9190505550856001600160a01b0316827f0c78594ef217f41cf185e25d2754d568d45b23a830b1dccefd45ae0aa05d70c28a8a894287604051610e47959493929190611842565b60405180910390a35090505b95945050505050565b600560205260009081526040902080548190610e77906114a1565b80601f0160208091040260200160405190810160405280929190818152602001828054610ea3906114a1565b8015610ef05780601f10610ec557610100808354040283529160200191610ef0565b820191906000526020600020905b815481529060010190602001808311610ed357829003601f168201915b505050600184015460028501546003860154600487015460059097015495966001600160a01b0390931695919450925060ff8082169161010090041687565b6000818152600560208190526040822090810154610100900460ff16610f8d5783856001600160a01b03166000805160206119dd833981519152898942604051610f7b93929190611873565b60405180910390a36000915050610e53565b600581015460ff1615610fc65783856001600160a01b03166000805160206119dd833981519152898942604051610f7b939291906118cd565b8060040154421115610ffe5783856001600160a01b03166000805160206119dd833981519152898942604051610f7b9392919061191a565b60018101546001600160a01b038681169116146110415783856001600160a01b03166000805160206119dd833981519152898942604051610f7b93929190611967565b8284866001600160a01b03167f598c81673d4c4421446f161f9ced18b89d81adb3ef7b0b6afabcfae11148cdc68a8a42604051611080939291906119b8565b60405180910390a45060019695505050505050565b60008083601f8401126110a757600080fd5b50813567ffffffffffffffff8111156110bf57600080fd5b6020830191508360208285010111156110d757600080fd5b9250929050565b600080600080600080606087890312156110f757600080fd5b863567ffffffffffffffff8082111561110f57600080fd5b61111b8a838b01611095565b9098509650602089013591508082111561113457600080fd5b6111408a838b01611095565b9096509450604089013591508082111561115957600080fd5b5061116689828a01611095565b979a9699509497509295939492505050565b60006020828403121561118a57600080fd5b5035919050565b6000815180845260005b818110156111b75760208185018101518683018201520161119b565b506000602082860101526020601f19601f83011685010191505092915050565b60a0815260006111ea60a0830188611191565b82810360208401526111fc8188611191565b905082810360408401526112108187611191565b6001600160a01b039590951660608401525050608001529392505050565b60008060006040848603121561124357600080fd5b83359250602084013567ffffffffffffffff81111561126157600080fd5b61126d86828701611095565b9497909650939450505050565b60c08152600061128d60c0830189611191565b828103602084015261129f8189611191565b905082810360408401526112b38188611191565b6001600160a01b0396909616606084015250506080810192909252151560a0909101529392505050565b60c0815260006112f060c0830189611191565b6001600160a01b0397909716602083015250604081019490945260608401929092526080830152151560a090910152919050565b80356001600160a01b038116811461133b57600080fd5b919050565b6000806040838503121561135357600080fd5b61135c83611324565b915060208301356004811061137057600080fd5b809150509250929050565b60006020828403121561138d57600080fd5b6107b582611324565b634e487b7160e01b600052602160045260246000fd5b60208101600483106113ce57634e487b7160e01b600052602160045260246000fd5b91905290565b6000806000806000608086880312156113ec57600080fd5b853567ffffffffffffffff81111561140357600080fd5b61140f88828901611095565b9096509450611422905060208701611324565b94979396509394604081013594506060013592915050565b60e08152600061144d60e083018a611191565b6001600160a01b0398909816602083015250604081019590955260608501939093526080840191909152151560a0830152151560c090910152919050565b634e487b7160e01b600052604160045260246000fd5b600181811c908216806114b557607f821691505b6020821081036114d557634e487b7160e01b600052602260045260246000fd5b50919050565b601f82111561152557600081815260208120601f850160051c810160208610156115025750805b601f850160051c820191505b818110156115215782815560010161150e565b5050505b505050565b815167ffffffffffffffff8111156115445761154461148b565b6115588161155284546114a1565b846114db565b602080601f83116001811461158d57600084156115755750858301515b600019600386901b1c1916600185901b178555611521565b600085815260208120601f198616915b828110156115bc5788860151825594840194600190910190840161159d565b50858210156115da5787850151600019600388901b60f8161c191681555b5050505050600190811b01905550565b634e487b7160e01b600052601160045260246000fd5b600060018201611612576116126115ea565b5060010190565b81835281816020850137506000828201602090810191909152601f909101601f19169091010190565b60808152600061165660808301898b611619565b828103602084015261166981888a611619565b9050828103604084015261167e818688611619565b91505082606083015298975050505050505050565b602080825260159082015274149958dbdc9908191bd95cc81b9bdd08195e1a5cdd605a1b604082015260600190565b6020815260006116f860208301601681527510dbdb9cd95b9d08191bd95cc81b9bdd08195e1a5cdd60521b602082015260400190565b92915050565b604081526000808454611710816114a1565b8060408601526060600180841660008114611732576001811461174c5761177d565b60ff1985168884015283151560051b88018301955061177d565b8960005260208060002060005b868110156117745781548b8201870152908401908201611759565b8a018501975050505b50505050506020929092019290925292915050565b8183823760009101908152919050565b60008083546117b0816114a1565b600182811680156117c857600181146117dd5761180c565b60ff198416875282151583028701945061180c565b8760005260208060002060005b858110156118035781548a8201529084019082016117ea565b50505082870194505b50929695505050505050565b80820281158282048414176116f8576116f86115ea565b808201808211156116f8576116f86115ea565b608081526000611856608083018789611619565b602083019590955250604081019290925260609091015292915050565b606081526000611887606083018587611619565b82810360208401526118bc81601681527510dbdb9cd95b9d08191bd95cc81b9bdd08195e1a5cdd60521b602082015260400190565b915050826040830152949350505050565b6060815260006118e1606083018587611619565b8281036020840152600f81526e10dbdb9cd95b9d081c995d9bdad959608a1b602082015260408101915050826040830152949350505050565b60608152600061192e606083018587611619565b8281036020840152600f81526e10dbdb9cd95b9d08195e1c1a5c9959608a1b602082015260408101915050826040830152949350505050565b60608152600061197b606083018587611619565b828103602084015260138152720a4cae6cac2e4c6d0cae440dad2e6dac2e8c6d606b1b602082015260408101915050826040830152949350505050565b6040815260006119cc604083018587611619565b905082602083015294935050505056fed4459a1e064160d6e3f216d1cc85b99bdc670d5d4d7342bb04fd6556f5bc7af6a264697066735822122093c0382ce277529f1811dcdf084ff57ddcc42c76412933140e3f27d8b71efb1764736f6c63430008140033",
  "linkReferences": {},
  "deployedLinkReferences": {}
}